{
	"BuyMeACoffee.sol": {
		"BuyMeACoffee": {
			"abi": [
				{
					"inputs": [],
					"stateMutability": "nonpayable",
					"type": "constructor"
				},
				{
					"anonymous": false,
					"inputs": [
						{
							"indexed": true,
							"internalType": "address",
							"name": "from",
							"type": "address"
						},
						{
							"indexed": false,
							"internalType": "uint256",
							"name": "timestamp",
							"type": "uint256"
						},
						{
							"indexed": false,
							"internalType": "string",
							"name": "name",
							"type": "string"
						},
						{
							"indexed": false,
							"internalType": "string",
							"name": "message",
							"type": "string"
						},
						{
							"indexed": false,
							"internalType": "uint256",
							"name": "amount",
							"type": "uint256"
						}
					],
					"name": "NewCoffee",
					"type": "event"
				},
				{
					"anonymous": false,
					"inputs": [
						{
							"indexed": true,
							"internalType": "address",
							"name": "owner",
							"type": "address"
						},
						{
							"indexed": false,
							"internalType": "uint256",
							"name": "amount",
							"type": "uint256"
						},
						{
							"indexed": false,
							"internalType": "uint256",
							"name": "timestamp",
							"type": "uint256"
						}
					],
					"name": "WithdrawalSuccessful",
					"type": "event"
				},
				{
					"stateMutability": "payable",
					"type": "fallback"
				},
				{
					"inputs": [],
					"name": "MIN_COFFEE_PRICE",
					"outputs": [
						{
							"internalType": "uint256",
							"name": "",
							"type": "uint256"
						}
					],
					"stateMutability": "view",
					"type": "function"
				},
				{
					"inputs": [
						{
							"internalType": "string",
							"name": "_name",
							"type": "string"
						},
						{
							"internalType": "string",
							"name": "_message",
							"type": "string"
						}
					],
					"name": "buyCoffee",
					"outputs": [],
					"stateMutability": "payable",
					"type": "function"
				},
				{
					"inputs": [
						{
							"internalType": "string",
							"name": "_name",
							"type": "string"
						},
						{
							"internalType": "string",
							"name": "_message",
							"type": "string"
						},
						{
							"internalType": "uint256",
							"name": "_count",
							"type": "uint256"
						}
					],
					"name": "buyMultipleCoffees",
					"outputs": [],
					"stateMutability": "payable",
					"type": "function"
				},
				{
					"inputs": [
						{
							"internalType": "uint256",
							"name": "",
							"type": "uint256"
						}
					],
					"name": "coffees",
					"outputs": [
						{
							"internalType": "address",
							"name": "from",
							"type": "address"
						},
						{
							"internalType": "uint256",
							"name": "timestamp",
							"type": "uint256"
						},
						{
							"internalType": "string",
							"name": "name",
							"type": "string"
						},
						{
							"internalType": "string",
							"name": "message",
							"type": "string"
						},
						{
							"internalType": "uint256",
							"name": "amount",
							"type": "uint256"
						}
					],
					"stateMutability": "view",
					"type": "function"
				},
				{
					"inputs": [],
					"name": "getCoffees",
					"outputs": [
						{
							"components": [
								{
									"internalType": "address",
									"name": "from",
									"type": "address"
								},
								{
									"internalType": "uint256",
									"name": "timestamp",
									"type": "uint256"
								},
								{
									"internalType": "string",
									"name": "name",
									"type": "string"
								},
								{
									"internalType": "string",
									"name": "message",
									"type": "string"
								},
								{
									"internalType": "uint256",
									"name": "amount",
									"type": "uint256"
								}
							],
							"internalType": "struct BuyMeACoffee.Coffee[]",
							"name": "",
							"type": "tuple[]"
						}
					],
					"stateMutability": "view",
					"type": "function"
				},
				{
					"inputs": [],
					"name": "getContractBalance",
					"outputs": [
						{
							"internalType": "uint256",
							"name": "",
							"type": "uint256"
						}
					],
					"stateMutability": "view",
					"type": "function"
				},
				{
					"inputs": [
						{
							"internalType": "address",
							"name": "_donor",
							"type": "address"
						}
					],
					"name": "getDonorStats",
					"outputs": [
						{
							"internalType": "uint256",
							"name": "totalDonated",
							"type": "uint256"
						},
						{
							"internalType": "uint256",
							"name": "coffeeCount",
							"type": "uint256"
						}
					],
					"stateMutability": "view",
					"type": "function"
				},
				{
					"inputs": [],
					"name": "getRecentCoffees",
					"outputs": [
						{
							"components": [
								{
									"internalType": "address",
									"name": "from",
									"type": "address"
								},
								{
									"internalType": "uint256",
									"name": "timestamp",
									"type": "uint256"
								},
								{
									"internalType": "string",
									"name": "name",
									"type": "string"
								},
								{
									"internalType": "string",
									"name": "message",
									"type": "string"
								},
								{
									"internalType": "uint256",
									"name": "amount",
									"type": "uint256"
								}
							],
							"internalType": "struct BuyMeACoffee.Coffee[]",
							"name": "",
							"type": "tuple[]"
						}
					],
					"stateMutability": "view",
					"type": "function"
				},
				{
					"inputs": [],
					"name": "getTotalCoffees",
					"outputs": [
						{
							"internalType": "uint256",
							"name": "",
							"type": "uint256"
						}
					],
					"stateMutability": "view",
					"type": "function"
				},
				{
					"inputs": [],
					"name": "owner",
					"outputs": [
						{
							"internalType": "address payable",
							"name": "",
							"type": "address"
						}
					],
					"stateMutability": "view",
					"type": "function"
				},
				{
					"inputs": [
						{
							"internalType": "address",
							"name": "",
							"type": "address"
						}
					],
					"name": "totalDonatedBy",
					"outputs": [
						{
							"internalType": "uint256",
							"name": "",
							"type": "uint256"
						}
					],
					"stateMutability": "view",
					"type": "function"
				},
				{
					"inputs": [
						{
							"internalType": "address payable",
							"name": "_newOwner",
							"type": "address"
						}
					],
					"name": "transferOwnership",
					"outputs": [],
					"stateMutability": "nonpayable",
					"type": "function"
				},
				{
					"inputs": [
						{
							"internalType": "uint256",
							"name": "_amount",
							"type": "uint256"
						}
					],
					"name": "withdrawPartial",
					"outputs": [],
					"stateMutability": "nonpayable",
					"type": "function"
				},
				{
					"inputs": [],
					"name": "withdrawTips",
					"outputs": [],
					"stateMutability": "nonpayable",
					"type": "function"
				},
				{
					"stateMutability": "payable",
					"type": "receive"
				}
			],
			"devdoc": {
				"kind": "dev",
				"methods": {
					"buyCoffee(string,string)": {
						"details": "Fonction pour acheter un café",
						"params": {
							"_message": "Message personnalisé",
							"_name": "Nom de la personne qui achète le café"
						}
					},
					"buyMultipleCoffees(string,string,uint256)": {
						"details": "Fonction pour acheter plusieurs cafés d'un coup",
						"params": {
							"_count": "Nombre de cafés à acheter",
							"_message": "Message personnalisé",
							"_name": "Nom de la personne"
						}
					},
					"getCoffees()": {
						"details": "Obtenir tous les cafés achetés"
					},
					"getContractBalance()": {
						"details": "Obtenir le solde du contrat"
					},
					"getDonorStats(address)": {
						"details": "Obtenir les statistiques d'un donateur",
						"params": {
							"_donor": "Adresse du donateur"
						}
					},
					"getRecentCoffees()": {
						"details": "Obtenir les derniers cafés (limité à 10)"
					},
					"getTotalCoffees()": {
						"details": "Obtenir le nombre total de cafés"
					},
					"transferOwnership(address)": {
						"details": "Changer le propriétaire du contrat",
						"params": {
							"_newOwner": "Nouvelle adresse du propriétaire"
						}
					},
					"withdrawPartial(uint256)": {
						"details": "Retrait partiel des fonds",
						"params": {
							"_amount": "Montant à retirer en wei"
						}
					},
					"withdrawTips()": {
						"details": "Retrait des fonds par le propriétaire"
					}
				},
				"version": 1
			},
			"evm": {
				"assembly": "    /* \"BuyMeACoffee.sol\":61:6890  contract BuyMeACoffee {... */\n  mstore(0x40, 0x80)\n    /* \"BuyMeACoffee.sol\":1278:1338  constructor() {... */\n  callvalue\n  dup1\n  iszero\n  tag_1\n  jumpi\n  revert(0x00, 0x00)\ntag_1:\n  pop\n    /* \"BuyMeACoffee.sol\":1319:1329  msg.sender */\n  caller\n    /* \"BuyMeACoffee.sol\":1303:1308  owner */\n  0x00\n  0x00\n    /* \"BuyMeACoffee.sol\":1303:1330  owner = payable(msg.sender) */\n  0x0100\n  exp\n  dup2\n  sload\n  dup2\n  0xffffffffffffffffffffffffffffffffffffffff\n  mul\n  not\n  and\n  swap1\n  dup4\n  0xffffffffffffffffffffffffffffffffffffffff\n  and\n  mul\n  or\n  swap1\n  sstore\n  pop\n    /* \"BuyMeACoffee.sol\":61:6890  contract BuyMeACoffee {... */\n  dataSize(sub_0)\n  dup1\n  dataOffset(sub_0)\n  0x00\n  codecopy\n  0x00\n  return\nstop\n\nsub_0: assembly {\n        /* \"BuyMeACoffee.sol\":61:6890  contract BuyMeACoffee {... */\n      mstore(0x40, 0x80)\n      jumpi(tag_1, lt(calldatasize, 0x04))\n      shr(0xe0, calldataload(0x00))\n      dup1\n      0x6f9fb98a\n      gt\n      tag_17\n      jumpi\n      dup1\n      0xaa586704\n      gt\n      tag_18\n      jumpi\n      dup1\n      0xaa586704\n      eq\n      tag_13\n      jumpi\n      dup1\n      0xb02eafb1\n      eq\n      tag_14\n      jumpi\n      dup1\n      0xc8eb0c88\n      eq\n      tag_15\n      jumpi\n      dup1\n      0xf2fde38b\n      eq\n      tag_16\n      jumpi\n      jump(tag_2)\n    tag_18:\n      dup1\n      0x6f9fb98a\n      eq\n      tag_10\n      jumpi\n      dup1\n      0x7b4424b8\n      eq\n      tag_11\n      jumpi\n      dup1\n      0x8da5cb5b\n      eq\n      tag_12\n      jumpi\n      jump(tag_2)\n    tag_17:\n      dup1\n      0x2c490cc7\n      gt\n      tag_19\n      jumpi\n      dup1\n      0x2c490cc7\n      eq\n      tag_6\n      jumpi\n      dup1\n      0x3aaa74b2\n      eq\n      tag_7\n      jumpi\n      dup1\n      0x5b0c306d\n      eq\n      tag_8\n      jumpi\n      dup1\n      0x5cbee4ef\n      eq\n      tag_9\n      jumpi\n      jump(tag_2)\n    tag_19:\n      dup1\n      0x1211540c\n      eq\n      tag_3\n      jumpi\n      dup1\n      0x1e6178cc\n      eq\n      tag_4\n      jumpi\n      dup1\n      0x204206e1\n      eq\n      tag_5\n      jumpi\n      jump(tag_2)\n    tag_1:\n      jumpi(tag_2, calldatasize)\n        /* \"BuyMeACoffee.sol\":6345:6352  coffees */\n      0x01\n        /* \"BuyMeACoffee.sol\":6358:6514  Coffee(... */\n      mload(0x40)\n      dup1\n      0xa0\n      add\n      0x40\n      mstore\n      dup1\n        /* \"BuyMeACoffee.sol\":6379:6389  msg.sender */\n      caller\n        /* \"BuyMeACoffee.sol\":6358:6514  Coffee(... */\n      0xffffffffffffffffffffffffffffffffffffffff\n      and\n      dup2\n      mstore\n      0x20\n      add\n        /* \"BuyMeACoffee.sol\":6404:6419  block.timestamp */\n      timestamp\n        /* \"BuyMeACoffee.sol\":6358:6514  Coffee(... */\n      dup2\n      mstore\n      0x20\n      add\n      mload(0x40)\n      dup1\n      0x40\n      add\n      0x40\n      mstore\n      dup1\n      0x10\n      dup2\n      mstore\n      0x20\n      add\n      0x446f6e617465757220616e6f6e796d6500000000000000000000000000000000\n      dup2\n      mstore\n      pop\n      dup2\n      mstore\n      0x20\n      add\n      mload(0x40)\n      dup1\n      0x40\n      add\n      0x40\n      mstore\n      dup1\n      0x0a\n      dup2\n      mstore\n      0x20\n      add\n      0x446f6e2064697265637400000000000000000000000000000000000000000000\n      dup2\n      mstore\n      pop\n      dup2\n      mstore\n      0x20\n      add\n        /* \"BuyMeACoffee.sol\":6494:6503  msg.value */\n      callvalue\n        /* \"BuyMeACoffee.sol\":6358:6514  Coffee(... */\n      dup2\n      mstore\n      pop\n        /* \"BuyMeACoffee.sol\":6345:6515  coffees.push(Coffee(... */\n      swap1\n      dup1\n      0x01\n      dup2\n      sload\n      add\n      dup1\n      dup3\n      sstore\n      dup1\n      swap2\n      pop\n      pop\n      0x01\n      swap1\n      sub\n      swap1\n      0x00\n      mstore\n      keccak256(0x00, 0x20)\n      swap1\n      0x05\n      mul\n      add\n      0x00\n      swap1\n      swap2\n      swap1\n      swap2\n      swap1\n      swap2\n      pop\n      0x00\n      dup3\n      add\n      mload\n      dup2\n      0x00\n      add\n      exp(0x0100, 0x00)\n      dup2\n      sload\n      dup2\n      0xffffffffffffffffffffffffffffffffffffffff\n      mul\n      not\n      and\n      swap1\n      dup4\n      0xffffffffffffffffffffffffffffffffffffffff\n      and\n      mul\n      or\n      swap1\n      sstore\n      pop\n      0x20\n      dup3\n      add\n      mload\n      dup2\n      0x01\n      add\n      sstore\n      0x40\n      dup3\n      add\n      mload\n      dup2\n      0x02\n      add\n      swap1\n      dup2\n      tag_23\n      swap2\n      swap1\n      tag_24\n      jump\t// in\n    tag_23:\n      pop\n      0x60\n      dup3\n      add\n      mload\n      dup2\n      0x03\n      add\n      swap1\n      dup2\n      tag_25\n      swap2\n      swap1\n      tag_24\n      jump\t// in\n    tag_25:\n      pop\n      0x80\n      dup3\n      add\n      mload\n      dup2\n      0x04\n      add\n      sstore\n      pop\n      pop\n        /* \"BuyMeACoffee.sol\":6558:6567  msg.value */\n      callvalue\n        /* \"BuyMeACoffee.sol\":6528:6542  totalDonatedBy */\n      0x02\n        /* \"BuyMeACoffee.sol\":6528:6554  totalDonatedBy[msg.sender] */\n      0x00\n        /* \"BuyMeACoffee.sol\":6543:6553  msg.sender */\n      caller\n        /* \"BuyMeACoffee.sol\":6528:6554  totalDonatedBy[msg.sender] */\n      0xffffffffffffffffffffffffffffffffffffffff\n      and\n      0xffffffffffffffffffffffffffffffffffffffff\n      and\n      dup2\n      mstore\n      0x20\n      add\n      swap1\n      dup2\n      mstore\n      0x20\n      add\n      0x00\n      keccak256\n      0x00\n        /* \"BuyMeACoffee.sol\":6528:6567  totalDonatedBy[msg.sender] += msg.value */\n      dup3\n      dup3\n      sload\n      tag_26\n      swap2\n      swap1\n      tag_27\n      jump\t// in\n    tag_26:\n      swap3\n      pop\n      pop\n      dup2\n      swap1\n      sstore\n      pop\n        /* \"BuyMeACoffee.sol\":6609:6619  msg.sender */\n      caller\n        /* \"BuyMeACoffee.sol\":6585:6744  NewCoffee(... */\n      0xffffffffffffffffffffffffffffffffffffffff\n      and\n      0x0b977a663808728b1d9d73abc7d6c74f3c354f5c726e6812e767b783e14d1983\n        /* \"BuyMeACoffee.sol\":6634:6649  block.timestamp */\n      timestamp\n        /* \"BuyMeACoffee.sol\":6724:6733  msg.value */\n      callvalue\n        /* \"BuyMeACoffee.sol\":6585:6744  NewCoffee(... */\n      mload(0x40)\n      tag_28\n      swap3\n      swap2\n      swap1\n      tag_29\n      jump\t// in\n    tag_28:\n      mload(0x40)\n      dup1\n      swap2\n      sub\n      swap1\n      log2\n        /* \"BuyMeACoffee.sol\":61:6890  contract BuyMeACoffee {... */\n      stop\n    tag_2:\n        /* \"BuyMeACoffee.sol\":6848:6879  revert(\"Fonction non reconnue\") */\n      mload(0x40)\n      0x08c379a000000000000000000000000000000000000000000000000000000000\n      dup2\n      mstore\n      0x04\n      add\n      tag_32\n      swap1\n      tag_33\n      jump\t// in\n    tag_32:\n      mload(0x40)\n      dup1\n      swap2\n      sub\n      swap1\n      revert\n        /* \"BuyMeACoffee.sol\":3966:4355  function withdrawPartial(uint256 _amount) public onlyOwner {... */\n    tag_3:\n      callvalue\n      dup1\n      iszero\n      tag_34\n      jumpi\n      revert(0x00, 0x00)\n    tag_34:\n      pop\n      tag_35\n      0x04\n      dup1\n      calldatasize\n      sub\n      dup2\n      add\n      swap1\n      tag_36\n      swap2\n      swap1\n      tag_37\n      jump\t// in\n    tag_36:\n      tag_38\n      jump\t// in\n    tag_35:\n      stop\n        /* \"BuyMeACoffee.sol\":4773:5202  function getRecentCoffees() public view returns (Coffee[] memory) {... */\n    tag_4:\n      callvalue\n      dup1\n      iszero\n      tag_39\n      jumpi\n      revert(0x00, 0x00)\n    tag_39:\n      pop\n      tag_40\n      tag_41\n      jump\t// in\n    tag_40:\n      mload(0x40)\n      tag_42\n      swap2\n      swap1\n      tag_43\n      jump\t// in\n    tag_42:\n      mload(0x40)\n      dup1\n      swap2\n      sub\n      swap1\n      return\n        /* \"BuyMeACoffee.sol\":1515:2242  function buyCoffee(... */\n    tag_5:\n      tag_44\n      0x04\n      dup1\n      calldatasize\n      sub\n      dup2\n      add\n      swap1\n      tag_45\n      swap2\n      swap1\n      tag_46\n      jump\t// in\n    tag_45:\n      tag_47\n      jump\t// in\n    tag_44:\n      stop\n        /* \"BuyMeACoffee.sol\":2466:3439  function buyMultipleCoffees(... */\n    tag_6:\n      tag_48\n      0x04\n      dup1\n      calldatasize\n      sub\n      dup2\n      add\n      swap1\n      tag_49\n      swap2\n      swap1\n      tag_50\n      jump\t// in\n    tag_49:\n      tag_51\n      jump\t// in\n    tag_48:\n      stop\n        /* \"BuyMeACoffee.sol\":3517:3852  function withdrawTips() public onlyOwner {... */\n    tag_7:\n      callvalue\n      dup1\n      iszero\n      tag_52\n      jumpi\n      revert(0x00, 0x00)\n    tag_52:\n      pop\n      tag_53\n      tag_54\n      jump\t// in\n    tag_53:\n      stop\n        /* \"BuyMeACoffee.sol\":4427:4520  function getCoffees() public view returns (Coffee[] memory) {... */\n    tag_8:\n      callvalue\n      dup1\n      iszero\n      tag_55\n      jumpi\n      revert(0x00, 0x00)\n    tag_55:\n      pop\n      tag_56\n      tag_57\n      jump\t// in\n    tag_56:\n      mload(0x40)\n      tag_58\n      swap2\n      swap1\n      tag_43\n      jump\t// in\n    tag_58:\n      mload(0x40)\n      dup1\n      swap2\n      sub\n      swap1\n      return\n        /* \"BuyMeACoffee.sol\":766:820  uint256 public constant MIN_COFFEE_PRICE = 0.001 ether */\n    tag_9:\n      callvalue\n      dup1\n      iszero\n      tag_59\n      jumpi\n      revert(0x00, 0x00)\n    tag_59:\n      pop\n      tag_60\n      tag_61\n      jump\t// in\n    tag_60:\n      mload(0x40)\n      tag_62\n      swap2\n      swap1\n      tag_63\n      jump\t// in\n    tag_62:\n      mload(0x40)\n      dup1\n      swap2\n      sub\n      swap1\n      return\n        /* \"BuyMeACoffee.sol\":5269:5376  function getContractBalance() public view returns (uint256) {... */\n    tag_10:\n      callvalue\n      dup1\n      iszero\n      tag_64\n      jumpi\n      revert(0x00, 0x00)\n    tag_64:\n      pop\n      tag_65\n      tag_66\n      jump\t// in\n    tag_65:\n      mload(0x40)\n      tag_67\n      swap2\n      swap1\n      tag_63\n      jump\t// in\n    tag_67:\n      mload(0x40)\n      dup1\n      swap2\n      sub\n      swap1\n      return\n        /* \"BuyMeACoffee.sol\":896:945  mapping(address => uint256) public totalDonatedBy */\n    tag_11:\n      callvalue\n      dup1\n      iszero\n      tag_68\n      jumpi\n      revert(0x00, 0x00)\n    tag_68:\n      pop\n      tag_69\n      0x04\n      dup1\n      calldatasize\n      sub\n      dup2\n      add\n      swap1\n      tag_70\n      swap2\n      swap1\n      tag_71\n      jump\t// in\n    tag_70:\n      tag_72\n      jump\t// in\n    tag_69:\n      mload(0x40)\n      tag_73\n      swap2\n      swap1\n      tag_63\n      jump\t// in\n    tag_73:\n      mload(0x40)\n      dup1\n      swap2\n      sub\n      swap1\n      return\n        /* \"BuyMeACoffee.sol\":639:667  address payable public owner */\n    tag_12:\n      callvalue\n      dup1\n      iszero\n      tag_74\n      jumpi\n      revert(0x00, 0x00)\n    tag_74:\n      pop\n      tag_75\n      tag_76\n      jump\t// in\n    tag_75:\n      mload(0x40)\n      tag_77\n      swap2\n      swap1\n      tag_78\n      jump\t// in\n    tag_77:\n      mload(0x40)\n      dup1\n      swap2\n      sub\n      swap1\n      return\n        /* \"BuyMeACoffee.sol\":674:697  Coffee[] public coffees */\n    tag_13:\n      callvalue\n      dup1\n      iszero\n      tag_79\n      jumpi\n      revert(0x00, 0x00)\n    tag_79:\n      pop\n      tag_80\n      0x04\n      dup1\n      calldatasize\n      sub\n      dup2\n      add\n      swap1\n      tag_81\n      swap2\n      swap1\n      tag_37\n      jump\t// in\n    tag_81:\n      tag_82\n      jump\t// in\n    tag_80:\n      mload(0x40)\n      tag_83\n      swap6\n      swap5\n      swap4\n      swap3\n      swap2\n      swap1\n      tag_84\n      jump\t// in\n    tag_83:\n      mload(0x40)\n      dup1\n      swap2\n      sub\n      swap1\n      return\n        /* \"BuyMeACoffee.sol\":4593:4690  function getTotalCoffees() public view returns (uint256) {... */\n    tag_14:\n      callvalue\n      dup1\n      iszero\n      tag_85\n      jumpi\n      revert(0x00, 0x00)\n    tag_85:\n      pop\n      tag_86\n      tag_87\n      jump\t// in\n    tag_86:\n      mload(0x40)\n      tag_88\n      swap2\n      swap1\n      tag_63\n      jump\t// in\n    tag_88:\n      mload(0x40)\n      dup1\n      swap2\n      sub\n      swap1\n      return\n        /* \"BuyMeACoffee.sol\":5496:5849  function getDonorStats(address _donor) public view returns (uint256 totalDonated, uint256 coffeeCount) {... */\n    tag_15:\n      callvalue\n      dup1\n      iszero\n      tag_89\n      jumpi\n      revert(0x00, 0x00)\n    tag_89:\n      pop\n      tag_90\n      0x04\n      dup1\n      calldatasize\n      sub\n      dup2\n      add\n      swap1\n      tag_91\n      swap2\n      swap1\n      tag_71\n      jump\t// in\n    tag_91:\n      tag_92\n      jump\t// in\n    tag_90:\n      mload(0x40)\n      tag_93\n      swap3\n      swap2\n      swap1\n      tag_94\n      jump\t// in\n    tag_93:\n      mload(0x40)\n      dup1\n      swap2\n      sub\n      swap1\n      return\n        /* \"BuyMeACoffee.sol\":5983:6162  function transferOwnership(address payable _newOwner) public onlyOwner {... */\n    tag_16:\n      callvalue\n      dup1\n      iszero\n      tag_95\n      jumpi\n      revert(0x00, 0x00)\n    tag_95:\n      pop\n      tag_96\n      0x04\n      dup1\n      calldatasize\n      sub\n      dup2\n      add\n      swap1\n      tag_97\n      swap2\n      swap1\n      tag_98\n      jump\t// in\n    tag_97:\n      tag_99\n      jump\t// in\n    tag_96:\n      stop\n        /* \"BuyMeACoffee.sol\":3966:4355  function withdrawPartial(uint256 _amount) public onlyOwner {... */\n    tag_38:\n        /* \"BuyMeACoffee.sol\":1030:1035  owner */\n      0x00\n      0x00\n      swap1\n      sload\n      swap1\n      0x0100\n      exp\n      swap1\n      div\n      0xffffffffffffffffffffffffffffffffffffffff\n      and\n        /* \"BuyMeACoffee.sol\":1016:1035  msg.sender == owner */\n      0xffffffffffffffffffffffffffffffffffffffff\n      and\n        /* \"BuyMeACoffee.sol\":1016:1026  msg.sender */\n      caller\n        /* \"BuyMeACoffee.sol\":1016:1035  msg.sender == owner */\n      0xffffffffffffffffffffffffffffffffffffffff\n      and\n      eq\n        /* \"BuyMeACoffee.sol\":1008:1088  require(msg.sender == owner, \"Seul le proprietaire peut effectuer cette action\") */\n      tag_101\n      jumpi\n      mload(0x40)\n      0x08c379a000000000000000000000000000000000000000000000000000000000\n      dup2\n      mstore\n      0x04\n      add\n      tag_102\n      swap1\n      tag_103\n      jump\t// in\n    tag_102:\n      mload(0x40)\n      dup1\n      swap2\n      sub\n      swap1\n      revert\n    tag_101:\n        /* \"BuyMeACoffee.sol\":4054:4055  0 */\n      0x00\n        /* \"BuyMeACoffee.sol\":4044:4051  _amount */\n      dup2\n        /* \"BuyMeACoffee.sol\":4044:4055  _amount > 0 */\n      gt\n        /* \"BuyMeACoffee.sol\":4036:4094  require(_amount > 0, \"Le montant doit etre superieur a 0\") */\n      tag_105\n      jumpi\n      mload(0x40)\n      0x08c379a000000000000000000000000000000000000000000000000000000000\n      dup2\n      mstore\n      0x04\n      add\n      tag_106\n      swap1\n      tag_107\n      jump\t// in\n    tag_106:\n      mload(0x40)\n      dup1\n      swap2\n      sub\n      swap1\n      revert\n    tag_105:\n        /* \"BuyMeACoffee.sol\":4138:4145  _amount */\n      dup1\n        /* \"BuyMeACoffee.sol\":4113:4134  address(this).balance */\n      selfbalance\n        /* \"BuyMeACoffee.sol\":4113:4145  address(this).balance >= _amount */\n      lt\n      iszero\n        /* \"BuyMeACoffee.sol\":4105:4167  require(address(this).balance >= _amount, \"Solde insuffisant\") */\n      tag_108\n      jumpi\n      mload(0x40)\n      0x08c379a000000000000000000000000000000000000000000000000000000000\n      dup2\n      mstore\n      0x04\n      add\n      tag_109\n      swap1\n      tag_110\n      jump\t// in\n    tag_109:\n      mload(0x40)\n      dup1\n      swap2\n      sub\n      swap1\n      revert\n    tag_108:\n        /* \"BuyMeACoffee.sol\":4181:4193  bool success */\n      0x00\n        /* \"BuyMeACoffee.sol\":4199:4204  owner */\n      0x00\n      0x00\n      swap1\n      sload\n      swap1\n      0x0100\n      exp\n      swap1\n      div\n      0xffffffffffffffffffffffffffffffffffffffff\n      and\n        /* \"BuyMeACoffee.sol\":4199:4209  owner.call */\n      0xffffffffffffffffffffffffffffffffffffffff\n      and\n        /* \"BuyMeACoffee.sol\":4217:4224  _amount */\n      dup3\n        /* \"BuyMeACoffee.sol\":4199:4229  owner.call{value: _amount}(\"\") */\n      mload(0x40)\n      tag_111\n      swap1\n      tag_112\n      jump\t// in\n    tag_111:\n      0x00\n      mload(0x40)\n      dup1\n      dup4\n      sub\n      dup2\n      dup6\n      dup8\n      gas\n      call\n      swap3\n      pop\n      pop\n      pop\n      returndatasize\n      dup1\n      0x00\n      dup2\n      eq\n      tag_115\n      jumpi\n      mload(0x40)\n      swap2\n      pop\n      and(add(returndatasize, 0x3f), not(0x1f))\n      dup3\n      add\n      0x40\n      mstore\n      returndatasize\n      dup3\n      mstore\n      returndatasize\n      0x00\n      0x20\n      dup5\n      add\n      returndatacopy\n      jump(tag_114)\n    tag_115:\n      0x60\n      swap2\n      pop\n    tag_114:\n      pop\n        /* \"BuyMeACoffee.sol\":4180:4229  (bool success, ) = owner.call{value: _amount}(\"\") */\n      pop\n      swap1\n      pop\n        /* \"BuyMeACoffee.sol\":4248:4255  success */\n      dup1\n        /* \"BuyMeACoffee.sol\":4240:4276  require(success, \"Echec du retrait\") */\n      tag_116\n      jumpi\n      mload(0x40)\n      0x08c379a000000000000000000000000000000000000000000000000000000000\n      dup2\n      mstore\n      0x04\n      add\n      tag_117\n      swap1\n      tag_118\n      jump\t// in\n    tag_117:\n      mload(0x40)\n      dup1\n      swap2\n      sub\n      swap1\n      revert\n    tag_116:\n        /* \"BuyMeACoffee.sol\":4315:4320  owner */\n      0x00\n      0x00\n      swap1\n      sload\n      swap1\n      0x0100\n      exp\n      swap1\n      div\n      0xffffffffffffffffffffffffffffffffffffffff\n      and\n        /* \"BuyMeACoffee.sol\":4294:4347  WithdrawalSuccessful(owner, _amount, block.timestamp) */\n      0xffffffffffffffffffffffffffffffffffffffff\n      and\n      0xfb59733a8f0bd43414922fb86c6ffdd090e44935074086318980ca89221acc56\n        /* \"BuyMeACoffee.sol\":4322:4329  _amount */\n      dup4\n        /* \"BuyMeACoffee.sol\":4331:4346  block.timestamp */\n      timestamp\n        /* \"BuyMeACoffee.sol\":4294:4347  WithdrawalSuccessful(owner, _amount, block.timestamp) */\n      mload(0x40)\n      tag_119\n      swap3\n      swap2\n      swap1\n      tag_94\n      jump\t// in\n    tag_119:\n      mload(0x40)\n      dup1\n      swap2\n      sub\n      swap1\n      log2\n        /* \"BuyMeACoffee.sol\":4025:4355  {... */\n      pop\n        /* \"BuyMeACoffee.sol\":3966:4355  function withdrawPartial(uint256 _amount) public onlyOwner {... */\n      pop\n      jump\t// out\n        /* \"BuyMeACoffee.sol\":4773:5202  function getRecentCoffees() public view returns (Coffee[] memory) {... */\n    tag_41:\n        /* \"BuyMeACoffee.sol\":4822:4837  Coffee[] memory */\n      0x60\n        /* \"BuyMeACoffee.sol\":4850:4870  uint256 totalCoffees */\n      0x00\n        /* \"BuyMeACoffee.sol\":4873:4880  coffees */\n      0x01\n        /* \"BuyMeACoffee.sol\":4873:4887  coffees.length */\n      dup1\n      sload\n      swap1\n      pop\n        /* \"BuyMeACoffee.sol\":4850:4887  uint256 totalCoffees = coffees.length */\n      swap1\n      pop\n        /* \"BuyMeACoffee.sol\":4898:4911  uint256 limit */\n      0x00\n        /* \"BuyMeACoffee.sol\":4929:4931  10 */\n      0x0a\n        /* \"BuyMeACoffee.sol\":4914:4926  totalCoffees */\n      dup3\n        /* \"BuyMeACoffee.sol\":4914:4931  totalCoffees > 10 */\n      gt\n        /* \"BuyMeACoffee.sol\":4914:4951  totalCoffees > 10 ? 10 : totalCoffees */\n      tag_121\n      jumpi\n        /* \"BuyMeACoffee.sol\":4939:4951  totalCoffees */\n      dup2\n        /* \"BuyMeACoffee.sol\":4914:4951  totalCoffees > 10 ? 10 : totalCoffees */\n      jump(tag_122)\n    tag_121:\n        /* \"BuyMeACoffee.sol\":4934:4936  10 */\n      0x0a\n        /* \"BuyMeACoffee.sol\":4914:4951  totalCoffees > 10 ? 10 : totalCoffees */\n    tag_122:\n        /* \"BuyMeACoffee.sol\":4898:4951  uint256 limit = totalCoffees > 10 ? 10 : totalCoffees */\n      swap1\n      pop\n        /* \"BuyMeACoffee.sol\":4972:5001  Coffee[] memory recentCoffees */\n      0x00\n        /* \"BuyMeACoffee.sol\":5017:5022  limit */\n      dup2\n        /* \"BuyMeACoffee.sol\":5004:5023  new Coffee[](limit) */\n      0xffffffffffffffff\n      dup2\n      gt\n      iszero\n      tag_123\n      jumpi\n      tag_124\n      tag_125\n      jump\t// in\n    tag_124:\n    tag_123:\n      mload(0x40)\n      swap1\n      dup1\n      dup3\n      mstore\n      dup1\n      0x20\n      mul\n      0x20\n      add\n      dup3\n      add\n      0x40\n      mstore\n      dup1\n      iszero\n      tag_126\n      jumpi\n      dup2\n      0x20\n      add\n    tag_127:\n      tag_128\n      tag_129\n      jump\t// in\n    tag_128:\n      dup2\n      mstore\n      0x20\n      add\n      swap1\n      0x01\n      swap1\n      sub\n      swap1\n      dup2\n      tag_127\n      jumpi\n      swap1\n      pop\n    tag_126:\n      pop\n        /* \"BuyMeACoffee.sol\":4972:5023  Coffee[] memory recentCoffees = new Coffee[](limit) */\n      swap1\n      pop\n        /* \"BuyMeACoffee.sol\":5048:5057  uint256 i */\n      0x00\n        /* \"BuyMeACoffee.sol\":5060:5061  0 */\n      0x00\n        /* \"BuyMeACoffee.sol\":5048:5061  uint256 i = 0 */\n      swap1\n      pop\n        /* \"BuyMeACoffee.sol\":5044:5154  for(uint256 i = 0; i < limit; i++) {... */\n    tag_130:\n        /* \"BuyMeACoffee.sol\":5067:5072  limit */\n      dup3\n        /* \"BuyMeACoffee.sol\":5063:5064  i */\n      dup2\n        /* \"BuyMeACoffee.sol\":5063:5072  i < limit */\n      lt\n        /* \"BuyMeACoffee.sol\":5044:5154  for(uint256 i = 0; i < limit; i++) {... */\n      iszero\n      tag_131\n      jumpi\n        /* \"BuyMeACoffee.sol\":5113:5120  coffees */\n      0x01\n        /* \"BuyMeACoffee.sol\":5140:5141  i */\n      dup2\n        /* \"BuyMeACoffee.sol\":5136:5137  1 */\n      0x01\n        /* \"BuyMeACoffee.sol\":5121:5133  totalCoffees */\n      dup7\n        /* \"BuyMeACoffee.sol\":5121:5137  totalCoffees - 1 */\n      tag_133\n      swap2\n      swap1\n      tag_134\n      jump\t// in\n    tag_133:\n        /* \"BuyMeACoffee.sol\":5121:5141  totalCoffees - 1 - i */\n      tag_135\n      swap2\n      swap1\n      tag_134\n      jump\t// in\n    tag_135:\n        /* \"BuyMeACoffee.sol\":5113:5142  coffees[totalCoffees - 1 - i] */\n      dup2\n      sload\n      dup2\n      lt\n      tag_136\n      jumpi\n      tag_137\n      tag_138\n      jump\t// in\n    tag_137:\n    tag_136:\n      swap1\n      0x00\n      mstore\n      keccak256(0x00, 0x20)\n      swap1\n      0x05\n      mul\n      add\n        /* \"BuyMeACoffee.sol\":5094:5142  recentCoffees[i] = coffees[totalCoffees - 1 - i] */\n      mload(0x40)\n      dup1\n      0xa0\n      add\n      0x40\n      mstore\n      swap1\n      dup2\n      0x00\n      dup3\n      add\n      0x00\n      swap1\n      sload\n      swap1\n      0x0100\n      exp\n      swap1\n      div\n      0xffffffffffffffffffffffffffffffffffffffff\n      and\n      0xffffffffffffffffffffffffffffffffffffffff\n      and\n      0xffffffffffffffffffffffffffffffffffffffff\n      and\n      dup2\n      mstore\n      0x20\n      add\n      0x01\n      dup3\n      add\n      sload\n      dup2\n      mstore\n      0x20\n      add\n      0x02\n      dup3\n      add\n      dup1\n      sload\n      tag_140\n      swap1\n      tag_141\n      jump\t// in\n    tag_140:\n      dup1\n      0x1f\n      add\n      0x20\n      dup1\n      swap2\n      div\n      mul\n      0x20\n      add\n      mload(0x40)\n      swap1\n      dup2\n      add\n      0x40\n      mstore\n      dup1\n      swap3\n      swap2\n      swap1\n      dup2\n      dup2\n      mstore\n      0x20\n      add\n      dup3\n      dup1\n      sload\n      tag_142\n      swap1\n      tag_141\n      jump\t// in\n    tag_142:\n      dup1\n      iszero\n      tag_143\n      jumpi\n      dup1\n      0x1f\n      lt\n      tag_144\n      jumpi\n      0x0100\n      dup1\n      dup4\n      sload\n      div\n      mul\n      dup4\n      mstore\n      swap2\n      0x20\n      add\n      swap2\n      jump(tag_143)\n    tag_144:\n      dup3\n      add\n      swap2\n      swap1\n      0x00\n      mstore\n      keccak256(0x00, 0x20)\n      swap1\n    tag_145:\n      dup2\n      sload\n      dup2\n      mstore\n      swap1\n      0x01\n      add\n      swap1\n      0x20\n      add\n      dup1\n      dup4\n      gt\n      tag_145\n      jumpi\n      dup3\n      swap1\n      sub\n      0x1f\n      and\n      dup3\n      add\n      swap2\n    tag_143:\n      pop\n      pop\n      pop\n      pop\n      pop\n      dup2\n      mstore\n      0x20\n      add\n      0x03\n      dup3\n      add\n      dup1\n      sload\n      tag_146\n      swap1\n      tag_141\n      jump\t// in\n    tag_146:\n      dup1\n      0x1f\n      add\n      0x20\n      dup1\n      swap2\n      div\n      mul\n      0x20\n      add\n      mload(0x40)\n      swap1\n      dup2\n      add\n      0x40\n      mstore\n      dup1\n      swap3\n      swap2\n      swap1\n      dup2\n      dup2\n      mstore\n      0x20\n      add\n      dup3\n      dup1\n      sload\n      tag_147\n      swap1\n      tag_141\n      jump\t// in\n    tag_147:\n      dup1\n      iszero\n      tag_148\n      jumpi\n      dup1\n      0x1f\n      lt\n      tag_149\n      jumpi\n      0x0100\n      dup1\n      dup4\n      sload\n      div\n      mul\n      dup4\n      mstore\n      swap2\n      0x20\n      add\n      swap2\n      jump(tag_148)\n    tag_149:\n      dup3\n      add\n      swap2\n      swap1\n      0x00\n      mstore\n      keccak256(0x00, 0x20)\n      swap1\n    tag_150:\n      dup2\n      sload\n      dup2\n      mstore\n      swap1\n      0x01\n      add\n      swap1\n      0x20\n      add\n      dup1\n      dup4\n      gt\n      tag_150\n      jumpi\n      dup3\n      swap1\n      sub\n      0x1f\n      and\n      dup3\n      add\n      swap2\n    tag_148:\n      pop\n      pop\n      pop\n      pop\n      pop\n      dup2\n      mstore\n      0x20\n      add\n      0x04\n      dup3\n      add\n      sload\n      dup2\n      mstore\n      pop\n      pop\n        /* \"BuyMeACoffee.sol\":5094:5107  recentCoffees */\n      dup3\n        /* \"BuyMeACoffee.sol\":5108:5109  i */\n      dup3\n        /* \"BuyMeACoffee.sol\":5094:5110  recentCoffees[i] */\n      dup2\n      mload\n      dup2\n      lt\n      tag_151\n      jumpi\n      tag_152\n      tag_138\n      jump\t// in\n    tag_152:\n    tag_151:\n      0x20\n      mul\n      0x20\n      add\n      add\n        /* \"BuyMeACoffee.sol\":5094:5142  recentCoffees[i] = coffees[totalCoffees - 1 - i] */\n      dup2\n      swap1\n      mstore\n      pop\n        /* \"BuyMeACoffee.sol\":5074:5077  i++ */\n      dup1\n      dup1\n      0x01\n      add\n      swap2\n      pop\n      pop\n        /* \"BuyMeACoffee.sol\":5044:5154  for(uint256 i = 0; i < limit; i++) {... */\n      jump(tag_130)\n    tag_131:\n      pop\n        /* \"BuyMeACoffee.sol\":5181:5194  recentCoffees */\n      dup1\n        /* \"BuyMeACoffee.sol\":5174:5194  return recentCoffees */\n      swap4\n      pop\n      pop\n      pop\n      pop\n        /* \"BuyMeACoffee.sol\":4773:5202  function getRecentCoffees() public view returns (Coffee[] memory) {... */\n      swap1\n      jump\t// out\n        /* \"BuyMeACoffee.sol\":1515:2242  function buyCoffee(... */\n    tag_47:\n        /* \"BuyMeACoffee.sol\":809:820  0.001 ether */\n      0x038d7ea4c68000\n        /* \"BuyMeACoffee.sol\":1163:1172  msg.value */\n      callvalue\n        /* \"BuyMeACoffee.sol\":1163:1192  msg.value >= MIN_COFFEE_PRICE */\n      lt\n      iszero\n        /* \"BuyMeACoffee.sol\":1155:1229  require(msg.value >= MIN_COFFEE_PRICE, \"Le montant minimum est 0.001 ETH\") */\n      tag_154\n      jumpi\n      mload(0x40)\n      0x08c379a000000000000000000000000000000000000000000000000000000000\n      dup2\n      mstore\n      0x04\n      add\n      tag_155\n      swap1\n      tag_156\n      jump\t// in\n    tag_155:\n      mload(0x40)\n      dup1\n      swap2\n      sub\n      swap1\n      revert\n    tag_154:\n        /* \"BuyMeACoffee.sol\":1677:1678  0 */\n      0x00\n        /* \"BuyMeACoffee.sol\":1661:1666  _name */\n      dup3\n        /* \"BuyMeACoffee.sol\":1655:1674  bytes(_name).length */\n      mload\n        /* \"BuyMeACoffee.sol\":1655:1678  bytes(_name).length > 0 */\n      gt\n        /* \"BuyMeACoffee.sol\":1647:1711  require(bytes(_name).length > 0, \"Le nom ne peut pas etre vide\") */\n      tag_158\n      jumpi\n      mload(0x40)\n      0x08c379a000000000000000000000000000000000000000000000000000000000\n      dup2\n      mstore\n      0x04\n      add\n      tag_159\n      swap1\n      tag_160\n      jump\t// in\n    tag_159:\n      mload(0x40)\n      dup1\n      swap2\n      sub\n      swap1\n      revert\n    tag_158:\n        /* \"BuyMeACoffee.sol\":1773:1780  coffees */\n      0x01\n        /* \"BuyMeACoffee.sol\":1786:1925  Coffee(... */\n      mload(0x40)\n      dup1\n      0xa0\n      add\n      0x40\n      mstore\n      dup1\n        /* \"BuyMeACoffee.sol\":1807:1817  msg.sender */\n      caller\n        /* \"BuyMeACoffee.sol\":1786:1925  Coffee(... */\n      0xffffffffffffffffffffffffffffffffffffffff\n      and\n      dup2\n      mstore\n      0x20\n      add\n        /* \"BuyMeACoffee.sol\":1832:1847  block.timestamp */\n      timestamp\n        /* \"BuyMeACoffee.sol\":1786:1925  Coffee(... */\n      dup2\n      mstore\n      0x20\n      add\n        /* \"BuyMeACoffee.sol\":1862:1867  _name */\n      dup5\n        /* \"BuyMeACoffee.sol\":1786:1925  Coffee(... */\n      dup2\n      mstore\n      0x20\n      add\n        /* \"BuyMeACoffee.sol\":1882:1890  _message */\n      dup4\n        /* \"BuyMeACoffee.sol\":1786:1925  Coffee(... */\n      dup2\n      mstore\n      0x20\n      add\n        /* \"BuyMeACoffee.sol\":1905:1914  msg.value */\n      callvalue\n        /* \"BuyMeACoffee.sol\":1786:1925  Coffee(... */\n      dup2\n      mstore\n      pop\n        /* \"BuyMeACoffee.sol\":1773:1926  coffees.push(Coffee(... */\n      swap1\n      dup1\n      0x01\n      dup2\n      sload\n      add\n      dup1\n      dup3\n      sstore\n      dup1\n      swap2\n      pop\n      pop\n      0x01\n      swap1\n      sub\n      swap1\n      0x00\n      mstore\n      keccak256(0x00, 0x20)\n      swap1\n      0x05\n      mul\n      add\n      0x00\n      swap1\n      swap2\n      swap1\n      swap2\n      swap1\n      swap2\n      pop\n      0x00\n      dup3\n      add\n      mload\n      dup2\n      0x00\n      add\n      exp(0x0100, 0x00)\n      dup2\n      sload\n      dup2\n      0xffffffffffffffffffffffffffffffffffffffff\n      mul\n      not\n      and\n      swap1\n      dup4\n      0xffffffffffffffffffffffffffffffffffffffff\n      and\n      mul\n      or\n      swap1\n      sstore\n      pop\n      0x20\n      dup3\n      add\n      mload\n      dup2\n      0x01\n      add\n      sstore\n      0x40\n      dup3\n      add\n      mload\n      dup2\n      0x02\n      add\n      swap1\n      dup2\n      tag_162\n      swap2\n      swap1\n      tag_24\n      jump\t// in\n    tag_162:\n      pop\n      0x60\n      dup3\n      add\n      mload\n      dup2\n      0x03\n      add\n      swap1\n      dup2\n      tag_163\n      swap2\n      swap1\n      tag_24\n      jump\t// in\n    tag_163:\n      pop\n      0x80\n      dup3\n      add\n      mload\n      dup2\n      0x04\n      add\n      sstore\n      pop\n      pop\n        /* \"BuyMeACoffee.sol\":2030:2039  msg.value */\n      callvalue\n        /* \"BuyMeACoffee.sol\":2000:2014  totalDonatedBy */\n      0x02\n        /* \"BuyMeACoffee.sol\":2000:2026  totalDonatedBy[msg.sender] */\n      0x00\n        /* \"BuyMeACoffee.sol\":2015:2025  msg.sender */\n      caller\n        /* \"BuyMeACoffee.sol\":2000:2026  totalDonatedBy[msg.sender] */\n      0xffffffffffffffffffffffffffffffffffffffff\n      and\n      0xffffffffffffffffffffffffffffffffffffffff\n      and\n      dup2\n      mstore\n      0x20\n      add\n      swap1\n      dup2\n      mstore\n      0x20\n      add\n      0x00\n      keccak256\n      0x00\n        /* \"BuyMeACoffee.sol\":2000:2039  totalDonatedBy[msg.sender] += msg.value */\n      dup3\n      dup3\n      sload\n      tag_164\n      swap2\n      swap1\n      tag_27\n      jump\t// in\n    tag_164:\n      swap3\n      pop\n      pop\n      dup2\n      swap1\n      sstore\n      pop\n        /* \"BuyMeACoffee.sol\":2116:2126  msg.sender */\n      caller\n        /* \"BuyMeACoffee.sol\":2092:2234  NewCoffee(... */\n      0xffffffffffffffffffffffffffffffffffffffff\n      and\n      0x0b977a663808728b1d9d73abc7d6c74f3c354f5c726e6812e767b783e14d1983\n        /* \"BuyMeACoffee.sol\":2141:2156  block.timestamp */\n      timestamp\n        /* \"BuyMeACoffee.sol\":2171:2176  _name */\n      dup5\n        /* \"BuyMeACoffee.sol\":2191:2199  _message */\n      dup5\n        /* \"BuyMeACoffee.sol\":2214:2223  msg.value */\n      callvalue\n        /* \"BuyMeACoffee.sol\":2092:2234  NewCoffee(... */\n      mload(0x40)\n      tag_165\n      swap5\n      swap4\n      swap3\n      swap2\n      swap1\n      tag_166\n      jump\t// in\n    tag_165:\n      mload(0x40)\n      dup1\n      swap2\n      sub\n      swap1\n      log2\n        /* \"BuyMeACoffee.sol\":1515:2242  function buyCoffee(... */\n      pop\n      pop\n      jump\t// out\n        /* \"BuyMeACoffee.sol\":2466:3439  function buyMultipleCoffees(... */\n    tag_51:\n        /* \"BuyMeACoffee.sol\":2632:2633  0 */\n      0x00\n        /* \"BuyMeACoffee.sol\":2623:2629  _count */\n      dup2\n        /* \"BuyMeACoffee.sol\":2623:2633  _count > 0 */\n      gt\n        /* \"BuyMeACoffee.sol\":2623:2649  _count > 0 && _count <= 10 */\n      dup1\n      iszero\n      tag_168\n      jumpi\n      pop\n        /* \"BuyMeACoffee.sol\":2647:2649  10 */\n      0x0a\n        /* \"BuyMeACoffee.sol\":2637:2643  _count */\n      dup2\n        /* \"BuyMeACoffee.sol\":2637:2649  _count <= 10 */\n      gt\n      iszero\n        /* \"BuyMeACoffee.sol\":2623:2649  _count > 0 && _count <= 10 */\n    tag_168:\n        /* \"BuyMeACoffee.sol\":2615:2693  require(_count > 0 && _count <= 10, \"Vous pouvez acheter entre 1 et 10 cafes\") */\n      tag_169\n      jumpi\n      mload(0x40)\n      0x08c379a000000000000000000000000000000000000000000000000000000000\n      dup2\n      mstore\n      0x04\n      add\n      tag_170\n      swap1\n      tag_171\n      jump\t// in\n    tag_170:\n      mload(0x40)\n      dup1\n      swap2\n      sub\n      swap1\n      revert\n    tag_169:\n        /* \"BuyMeACoffee.sol\":2744:2750  _count */\n      dup1\n        /* \"BuyMeACoffee.sol\":809:820  0.001 ether */\n      0x038d7ea4c68000\n        /* \"BuyMeACoffee.sol\":2725:2750  MIN_COFFEE_PRICE * _count */\n      tag_172\n      swap2\n      swap1\n      tag_173\n      jump\t// in\n    tag_172:\n        /* \"BuyMeACoffee.sol\":2712:2721  msg.value */\n      callvalue\n        /* \"BuyMeACoffee.sol\":2712:2750  msg.value >= MIN_COFFEE_PRICE * _count */\n      lt\n      iszero\n        /* \"BuyMeACoffee.sol\":2704:2798  require(msg.value >= MIN_COFFEE_PRICE * _count, \"Montant insuffisant pour le nombre de cafes\") */\n      tag_174\n      jumpi\n      mload(0x40)\n      0x08c379a000000000000000000000000000000000000000000000000000000000\n      dup2\n      mstore\n      0x04\n      add\n      tag_175\n      swap1\n      tag_176\n      jump\t// in\n    tag_175:\n      mload(0x40)\n      dup1\n      swap2\n      sub\n      swap1\n      revert\n    tag_174:\n        /* \"BuyMeACoffee.sol\":2839:2840  0 */\n      0x00\n        /* \"BuyMeACoffee.sol\":2823:2828  _name */\n      dup4\n        /* \"BuyMeACoffee.sol\":2817:2836  bytes(_name).length */\n      mload\n        /* \"BuyMeACoffee.sol\":2817:2840  bytes(_name).length > 0 */\n      gt\n        /* \"BuyMeACoffee.sol\":2809:2873  require(bytes(_name).length > 0, \"Le nom ne peut pas etre vide\") */\n      tag_177\n      jumpi\n      mload(0x40)\n      0x08c379a000000000000000000000000000000000000000000000000000000000\n      dup2\n      mstore\n      0x04\n      add\n      tag_178\n      swap1\n      tag_160\n      jump\t// in\n    tag_178:\n      mload(0x40)\n      dup1\n      swap2\n      sub\n      swap1\n      revert\n    tag_177:\n        /* \"BuyMeACoffee.sol\":2886:2908  uint256 pricePerCoffee */\n      0x00\n        /* \"BuyMeACoffee.sol\":2923:2929  _count */\n      dup2\n        /* \"BuyMeACoffee.sol\":2911:2920  msg.value */\n      callvalue\n        /* \"BuyMeACoffee.sol\":2911:2929  msg.value / _count */\n      tag_179\n      swap2\n      swap1\n      tag_180\n      jump\t// in\n    tag_179:\n        /* \"BuyMeACoffee.sol\":2886:2929  uint256 pricePerCoffee = msg.value / _count */\n      swap1\n      pop\n        /* \"BuyMeACoffee.sol\":2946:2955  uint256 i */\n      0x00\n        /* \"BuyMeACoffee.sol\":2958:2959  0 */\n      0x00\n        /* \"BuyMeACoffee.sol\":2946:2959  uint256 i = 0 */\n      swap1\n      pop\n        /* \"BuyMeACoffee.sol\":2942:3380  for(uint256 i = 0; i < _count; i++) {... */\n    tag_181:\n        /* \"BuyMeACoffee.sol\":2965:2971  _count */\n      dup3\n        /* \"BuyMeACoffee.sol\":2961:2962  i */\n      dup2\n        /* \"BuyMeACoffee.sol\":2961:2971  i < _count */\n      lt\n        /* \"BuyMeACoffee.sol\":2942:3380  for(uint256 i = 0; i < _count; i++) {... */\n      iszero\n      tag_182\n      jumpi\n        /* \"BuyMeACoffee.sol\":2993:3000  coffees */\n      0x01\n        /* \"BuyMeACoffee.sol\":3006:3174  Coffee(... */\n      mload(0x40)\n      dup1\n      0xa0\n      add\n      0x40\n      mstore\n      dup1\n        /* \"BuyMeACoffee.sol\":3031:3041  msg.sender */\n      caller\n        /* \"BuyMeACoffee.sol\":3006:3174  Coffee(... */\n      0xffffffffffffffffffffffffffffffffffffffff\n      and\n      dup2\n      mstore\n      0x20\n      add\n        /* \"BuyMeACoffee.sol\":3060:3075  block.timestamp */\n      timestamp\n        /* \"BuyMeACoffee.sol\":3006:3174  Coffee(... */\n      dup2\n      mstore\n      0x20\n      add\n        /* \"BuyMeACoffee.sol\":3094:3099  _name */\n      dup8\n        /* \"BuyMeACoffee.sol\":3006:3174  Coffee(... */\n      dup2\n      mstore\n      0x20\n      add\n        /* \"BuyMeACoffee.sol\":3118:3126  _message */\n      dup7\n        /* \"BuyMeACoffee.sol\":3006:3174  Coffee(... */\n      dup2\n      mstore\n      0x20\n      add\n        /* \"BuyMeACoffee.sol\":3145:3159  pricePerCoffee */\n      dup5\n        /* \"BuyMeACoffee.sol\":3006:3174  Coffee(... */\n      dup2\n      mstore\n      pop\n        /* \"BuyMeACoffee.sol\":2993:3175  coffees.push(Coffee(... */\n      swap1\n      dup1\n      0x01\n      dup2\n      sload\n      add\n      dup1\n      dup3\n      sstore\n      dup1\n      swap2\n      pop\n      pop\n      0x01\n      swap1\n      sub\n      swap1\n      0x00\n      mstore\n      keccak256(0x00, 0x20)\n      swap1\n      0x05\n      mul\n      add\n      0x00\n      swap1\n      swap2\n      swap1\n      swap2\n      swap1\n      swap2\n      pop\n      0x00\n      dup3\n      add\n      mload\n      dup2\n      0x00\n      add\n      exp(0x0100, 0x00)\n      dup2\n      sload\n      dup2\n      0xffffffffffffffffffffffffffffffffffffffff\n      mul\n      not\n      and\n      swap1\n      dup4\n      0xffffffffffffffffffffffffffffffffffffffff\n      and\n      mul\n      or\n      swap1\n      sstore\n      pop\n      0x20\n      dup3\n      add\n      mload\n      dup2\n      0x01\n      add\n      sstore\n      0x40\n      dup3\n      add\n      mload\n      dup2\n      0x02\n      add\n      swap1\n      dup2\n      tag_185\n      swap2\n      swap1\n      tag_24\n      jump\t// in\n    tag_185:\n      pop\n      0x60\n      dup3\n      add\n      mload\n      dup2\n      0x03\n      add\n      swap1\n      dup2\n      tag_186\n      swap2\n      swap1\n      tag_24\n      jump\t// in\n    tag_186:\n      pop\n      0x80\n      dup3\n      add\n      mload\n      dup2\n      0x04\n      add\n      sstore\n      pop\n      pop\n        /* \"BuyMeACoffee.sol\":3225:3235  msg.sender */\n      caller\n        /* \"BuyMeACoffee.sol\":3197:3368  NewCoffee(... */\n      0xffffffffffffffffffffffffffffffffffffffff\n      and\n      0x0b977a663808728b1d9d73abc7d6c74f3c354f5c726e6812e767b783e14d1983\n        /* \"BuyMeACoffee.sol\":3254:3269  block.timestamp */\n      timestamp\n        /* \"BuyMeACoffee.sol\":3288:3293  _name */\n      dup8\n        /* \"BuyMeACoffee.sol\":3312:3320  _message */\n      dup8\n        /* \"BuyMeACoffee.sol\":3339:3353  pricePerCoffee */\n      dup7\n        /* \"BuyMeACoffee.sol\":3197:3368  NewCoffee(... */\n      mload(0x40)\n      tag_187\n      swap5\n      swap4\n      swap3\n      swap2\n      swap1\n      tag_166\n      jump\t// in\n    tag_187:\n      mload(0x40)\n      dup1\n      swap2\n      sub\n      swap1\n      log2\n        /* \"BuyMeACoffee.sol\":2973:2976  i++ */\n      dup1\n      dup1\n      0x01\n      add\n      swap2\n      pop\n      pop\n        /* \"BuyMeACoffee.sol\":2942:3380  for(uint256 i = 0; i < _count; i++) {... */\n      jump(tag_181)\n    tag_182:\n      pop\n        /* \"BuyMeACoffee.sol\":3422:3431  msg.value */\n      callvalue\n        /* \"BuyMeACoffee.sol\":3392:3406  totalDonatedBy */\n      0x02\n        /* \"BuyMeACoffee.sol\":3392:3418  totalDonatedBy[msg.sender] */\n      0x00\n        /* \"BuyMeACoffee.sol\":3407:3417  msg.sender */\n      caller\n        /* \"BuyMeACoffee.sol\":3392:3418  totalDonatedBy[msg.sender] */\n      0xffffffffffffffffffffffffffffffffffffffff\n      and\n      0xffffffffffffffffffffffffffffffffffffffff\n      and\n      dup2\n      mstore\n      0x20\n      add\n      swap1\n      dup2\n      mstore\n      0x20\n      add\n      0x00\n      keccak256\n      0x00\n        /* \"BuyMeACoffee.sol\":3392:3431  totalDonatedBy[msg.sender] += msg.value */\n      dup3\n      dup3\n      sload\n      tag_188\n      swap2\n      swap1\n      tag_27\n      jump\t// in\n    tag_188:\n      swap3\n      pop\n      pop\n      dup2\n      swap1\n      sstore\n      pop\n        /* \"BuyMeACoffee.sol\":2604:3439  {... */\n      pop\n        /* \"BuyMeACoffee.sol\":2466:3439  function buyMultipleCoffees(... */\n      pop\n      pop\n      pop\n      jump\t// out\n        /* \"BuyMeACoffee.sol\":3517:3852  function withdrawTips() public onlyOwner {... */\n    tag_54:\n        /* \"BuyMeACoffee.sol\":1030:1035  owner */\n      0x00\n      0x00\n      swap1\n      sload\n      swap1\n      0x0100\n      exp\n      swap1\n      div\n      0xffffffffffffffffffffffffffffffffffffffff\n      and\n        /* \"BuyMeACoffee.sol\":1016:1035  msg.sender == owner */\n      0xffffffffffffffffffffffffffffffffffffffff\n      and\n        /* \"BuyMeACoffee.sol\":1016:1026  msg.sender */\n      caller\n        /* \"BuyMeACoffee.sol\":1016:1035  msg.sender == owner */\n      0xffffffffffffffffffffffffffffffffffffffff\n      and\n      eq\n        /* \"BuyMeACoffee.sol\":1008:1088  require(msg.sender == owner, \"Seul le proprietaire peut effectuer cette action\") */\n      tag_190\n      jumpi\n      mload(0x40)\n      0x08c379a000000000000000000000000000000000000000000000000000000000\n      dup2\n      mstore\n      0x04\n      add\n      tag_191\n      swap1\n      tag_103\n      jump\t// in\n    tag_191:\n      mload(0x40)\n      dup1\n      swap2\n      sub\n      swap1\n      revert\n    tag_190:\n        /* \"BuyMeACoffee.sol\":3569:3584  uint256 balance */\n      0x00\n        /* \"BuyMeACoffee.sol\":3587:3608  address(this).balance */\n      selfbalance\n        /* \"BuyMeACoffee.sol\":3569:3608  uint256 balance = address(this).balance */\n      swap1\n      pop\n        /* \"BuyMeACoffee.sol\":3637:3638  0 */\n      0x00\n        /* \"BuyMeACoffee.sol\":3627:3634  balance */\n      dup2\n        /* \"BuyMeACoffee.sol\":3627:3638  balance > 0 */\n      gt\n        /* \"BuyMeACoffee.sol\":3619:3664  require(balance > 0, \"Aucun fonds a retirer\") */\n      tag_193\n      jumpi\n      mload(0x40)\n      0x08c379a000000000000000000000000000000000000000000000000000000000\n      dup2\n      mstore\n      0x04\n      add\n      tag_194\n      swap1\n      tag_195\n      jump\t// in\n    tag_194:\n      mload(0x40)\n      dup1\n      swap2\n      sub\n      swap1\n      revert\n    tag_193:\n        /* \"BuyMeACoffee.sol\":3678:3690  bool success */\n      0x00\n        /* \"BuyMeACoffee.sol\":3696:3701  owner */\n      0x00\n      0x00\n      swap1\n      sload\n      swap1\n      0x0100\n      exp\n      swap1\n      div\n      0xffffffffffffffffffffffffffffffffffffffff\n      and\n        /* \"BuyMeACoffee.sol\":3696:3706  owner.call */\n      0xffffffffffffffffffffffffffffffffffffffff\n      and\n        /* \"BuyMeACoffee.sol\":3714:3721  balance */\n      dup3\n        /* \"BuyMeACoffee.sol\":3696:3726  owner.call{value: balance}(\"\") */\n      mload(0x40)\n      tag_196\n      swap1\n      tag_112\n      jump\t// in\n    tag_196:\n      0x00\n      mload(0x40)\n      dup1\n      dup4\n      sub\n      dup2\n      dup6\n      dup8\n      gas\n      call\n      swap3\n      pop\n      pop\n      pop\n      returndatasize\n      dup1\n      0x00\n      dup2\n      eq\n      tag_199\n      jumpi\n      mload(0x40)\n      swap2\n      pop\n      and(add(returndatasize, 0x3f), not(0x1f))\n      dup3\n      add\n      0x40\n      mstore\n      returndatasize\n      dup3\n      mstore\n      returndatasize\n      0x00\n      0x20\n      dup5\n      add\n      returndatacopy\n      jump(tag_198)\n    tag_199:\n      0x60\n      swap2\n      pop\n    tag_198:\n      pop\n        /* \"BuyMeACoffee.sol\":3677:3726  (bool success, ) = owner.call{value: balance}(\"\") */\n      pop\n      swap1\n      pop\n        /* \"BuyMeACoffee.sol\":3745:3752  success */\n      dup1\n        /* \"BuyMeACoffee.sol\":3737:3773  require(success, \"Echec du retrait\") */\n      tag_200\n      jumpi\n      mload(0x40)\n      0x08c379a000000000000000000000000000000000000000000000000000000000\n      dup2\n      mstore\n      0x04\n      add\n      tag_201\n      swap1\n      tag_118\n      jump\t// in\n    tag_201:\n      mload(0x40)\n      dup1\n      swap2\n      sub\n      swap1\n      revert\n    tag_200:\n        /* \"BuyMeACoffee.sol\":3812:3817  owner */\n      0x00\n      0x00\n      swap1\n      sload\n      swap1\n      0x0100\n      exp\n      swap1\n      div\n      0xffffffffffffffffffffffffffffffffffffffff\n      and\n        /* \"BuyMeACoffee.sol\":3791:3844  WithdrawalSuccessful(owner, balance, block.timestamp) */\n      0xffffffffffffffffffffffffffffffffffffffff\n      and\n      0xfb59733a8f0bd43414922fb86c6ffdd090e44935074086318980ca89221acc56\n        /* \"BuyMeACoffee.sol\":3819:3826  balance */\n      dup4\n        /* \"BuyMeACoffee.sol\":3828:3843  block.timestamp */\n      timestamp\n        /* \"BuyMeACoffee.sol\":3791:3844  WithdrawalSuccessful(owner, balance, block.timestamp) */\n      mload(0x40)\n      tag_202\n      swap3\n      swap2\n      swap1\n      tag_94\n      jump\t// in\n    tag_202:\n      mload(0x40)\n      dup1\n      swap2\n      sub\n      swap1\n      log2\n        /* \"BuyMeACoffee.sol\":3558:3852  {... */\n      pop\n      pop\n        /* \"BuyMeACoffee.sol\":3517:3852  function withdrawTips() public onlyOwner {... */\n      jump\t// out\n        /* \"BuyMeACoffee.sol\":4427:4520  function getCoffees() public view returns (Coffee[] memory) {... */\n    tag_57:\n        /* \"BuyMeACoffee.sol\":4470:4485  Coffee[] memory */\n      0x60\n        /* \"BuyMeACoffee.sol\":4505:4512  coffees */\n      0x01\n        /* \"BuyMeACoffee.sol\":4498:4512  return coffees */\n      dup1\n      sload\n      dup1\n      0x20\n      mul\n      0x20\n      add\n      mload(0x40)\n      swap1\n      dup2\n      add\n      0x40\n      mstore\n      dup1\n      swap3\n      swap2\n      swap1\n      dup2\n      dup2\n      mstore\n      0x20\n      add\n      0x00\n      swap1\n    tag_204:\n      dup3\n      dup3\n      lt\n      iszero\n      tag_205\n      jumpi\n      dup4\n      dup3\n      swap1\n      0x00\n      mstore\n      keccak256(0x00, 0x20)\n      swap1\n      0x05\n      mul\n      add\n      mload(0x40)\n      dup1\n      0xa0\n      add\n      0x40\n      mstore\n      swap1\n      dup2\n      0x00\n      dup3\n      add\n      0x00\n      swap1\n      sload\n      swap1\n      0x0100\n      exp\n      swap1\n      div\n      0xffffffffffffffffffffffffffffffffffffffff\n      and\n      0xffffffffffffffffffffffffffffffffffffffff\n      and\n      0xffffffffffffffffffffffffffffffffffffffff\n      and\n      dup2\n      mstore\n      0x20\n      add\n      0x01\n      dup3\n      add\n      sload\n      dup2\n      mstore\n      0x20\n      add\n      0x02\n      dup3\n      add\n      dup1\n      sload\n      tag_207\n      swap1\n      tag_141\n      jump\t// in\n    tag_207:\n      dup1\n      0x1f\n      add\n      0x20\n      dup1\n      swap2\n      div\n      mul\n      0x20\n      add\n      mload(0x40)\n      swap1\n      dup2\n      add\n      0x40\n      mstore\n      dup1\n      swap3\n      swap2\n      swap1\n      dup2\n      dup2\n      mstore\n      0x20\n      add\n      dup3\n      dup1\n      sload\n      tag_208\n      swap1\n      tag_141\n      jump\t// in\n    tag_208:\n      dup1\n      iszero\n      tag_209\n      jumpi\n      dup1\n      0x1f\n      lt\n      tag_210\n      jumpi\n      0x0100\n      dup1\n      dup4\n      sload\n      div\n      mul\n      dup4\n      mstore\n      swap2\n      0x20\n      add\n      swap2\n      jump(tag_209)\n    tag_210:\n      dup3\n      add\n      swap2\n      swap1\n      0x00\n      mstore\n      keccak256(0x00, 0x20)\n      swap1\n    tag_211:\n      dup2\n      sload\n      dup2\n      mstore\n      swap1\n      0x01\n      add\n      swap1\n      0x20\n      add\n      dup1\n      dup4\n      gt\n      tag_211\n      jumpi\n      dup3\n      swap1\n      sub\n      0x1f\n      and\n      dup3\n      add\n      swap2\n    tag_209:\n      pop\n      pop\n      pop\n      pop\n      pop\n      dup2\n      mstore\n      0x20\n      add\n      0x03\n      dup3\n      add\n      dup1\n      sload\n      tag_212\n      swap1\n      tag_141\n      jump\t// in\n    tag_212:\n      dup1\n      0x1f\n      add\n      0x20\n      dup1\n      swap2\n      div\n      mul\n      0x20\n      add\n      mload(0x40)\n      swap1\n      dup2\n      add\n      0x40\n      mstore\n      dup1\n      swap3\n      swap2\n      swap1\n      dup2\n      dup2\n      mstore\n      0x20\n      add\n      dup3\n      dup1\n      sload\n      tag_213\n      swap1\n      tag_141\n      jump\t// in\n    tag_213:\n      dup1\n      iszero\n      tag_214\n      jumpi\n      dup1\n      0x1f\n      lt\n      tag_215\n      jumpi\n      0x0100\n      dup1\n      dup4\n      sload\n      div\n      mul\n      dup4\n      mstore\n      swap2\n      0x20\n      add\n      swap2\n      jump(tag_214)\n    tag_215:\n      dup3\n      add\n      swap2\n      swap1\n      0x00\n      mstore\n      keccak256(0x00, 0x20)\n      swap1\n    tag_216:\n      dup2\n      sload\n      dup2\n      mstore\n      swap1\n      0x01\n      add\n      swap1\n      0x20\n      add\n      dup1\n      dup4\n      gt\n      tag_216\n      jumpi\n      dup3\n      swap1\n      sub\n      0x1f\n      and\n      dup3\n      add\n      swap2\n    tag_214:\n      pop\n      pop\n      pop\n      pop\n      pop\n      dup2\n      mstore\n      0x20\n      add\n      0x04\n      dup3\n      add\n      sload\n      dup2\n      mstore\n      pop\n      pop\n      dup2\n      mstore\n      0x20\n      add\n      swap1\n      0x01\n      add\n      swap1\n      jump(tag_204)\n    tag_205:\n      pop\n      pop\n      pop\n      pop\n      swap1\n      pop\n        /* \"BuyMeACoffee.sol\":4427:4520  function getCoffees() public view returns (Coffee[] memory) {... */\n      swap1\n      jump\t// out\n        /* \"BuyMeACoffee.sol\":766:820  uint256 public constant MIN_COFFEE_PRICE = 0.001 ether */\n    tag_61:\n        /* \"BuyMeACoffee.sol\":809:820  0.001 ether */\n      0x038d7ea4c68000\n        /* \"BuyMeACoffee.sol\":766:820  uint256 public constant MIN_COFFEE_PRICE = 0.001 ether */\n      dup2\n      jump\t// out\n        /* \"BuyMeACoffee.sol\":5269:5376  function getContractBalance() public view returns (uint256) {... */\n    tag_66:\n        /* \"BuyMeACoffee.sol\":5320:5327  uint256 */\n      0x00\n        /* \"BuyMeACoffee.sol\":5347:5368  address(this).balance */\n      selfbalance\n        /* \"BuyMeACoffee.sol\":5340:5368  return address(this).balance */\n      swap1\n      pop\n        /* \"BuyMeACoffee.sol\":5269:5376  function getContractBalance() public view returns (uint256) {... */\n      swap1\n      jump\t// out\n        /* \"BuyMeACoffee.sol\":896:945  mapping(address => uint256) public totalDonatedBy */\n    tag_72:\n      mstore(0x20, 0x02)\n      dup1\n      0x00\n      mstore\n      keccak256(0x00, 0x40)\n      0x00\n      swap2\n      pop\n      swap1\n      pop\n      sload\n      dup2\n      jump\t// out\n        /* \"BuyMeACoffee.sol\":639:667  address payable public owner */\n    tag_76:\n      0x00\n      0x00\n      swap1\n      sload\n      swap1\n      0x0100\n      exp\n      swap1\n      div\n      0xffffffffffffffffffffffffffffffffffffffff\n      and\n      dup2\n      jump\t// out\n        /* \"BuyMeACoffee.sol\":674:697  Coffee[] public coffees */\n    tag_82:\n      0x01\n      dup2\n      dup2\n      sload\n      dup2\n      lt\n      tag_218\n      jumpi\n      0x00\n      dup1\n      revert\n    tag_218:\n      swap1\n      0x00\n      mstore\n      keccak256(0x00, 0x20)\n      swap1\n      0x05\n      mul\n      add\n      0x00\n      swap2\n      pop\n      swap1\n      pop\n      dup1\n      0x00\n      add\n      0x00\n      swap1\n      sload\n      swap1\n      0x0100\n      exp\n      swap1\n      div\n      0xffffffffffffffffffffffffffffffffffffffff\n      and\n      swap1\n      dup1\n      0x01\n      add\n      sload\n      swap1\n      dup1\n      0x02\n      add\n      dup1\n      sload\n      tag_220\n      swap1\n      tag_141\n      jump\t// in\n    tag_220:\n      dup1\n      0x1f\n      add\n      0x20\n      dup1\n      swap2\n      div\n      mul\n      0x20\n      add\n      mload(0x40)\n      swap1\n      dup2\n      add\n      0x40\n      mstore\n      dup1\n      swap3\n      swap2\n      swap1\n      dup2\n      dup2\n      mstore\n      0x20\n      add\n      dup3\n      dup1\n      sload\n      tag_221\n      swap1\n      tag_141\n      jump\t// in\n    tag_221:\n      dup1\n      iszero\n      tag_222\n      jumpi\n      dup1\n      0x1f\n      lt\n      tag_223\n      jumpi\n      0x0100\n      dup1\n      dup4\n      sload\n      div\n      mul\n      dup4\n      mstore\n      swap2\n      0x20\n      add\n      swap2\n      jump(tag_222)\n    tag_223:\n      dup3\n      add\n      swap2\n      swap1\n      0x00\n      mstore\n      keccak256(0x00, 0x20)\n      swap1\n    tag_224:\n      dup2\n      sload\n      dup2\n      mstore\n      swap1\n      0x01\n      add\n      swap1\n      0x20\n      add\n      dup1\n      dup4\n      gt\n      tag_224\n      jumpi\n      dup3\n      swap1\n      sub\n      0x1f\n      and\n      dup3\n      add\n      swap2\n    tag_222:\n      pop\n      pop\n      pop\n      pop\n      pop\n      swap1\n      dup1\n      0x03\n      add\n      dup1\n      sload\n      tag_225\n      swap1\n      tag_141\n      jump\t// in\n    tag_225:\n      dup1\n      0x1f\n      add\n      0x20\n      dup1\n      swap2\n      div\n      mul\n      0x20\n      add\n      mload(0x40)\n      swap1\n      dup2\n      add\n      0x40\n      mstore\n      dup1\n      swap3\n      swap2\n      swap1\n      dup2\n      dup2\n      mstore\n      0x20\n      add\n      dup3\n      dup1\n      sload\n      tag_226\n      swap1\n      tag_141\n      jump\t// in\n    tag_226:\n      dup1\n      iszero\n      tag_227\n      jumpi\n      dup1\n      0x1f\n      lt\n      tag_228\n      jumpi\n      0x0100\n      dup1\n      dup4\n      sload\n      div\n      mul\n      dup4\n      mstore\n      swap2\n      0x20\n      add\n      swap2\n      jump(tag_227)\n    tag_228:\n      dup3\n      add\n      swap2\n      swap1\n      0x00\n      mstore\n      keccak256(0x00, 0x20)\n      swap1\n    tag_229:\n      dup2\n      sload\n      dup2\n      mstore\n      swap1\n      0x01\n      add\n      swap1\n      0x20\n      add\n      dup1\n      dup4\n      gt\n      tag_229\n      jumpi\n      dup3\n      swap1\n      sub\n      0x1f\n      and\n      dup3\n      add\n      swap2\n    tag_227:\n      pop\n      pop\n      pop\n      pop\n      pop\n      swap1\n      dup1\n      0x04\n      add\n      sload\n      swap1\n      pop\n      dup6\n      jump\t// out\n        /* \"BuyMeACoffee.sol\":4593:4690  function getTotalCoffees() public view returns (uint256) {... */\n    tag_87:\n        /* \"BuyMeACoffee.sol\":4641:4648  uint256 */\n      0x00\n        /* \"BuyMeACoffee.sol\":4668:4675  coffees */\n      0x01\n        /* \"BuyMeACoffee.sol\":4668:4682  coffees.length */\n      dup1\n      sload\n      swap1\n      pop\n        /* \"BuyMeACoffee.sol\":4661:4682  return coffees.length */\n      swap1\n      pop\n        /* \"BuyMeACoffee.sol\":4593:4690  function getTotalCoffees() public view returns (uint256) {... */\n      swap1\n      jump\t// out\n        /* \"BuyMeACoffee.sol\":5496:5849  function getDonorStats(address _donor) public view returns (uint256 totalDonated, uint256 coffeeCount) {... */\n    tag_92:\n        /* \"BuyMeACoffee.sol\":5556:5576  uint256 totalDonated */\n      0x00\n        /* \"BuyMeACoffee.sol\":5578:5597  uint256 coffeeCount */\n      0x00\n        /* \"BuyMeACoffee.sol\":5625:5639  totalDonatedBy */\n      0x02\n        /* \"BuyMeACoffee.sol\":5625:5647  totalDonatedBy[_donor] */\n      0x00\n        /* \"BuyMeACoffee.sol\":5640:5646  _donor */\n      dup5\n        /* \"BuyMeACoffee.sol\":5625:5647  totalDonatedBy[_donor] */\n      0xffffffffffffffffffffffffffffffffffffffff\n      and\n      0xffffffffffffffffffffffffffffffffffffffff\n      and\n      dup2\n      mstore\n      0x20\n      add\n      swap1\n      dup2\n      mstore\n      0x20\n      add\n      0x00\n      keccak256\n      sload\n        /* \"BuyMeACoffee.sol\":5610:5647  totalDonated = totalDonatedBy[_donor] */\n      swap2\n      pop\n        /* \"BuyMeACoffee.sol\":5682:5683  0 */\n      0x00\n        /* \"BuyMeACoffee.sol\":5668:5683  coffeeCount = 0 */\n      swap1\n      pop\n        /* \"BuyMeACoffee.sol\":5698:5707  uint256 i */\n      0x00\n        /* \"BuyMeACoffee.sol\":5710:5711  0 */\n      0x00\n        /* \"BuyMeACoffee.sol\":5698:5711  uint256 i = 0 */\n      swap1\n      pop\n        /* \"BuyMeACoffee.sol\":5694:5842  for(uint256 i = 0; i < coffees.length; i++) {... */\n    tag_232:\n        /* \"BuyMeACoffee.sol\":5717:5724  coffees */\n      0x01\n        /* \"BuyMeACoffee.sol\":5717:5731  coffees.length */\n      dup1\n      sload\n      swap1\n      pop\n        /* \"BuyMeACoffee.sol\":5713:5714  i */\n      dup2\n        /* \"BuyMeACoffee.sol\":5713:5731  i < coffees.length */\n      lt\n        /* \"BuyMeACoffee.sol\":5694:5842  for(uint256 i = 0; i < coffees.length; i++) {... */\n      iszero\n      tag_233\n      jumpi\n        /* \"BuyMeACoffee.sol\":5775:5781  _donor */\n      dup4\n        /* \"BuyMeACoffee.sol\":5756:5781  coffees[i].from == _donor */\n      0xffffffffffffffffffffffffffffffffffffffff\n      and\n        /* \"BuyMeACoffee.sol\":5756:5763  coffees */\n      0x01\n        /* \"BuyMeACoffee.sol\":5764:5765  i */\n      dup3\n        /* \"BuyMeACoffee.sol\":5756:5766  coffees[i] */\n      dup2\n      sload\n      dup2\n      lt\n      tag_235\n      jumpi\n      tag_236\n      tag_138\n      jump\t// in\n    tag_236:\n    tag_235:\n      swap1\n      0x00\n      mstore\n      keccak256(0x00, 0x20)\n      swap1\n      0x05\n      mul\n      add\n        /* \"BuyMeACoffee.sol\":5756:5771  coffees[i].from */\n      0x00\n      add\n      0x00\n      swap1\n      sload\n      swap1\n      0x0100\n      exp\n      swap1\n      div\n      0xffffffffffffffffffffffffffffffffffffffff\n      and\n        /* \"BuyMeACoffee.sol\":5756:5781  coffees[i].from == _donor */\n      0xffffffffffffffffffffffffffffffffffffffff\n      and\n      sub\n        /* \"BuyMeACoffee.sol\":5753:5831  if(coffees[i].from == _donor) {... */\n      tag_238\n      jumpi\n        /* \"BuyMeACoffee.sol\":5802:5815  coffeeCount++ */\n      dup2\n      dup1\n      tag_239\n      swap1\n      tag_240\n      jump\t// in\n    tag_239:\n      swap3\n      pop\n      pop\n        /* \"BuyMeACoffee.sol\":5753:5831  if(coffees[i].from == _donor) {... */\n    tag_238:\n        /* \"BuyMeACoffee.sol\":5733:5736  i++ */\n      dup1\n      dup1\n      0x01\n      add\n      swap2\n      pop\n      pop\n        /* \"BuyMeACoffee.sol\":5694:5842  for(uint256 i = 0; i < coffees.length; i++) {... */\n      jump(tag_232)\n    tag_233:\n      pop\n        /* \"BuyMeACoffee.sol\":5496:5849  function getDonorStats(address _donor) public view returns (uint256 totalDonated, uint256 coffeeCount) {... */\n      swap2\n      pop\n      swap2\n      jump\t// out\n        /* \"BuyMeACoffee.sol\":5983:6162  function transferOwnership(address payable _newOwner) public onlyOwner {... */\n    tag_99:\n        /* \"BuyMeACoffee.sol\":1030:1035  owner */\n      0x00\n      0x00\n      swap1\n      sload\n      swap1\n      0x0100\n      exp\n      swap1\n      div\n      0xffffffffffffffffffffffffffffffffffffffff\n      and\n        /* \"BuyMeACoffee.sol\":1016:1035  msg.sender == owner */\n      0xffffffffffffffffffffffffffffffffffffffff\n      and\n        /* \"BuyMeACoffee.sol\":1016:1026  msg.sender */\n      caller\n        /* \"BuyMeACoffee.sol\":1016:1035  msg.sender == owner */\n      0xffffffffffffffffffffffffffffffffffffffff\n      and\n      eq\n        /* \"BuyMeACoffee.sol\":1008:1088  require(msg.sender == owner, \"Seul le proprietaire peut effectuer cette action\") */\n      tag_242\n      jumpi\n      mload(0x40)\n      0x08c379a000000000000000000000000000000000000000000000000000000000\n      dup2\n      mstore\n      0x04\n      add\n      tag_243\n      swap1\n      tag_103\n      jump\t// in\n    tag_243:\n      mload(0x40)\n      dup1\n      swap2\n      sub\n      swap1\n      revert\n    tag_242:\n        /* \"BuyMeACoffee.sol\":6094:6095  0 */\n      0x00\n        /* \"BuyMeACoffee.sol\":6073:6096  _newOwner != address(0) */\n      0xffffffffffffffffffffffffffffffffffffffff\n      and\n        /* \"BuyMeACoffee.sol\":6073:6082  _newOwner */\n      dup2\n        /* \"BuyMeACoffee.sol\":6073:6096  _newOwner != address(0) */\n      0xffffffffffffffffffffffffffffffffffffffff\n      and\n      sub\n        /* \"BuyMeACoffee.sol\":6065:6126  require(_newOwner != address(0), \"Nouvelle adresse invalide\") */\n      tag_245\n      jumpi\n      mload(0x40)\n      0x08c379a000000000000000000000000000000000000000000000000000000000\n      dup2\n      mstore\n      0x04\n      add\n      tag_246\n      swap1\n      tag_247\n      jump\t// in\n    tag_246:\n      mload(0x40)\n      dup1\n      swap2\n      sub\n      swap1\n      revert\n    tag_245:\n        /* \"BuyMeACoffee.sol\":6145:6154  _newOwner */\n      dup1\n        /* \"BuyMeACoffee.sol\":6137:6142  owner */\n      0x00\n      0x00\n        /* \"BuyMeACoffee.sol\":6137:6154  owner = _newOwner */\n      0x0100\n      exp\n      dup2\n      sload\n      dup2\n      0xffffffffffffffffffffffffffffffffffffffff\n      mul\n      not\n      and\n      swap1\n      dup4\n      0xffffffffffffffffffffffffffffffffffffffff\n      and\n      mul\n      or\n      swap1\n      sstore\n      pop\n        /* \"BuyMeACoffee.sol\":5983:6162  function transferOwnership(address payable _newOwner) public onlyOwner {... */\n      pop\n      jump\t// out\n    tag_129:\n      mload(0x40)\n      dup1\n      0xa0\n      add\n      0x40\n      mstore\n      dup1\n      and(0xffffffffffffffffffffffffffffffffffffffff, 0x00)\n      dup2\n      mstore\n      0x20\n      add\n      0x00\n      dup2\n      mstore\n      0x20\n      add\n      0x60\n      dup2\n      mstore\n      0x20\n      add\n      0x60\n      dup2\n      mstore\n      0x20\n      add\n      0x00\n      dup2\n      mstore\n      pop\n      swap1\n      jump\t// out\n        /* \"#utility.yul\":7:106   */\n    tag_248:\n        /* \"#utility.yul\":59:65   */\n      0x00\n        /* \"#utility.yul\":93:98   */\n      dup2\n        /* \"#utility.yul\":87:99   */\n      mload\n        /* \"#utility.yul\":77:99   */\n      swap1\n      pop\n        /* \"#utility.yul\":7:106   */\n      swap2\n      swap1\n      pop\n      jump\t// out\n        /* \"#utility.yul\":112:292   */\n    tag_125:\n        /* \"#utility.yul\":160:237   */\n      0x4e487b7100000000000000000000000000000000000000000000000000000000\n        /* \"#utility.yul\":157:158   */\n      0x00\n        /* \"#utility.yul\":150:238   */\n      mstore\n        /* \"#utility.yul\":257:261   */\n      0x41\n        /* \"#utility.yul\":254:255   */\n      0x04\n        /* \"#utility.yul\":247:262   */\n      mstore\n        /* \"#utility.yul\":281:285   */\n      0x24\n        /* \"#utility.yul\":278:279   */\n      0x00\n        /* \"#utility.yul\":271:286   */\n      revert\n        /* \"#utility.yul\":298:478   */\n    tag_249:\n        /* \"#utility.yul\":346:423   */\n      0x4e487b7100000000000000000000000000000000000000000000000000000000\n        /* \"#utility.yul\":343:344   */\n      0x00\n        /* \"#utility.yul\":336:424   */\n      mstore\n        /* \"#utility.yul\":443:447   */\n      0x22\n        /* \"#utility.yul\":440:441   */\n      0x04\n        /* \"#utility.yul\":433:448   */\n      mstore\n        /* \"#utility.yul\":467:471   */\n      0x24\n        /* \"#utility.yul\":464:465   */\n      0x00\n        /* \"#utility.yul\":457:472   */\n      revert\n        /* \"#utility.yul\":484:804   */\n    tag_141:\n        /* \"#utility.yul\":528:534   */\n      0x00\n        /* \"#utility.yul\":565:566   */\n      0x02\n        /* \"#utility.yul\":559:563   */\n      dup3\n        /* \"#utility.yul\":555:567   */\n      div\n        /* \"#utility.yul\":545:567   */\n      swap1\n      pop\n        /* \"#utility.yul\":612:613   */\n      0x01\n        /* \"#utility.yul\":606:610   */\n      dup3\n        /* \"#utility.yul\":602:614   */\n      and\n        /* \"#utility.yul\":633:651   */\n      dup1\n        /* \"#utility.yul\":623:704   */\n      tag_340\n      jumpi\n        /* \"#utility.yul\":689:693   */\n      0x7f\n        /* \"#utility.yul\":681:687   */\n      dup3\n        /* \"#utility.yul\":677:694   */\n      and\n        /* \"#utility.yul\":667:694   */\n      swap2\n      pop\n        /* \"#utility.yul\":623:704   */\n    tag_340:\n        /* \"#utility.yul\":751:753   */\n      0x20\n        /* \"#utility.yul\":743:749   */\n      dup3\n        /* \"#utility.yul\":740:754   */\n      lt\n        /* \"#utility.yul\":720:738   */\n      dup2\n        /* \"#utility.yul\":717:755   */\n      sub\n        /* \"#utility.yul\":714:798   */\n      tag_341\n      jumpi\n        /* \"#utility.yul\":770:788   */\n      tag_342\n      tag_249\n      jump\t// in\n    tag_342:\n        /* \"#utility.yul\":714:798   */\n    tag_341:\n        /* \"#utility.yul\":535:804   */\n      pop\n        /* \"#utility.yul\":484:804   */\n      swap2\n      swap1\n      pop\n      jump\t// out\n        /* \"#utility.yul\":810:951   */\n    tag_250:\n        /* \"#utility.yul\":859:863   */\n      0x00\n        /* \"#utility.yul\":882:885   */\n      dup2\n        /* \"#utility.yul\":874:885   */\n      swap1\n      pop\n        /* \"#utility.yul\":905:908   */\n      dup2\n        /* \"#utility.yul\":902:903   */\n      0x00\n        /* \"#utility.yul\":895:909   */\n      mstore\n        /* \"#utility.yul\":939:943   */\n      0x20\n        /* \"#utility.yul\":936:937   */\n      0x00\n        /* \"#utility.yul\":926:944   */\n      keccak256\n        /* \"#utility.yul\":918:944   */\n      swap1\n      pop\n        /* \"#utility.yul\":810:951   */\n      swap2\n      swap1\n      pop\n      jump\t// out\n        /* \"#utility.yul\":957:1050   */\n    tag_251:\n        /* \"#utility.yul\":994:1000   */\n      0x00\n        /* \"#utility.yul\":1041:1043   */\n      0x20\n        /* \"#utility.yul\":1036:1038   */\n      0x1f\n        /* \"#utility.yul\":1029:1034   */\n      dup4\n        /* \"#utility.yul\":1025:1039   */\n      add\n        /* \"#utility.yul\":1021:1044   */\n      div\n        /* \"#utility.yul\":1011:1044   */\n      swap1\n      pop\n        /* \"#utility.yul\":957:1050   */\n      swap2\n      swap1\n      pop\n      jump\t// out\n        /* \"#utility.yul\":1056:1163   */\n    tag_252:\n        /* \"#utility.yul\":1100:1108   */\n      0x00\n        /* \"#utility.yul\":1150:1155   */\n      dup3\n        /* \"#utility.yul\":1144:1148   */\n      dup3\n        /* \"#utility.yul\":1140:1156   */\n      shl\n        /* \"#utility.yul\":1119:1156   */\n      swap1\n      pop\n        /* \"#utility.yul\":1056:1163   */\n      swap3\n      swap2\n      pop\n      pop\n      jump\t// out\n        /* \"#utility.yul\":1169:1562   */\n    tag_253:\n        /* \"#utility.yul\":1238:1244   */\n      0x00\n        /* \"#utility.yul\":1288:1289   */\n      0x08\n        /* \"#utility.yul\":1276:1286   */\n      dup4\n        /* \"#utility.yul\":1272:1290   */\n      mul\n        /* \"#utility.yul\":1311:1408   */\n      tag_347\n        /* \"#utility.yul\":1341:1407   */\n      0xffffffffffffffffffffffffffffffffffffffffffffffffffffffffffffffff\n        /* \"#utility.yul\":1330:1339   */\n      dup3\n        /* \"#utility.yul\":1311:1408   */\n      tag_252\n      jump\t// in\n    tag_347:\n        /* \"#utility.yul\":1429:1468   */\n      tag_348\n        /* \"#utility.yul\":1459:1467   */\n      dup7\n        /* \"#utility.yul\":1448:1457   */\n      dup4\n        /* \"#utility.yul\":1429:1468   */\n      tag_252\n      jump\t// in\n    tag_348:\n        /* \"#utility.yul\":1417:1468   */\n      swap6\n      pop\n        /* \"#utility.yul\":1501:1505   */\n      dup1\n        /* \"#utility.yul\":1497:1506   */\n      not\n        /* \"#utility.yul\":1490:1495   */\n      dup5\n        /* \"#utility.yul\":1486:1507   */\n      and\n        /* \"#utility.yul\":1477:1507   */\n      swap4\n      pop\n        /* \"#utility.yul\":1550:1554   */\n      dup1\n        /* \"#utility.yul\":1540:1548   */\n      dup7\n        /* \"#utility.yul\":1536:1555   */\n      and\n        /* \"#utility.yul\":1529:1534   */\n      dup5\n        /* \"#utility.yul\":1526:1556   */\n      or\n        /* \"#utility.yul\":1516:1556   */\n      swap3\n      pop\n        /* \"#utility.yul\":1245:1562   */\n      pop\n      pop\n        /* \"#utility.yul\":1169:1562   */\n      swap4\n      swap3\n      pop\n      pop\n      pop\n      jump\t// out\n        /* \"#utility.yul\":1568:1645   */\n    tag_254:\n        /* \"#utility.yul\":1605:1612   */\n      0x00\n        /* \"#utility.yul\":1634:1639   */\n      dup2\n        /* \"#utility.yul\":1623:1639   */\n      swap1\n      pop\n        /* \"#utility.yul\":1568:1645   */\n      swap2\n      swap1\n      pop\n      jump\t// out\n        /* \"#utility.yul\":1651:1711   */\n    tag_255:\n        /* \"#utility.yul\":1679:1682   */\n      0x00\n        /* \"#utility.yul\":1700:1705   */\n      dup2\n        /* \"#utility.yul\":1693:1705   */\n      swap1\n      pop\n        /* \"#utility.yul\":1651:1711   */\n      swap2\n      swap1\n      pop\n      jump\t// out\n        /* \"#utility.yul\":1717:1859   */\n    tag_256:\n        /* \"#utility.yul\":1767:1776   */\n      0x00\n        /* \"#utility.yul\":1800:1853   */\n      tag_352\n        /* \"#utility.yul\":1818:1852   */\n      tag_353\n        /* \"#utility.yul\":1827:1851   */\n      tag_354\n        /* \"#utility.yul\":1845:1850   */\n      dup5\n        /* \"#utility.yul\":1827:1851   */\n      tag_254\n      jump\t// in\n    tag_354:\n        /* \"#utility.yul\":1818:1852   */\n      tag_255\n      jump\t// in\n    tag_353:\n        /* \"#utility.yul\":1800:1853   */\n      tag_254\n      jump\t// in\n    tag_352:\n        /* \"#utility.yul\":1787:1853   */\n      swap1\n      pop\n        /* \"#utility.yul\":1717:1859   */\n      swap2\n      swap1\n      pop\n      jump\t// out\n        /* \"#utility.yul\":1865:1940   */\n    tag_257:\n        /* \"#utility.yul\":1908:1911   */\n      0x00\n        /* \"#utility.yul\":1929:1934   */\n      dup2\n        /* \"#utility.yul\":1922:1934   */\n      swap1\n      pop\n        /* \"#utility.yul\":1865:1940   */\n      swap2\n      swap1\n      pop\n      jump\t// out\n        /* \"#utility.yul\":1946:2215   */\n    tag_258:\n        /* \"#utility.yul\":2056:2095   */\n      tag_357\n        /* \"#utility.yul\":2087:2094   */\n      dup4\n        /* \"#utility.yul\":2056:2095   */\n      tag_256\n      jump\t// in\n    tag_357:\n        /* \"#utility.yul\":2117:2208   */\n      tag_358\n        /* \"#utility.yul\":2166:2207   */\n      tag_359\n        /* \"#utility.yul\":2190:2206   */\n      dup3\n        /* \"#utility.yul\":2166:2207   */\n      tag_257\n      jump\t// in\n    tag_359:\n        /* \"#utility.yul\":2158:2164   */\n      dup5\n        /* \"#utility.yul\":2151:2155   */\n      dup5\n        /* \"#utility.yul\":2145:2156   */\n      sload\n        /* \"#utility.yul\":2117:2208   */\n      tag_253\n      jump\t// in\n    tag_358:\n        /* \"#utility.yul\":2111:2115   */\n      dup3\n        /* \"#utility.yul\":2104:2209   */\n      sstore\n        /* \"#utility.yul\":2022:2215   */\n      pop\n        /* \"#utility.yul\":1946:2215   */\n      pop\n      pop\n      pop\n      jump\t// out\n        /* \"#utility.yul\":2221:2294   */\n    tag_259:\n        /* \"#utility.yul\":2266:2269   */\n      0x00\n        /* \"#utility.yul\":2287:2288   */\n      0x00\n        /* \"#utility.yul\":2280:2288   */\n      swap1\n      pop\n        /* \"#utility.yul\":2221:2294   */\n      swap1\n      jump\t// out\n        /* \"#utility.yul\":2300:2489   */\n    tag_260:\n        /* \"#utility.yul\":2377:2409   */\n      tag_362\n      tag_259\n      jump\t// in\n    tag_362:\n        /* \"#utility.yul\":2418:2483   */\n      tag_363\n        /* \"#utility.yul\":2476:2482   */\n      dup2\n        /* \"#utility.yul\":2468:2474   */\n      dup5\n        /* \"#utility.yul\":2462:2466   */\n      dup5\n        /* \"#utility.yul\":2418:2483   */\n      tag_258\n      jump\t// in\n    tag_363:\n        /* \"#utility.yul\":2353:2489   */\n      pop\n        /* \"#utility.yul\":2300:2489   */\n      pop\n      pop\n      jump\t// out\n        /* \"#utility.yul\":2495:2681   */\n    tag_261:\n        /* \"#utility.yul\":2555:2675   */\n    tag_365:\n        /* \"#utility.yul\":2572:2575   */\n      dup2\n        /* \"#utility.yul\":2565:2570   */\n      dup2\n        /* \"#utility.yul\":2562:2576   */\n      lt\n        /* \"#utility.yul\":2555:2675   */\n      iszero\n      tag_367\n      jumpi\n        /* \"#utility.yul\":2626:2665   */\n      tag_368\n        /* \"#utility.yul\":2663:2664   */\n      0x00\n        /* \"#utility.yul\":2656:2661   */\n      dup3\n        /* \"#utility.yul\":2626:2665   */\n      tag_260\n      jump\t// in\n    tag_368:\n        /* \"#utility.yul\":2599:2600   */\n      0x01\n        /* \"#utility.yul\":2592:2597   */\n      dup2\n        /* \"#utility.yul\":2588:2601   */\n      add\n        /* \"#utility.yul\":2579:2601   */\n      swap1\n      pop\n        /* \"#utility.yul\":2555:2675   */\n      jump(tag_365)\n    tag_367:\n        /* \"#utility.yul\":2495:2681   */\n      pop\n      pop\n      jump\t// out\n        /* \"#utility.yul\":2687:3230   */\n    tag_262:\n        /* \"#utility.yul\":2788:2790   */\n      0x1f\n        /* \"#utility.yul\":2783:2786   */\n      dup3\n        /* \"#utility.yul\":2780:2791   */\n      gt\n        /* \"#utility.yul\":2777:3223   */\n      iszero\n      tag_370\n      jumpi\n        /* \"#utility.yul\":2822:2860   */\n      tag_371\n        /* \"#utility.yul\":2854:2859   */\n      dup2\n        /* \"#utility.yul\":2822:2860   */\n      tag_250\n      jump\t// in\n    tag_371:\n        /* \"#utility.yul\":2906:2935   */\n      tag_372\n        /* \"#utility.yul\":2924:2934   */\n      dup5\n        /* \"#utility.yul\":2906:2935   */\n      tag_251\n      jump\t// in\n    tag_372:\n        /* \"#utility.yul\":2896:2904   */\n      dup2\n        /* \"#utility.yul\":2892:2936   */\n      add\n        /* \"#utility.yul\":3089:3091   */\n      0x20\n        /* \"#utility.yul\":3077:3087   */\n      dup6\n        /* \"#utility.yul\":3074:3092   */\n      lt\n        /* \"#utility.yul\":3071:3120   */\n      iszero\n      tag_373\n      jumpi\n        /* \"#utility.yul\":3110:3118   */\n      dup2\n        /* \"#utility.yul\":3095:3118   */\n      swap1\n      pop\n        /* \"#utility.yul\":3071:3120   */\n    tag_373:\n        /* \"#utility.yul\":3133:3213   */\n      tag_374\n        /* \"#utility.yul\":3189:3211   */\n      tag_375\n        /* \"#utility.yul\":3207:3210   */\n      dup6\n        /* \"#utility.yul\":3189:3211   */\n      tag_251\n      jump\t// in\n    tag_375:\n        /* \"#utility.yul\":3179:3187   */\n      dup4\n        /* \"#utility.yul\":3175:3212   */\n      add\n        /* \"#utility.yul\":3162:3173   */\n      dup3\n        /* \"#utility.yul\":3133:3213   */\n      tag_261\n      jump\t// in\n    tag_374:\n        /* \"#utility.yul\":2792:3223   */\n      pop\n      pop\n        /* \"#utility.yul\":2777:3223   */\n    tag_370:\n        /* \"#utility.yul\":2687:3230   */\n      pop\n      pop\n      pop\n      jump\t// out\n        /* \"#utility.yul\":3236:3353   */\n    tag_263:\n        /* \"#utility.yul\":3290:3298   */\n      0x00\n        /* \"#utility.yul\":3340:3345   */\n      dup3\n        /* \"#utility.yul\":3334:3338   */\n      dup3\n        /* \"#utility.yul\":3330:3346   */\n      shr\n        /* \"#utility.yul\":3309:3346   */\n      swap1\n      pop\n        /* \"#utility.yul\":3236:3353   */\n      swap3\n      swap2\n      pop\n      pop\n      jump\t// out\n        /* \"#utility.yul\":3359:3528   */\n    tag_264:\n        /* \"#utility.yul\":3403:3409   */\n      0x00\n        /* \"#utility.yul\":3436:3487   */\n      tag_378\n        /* \"#utility.yul\":3484:3485   */\n      0x00\n        /* \"#utility.yul\":3480:3486   */\n      not\n        /* \"#utility.yul\":3472:3477   */\n      dup5\n        /* \"#utility.yul\":3469:3470   */\n      0x08\n        /* \"#utility.yul\":3465:3478   */\n      mul\n        /* \"#utility.yul\":3436:3487   */\n      tag_263\n      jump\t// in\n    tag_378:\n        /* \"#utility.yul\":3432:3488   */\n      not\n        /* \"#utility.yul\":3517:3521   */\n      dup1\n        /* \"#utility.yul\":3511:3515   */\n      dup4\n        /* \"#utility.yul\":3507:3522   */\n      and\n        /* \"#utility.yul\":3497:3522   */\n      swap2\n      pop\n        /* \"#utility.yul\":3410:3528   */\n      pop\n        /* \"#utility.yul\":3359:3528   */\n      swap3\n      swap2\n      pop\n      pop\n      jump\t// out\n        /* \"#utility.yul\":3533:3828   */\n    tag_265:\n        /* \"#utility.yul\":3609:3613   */\n      0x00\n        /* \"#utility.yul\":3755:3784   */\n      tag_380\n        /* \"#utility.yul\":3780:3783   */\n      dup4\n        /* \"#utility.yul\":3774:3778   */\n      dup4\n        /* \"#utility.yul\":3755:3784   */\n      tag_264\n      jump\t// in\n    tag_380:\n        /* \"#utility.yul\":3747:3784   */\n      swap2\n      pop\n        /* \"#utility.yul\":3817:3820   */\n      dup3\n        /* \"#utility.yul\":3814:3815   */\n      0x02\n        /* \"#utility.yul\":3810:3821   */\n      mul\n        /* \"#utility.yul\":3804:3808   */\n      dup3\n        /* \"#utility.yul\":3801:3822   */\n      or\n        /* \"#utility.yul\":3793:3822   */\n      swap1\n      pop\n        /* \"#utility.yul\":3533:3828   */\n      swap3\n      swap2\n      pop\n      pop\n      jump\t// out\n        /* \"#utility.yul\":3833:5228   */\n    tag_24:\n        /* \"#utility.yul\":3950:3987   */\n      tag_382\n        /* \"#utility.yul\":3983:3986   */\n      dup3\n        /* \"#utility.yul\":3950:3987   */\n      tag_248\n      jump\t// in\n    tag_382:\n        /* \"#utility.yul\":4052:4070   */\n      0xffffffffffffffff\n        /* \"#utility.yul\":4044:4050   */\n      dup2\n        /* \"#utility.yul\":4041:4071   */\n      gt\n        /* \"#utility.yul\":4038:4094   */\n      iszero\n      tag_383\n      jumpi\n        /* \"#utility.yul\":4074:4092   */\n      tag_384\n      tag_125\n      jump\t// in\n    tag_384:\n        /* \"#utility.yul\":4038:4094   */\n    tag_383:\n        /* \"#utility.yul\":4118:4156   */\n      tag_385\n        /* \"#utility.yul\":4150:4154   */\n      dup3\n        /* \"#utility.yul\":4144:4155   */\n      sload\n        /* \"#utility.yul\":4118:4156   */\n      tag_141\n      jump\t// in\n    tag_385:\n        /* \"#utility.yul\":4203:4270   */\n      tag_386\n        /* \"#utility.yul\":4263:4269   */\n      dup3\n        /* \"#utility.yul\":4255:4261   */\n      dup3\n        /* \"#utility.yul\":4249:4253   */\n      dup6\n        /* \"#utility.yul\":4203:4270   */\n      tag_262\n      jump\t// in\n    tag_386:\n        /* \"#utility.yul\":4297:4298   */\n      0x00\n        /* \"#utility.yul\":4321:4325   */\n      0x20\n        /* \"#utility.yul\":4308:4325   */\n      swap1\n      pop\n        /* \"#utility.yul\":4353:4355   */\n      0x1f\n        /* \"#utility.yul\":4345:4351   */\n      dup4\n        /* \"#utility.yul\":4342:4356   */\n      gt\n        /* \"#utility.yul\":4370:4371   */\n      0x01\n        /* \"#utility.yul\":4365:4983   */\n      dup2\n      eq\n      tag_388\n      jumpi\n        /* \"#utility.yul\":5027:5028   */\n      0x00\n        /* \"#utility.yul\":5044:5050   */\n      dup5\n        /* \"#utility.yul\":5041:5118   */\n      iszero\n      tag_389\n      jumpi\n        /* \"#utility.yul\":5093:5102   */\n      dup3\n        /* \"#utility.yul\":5088:5091   */\n      dup8\n        /* \"#utility.yul\":5084:5103   */\n      add\n        /* \"#utility.yul\":5078:5104   */\n      mload\n        /* \"#utility.yul\":5069:5104   */\n      swap1\n      pop\n        /* \"#utility.yul\":5041:5118   */\n    tag_389:\n        /* \"#utility.yul\":5144:5211   */\n      tag_390\n        /* \"#utility.yul\":5204:5210   */\n      dup6\n        /* \"#utility.yul\":5197:5202   */\n      dup3\n        /* \"#utility.yul\":5144:5211   */\n      tag_265\n      jump\t// in\n    tag_390:\n        /* \"#utility.yul\":5138:5142   */\n      dup7\n        /* \"#utility.yul\":5131:5212   */\n      sstore\n        /* \"#utility.yul\":5000:5222   */\n      pop\n        /* \"#utility.yul\":4335:5222   */\n      jump(tag_387)\n        /* \"#utility.yul\":4365:4983   */\n    tag_388:\n        /* \"#utility.yul\":4417:4421   */\n      0x1f\n        /* \"#utility.yul\":4413:4422   */\n      not\n        /* \"#utility.yul\":4405:4411   */\n      dup5\n        /* \"#utility.yul\":4401:4423   */\n      and\n        /* \"#utility.yul\":4451:4488   */\n      tag_391\n        /* \"#utility.yul\":4483:4487   */\n      dup7\n        /* \"#utility.yul\":4451:4488   */\n      tag_250\n      jump\t// in\n    tag_391:\n        /* \"#utility.yul\":4510:4511   */\n      0x00\n        /* \"#utility.yul\":4524:4732   */\n    tag_392:\n        /* \"#utility.yul\":4538:4545   */\n      dup3\n        /* \"#utility.yul\":4535:4536   */\n      dup2\n        /* \"#utility.yul\":4532:4546   */\n      lt\n        /* \"#utility.yul\":4524:4732   */\n      iszero\n      tag_394\n      jumpi\n        /* \"#utility.yul\":4617:4626   */\n      dup5\n        /* \"#utility.yul\":4612:4615   */\n      dup10\n        /* \"#utility.yul\":4608:4627   */\n      add\n        /* \"#utility.yul\":4602:4628   */\n      mload\n        /* \"#utility.yul\":4594:4600   */\n      dup3\n        /* \"#utility.yul\":4587:4629   */\n      sstore\n        /* \"#utility.yul\":4668:4669   */\n      0x01\n        /* \"#utility.yul\":4660:4666   */\n      dup3\n        /* \"#utility.yul\":4656:4670   */\n      add\n        /* \"#utility.yul\":4646:4670   */\n      swap2\n      pop\n        /* \"#utility.yul\":4715:4717   */\n      0x20\n        /* \"#utility.yul\":4704:4713   */\n      dup6\n        /* \"#utility.yul\":4700:4718   */\n      add\n        /* \"#utility.yul\":4687:4718   */\n      swap5\n      pop\n        /* \"#utility.yul\":4561:4565   */\n      0x20\n        /* \"#utility.yul\":4558:4559   */\n      dup2\n        /* \"#utility.yul\":4554:4566   */\n      add\n        /* \"#utility.yul\":4549:4566   */\n      swap1\n      pop\n        /* \"#utility.yul\":4524:4732   */\n      jump(tag_392)\n    tag_394:\n        /* \"#utility.yul\":4760:4766   */\n      dup7\n        /* \"#utility.yul\":4751:4758   */\n      dup4\n        /* \"#utility.yul\":4748:4767   */\n      lt\n        /* \"#utility.yul\":4745:4924   */\n      iszero\n      tag_395\n      jumpi\n        /* \"#utility.yul\":4818:4827   */\n      dup5\n        /* \"#utility.yul\":4813:4816   */\n      dup10\n        /* \"#utility.yul\":4809:4828   */\n      add\n        /* \"#utility.yul\":4803:4829   */\n      mload\n        /* \"#utility.yul\":4861:4909   */\n      tag_396\n        /* \"#utility.yul\":4903:4907   */\n      0x1f\n        /* \"#utility.yul\":4895:4901   */\n      dup10\n        /* \"#utility.yul\":4891:4908   */\n      and\n        /* \"#utility.yul\":4880:4889   */\n      dup3\n        /* \"#utility.yul\":4861:4909   */\n      tag_264\n      jump\t// in\n    tag_396:\n        /* \"#utility.yul\":4853:4859   */\n      dup4\n        /* \"#utility.yul\":4846:4910   */\n      sstore\n        /* \"#utility.yul\":4768:4924   */\n      pop\n        /* \"#utility.yul\":4745:4924   */\n    tag_395:\n        /* \"#utility.yul\":4970:4971   */\n      0x01\n        /* \"#utility.yul\":4966:4967   */\n      0x02\n        /* \"#utility.yul\":4958:4964   */\n      dup9\n        /* \"#utility.yul\":4954:4968   */\n      mul\n        /* \"#utility.yul\":4950:4972   */\n      add\n        /* \"#utility.yul\":4944:4948   */\n      dup9\n        /* \"#utility.yul\":4937:4973   */\n      sstore\n        /* \"#utility.yul\":4372:4983   */\n      pop\n      pop\n      pop\n        /* \"#utility.yul\":4335:5222   */\n    tag_387:\n      pop\n        /* \"#utility.yul\":3925:5228   */\n      pop\n      pop\n      pop\n        /* \"#utility.yul\":3833:5228   */\n      pop\n      pop\n      jump\t// out\n        /* \"#utility.yul\":5234:5414   */\n    tag_266:\n        /* \"#utility.yul\":5282:5359   */\n      0x4e487b7100000000000000000000000000000000000000000000000000000000\n        /* \"#utility.yul\":5279:5280   */\n      0x00\n        /* \"#utility.yul\":5272:5360   */\n      mstore\n        /* \"#utility.yul\":5379:5383   */\n      0x11\n        /* \"#utility.yul\":5376:5377   */\n      0x04\n        /* \"#utility.yul\":5369:5384   */\n      mstore\n        /* \"#utility.yul\":5403:5407   */\n      0x24\n        /* \"#utility.yul\":5400:5401   */\n      0x00\n        /* \"#utility.yul\":5393:5408   */\n      revert\n        /* \"#utility.yul\":5420:5611   */\n    tag_27:\n        /* \"#utility.yul\":5460:5463   */\n      0x00\n        /* \"#utility.yul\":5479:5499   */\n      tag_399\n        /* \"#utility.yul\":5497:5498   */\n      dup3\n        /* \"#utility.yul\":5479:5499   */\n      tag_254\n      jump\t// in\n    tag_399:\n        /* \"#utility.yul\":5474:5499   */\n      swap2\n      pop\n        /* \"#utility.yul\":5513:5533   */\n      tag_400\n        /* \"#utility.yul\":5531:5532   */\n      dup4\n        /* \"#utility.yul\":5513:5533   */\n      tag_254\n      jump\t// in\n    tag_400:\n        /* \"#utility.yul\":5508:5533   */\n      swap3\n      pop\n        /* \"#utility.yul\":5556:5557   */\n      dup3\n        /* \"#utility.yul\":5553:5554   */\n      dup3\n        /* \"#utility.yul\":5549:5558   */\n      add\n        /* \"#utility.yul\":5542:5558   */\n      swap1\n      pop\n        /* \"#utility.yul\":5577:5580   */\n      dup1\n        /* \"#utility.yul\":5574:5575   */\n      dup3\n        /* \"#utility.yul\":5571:5581   */\n      gt\n        /* \"#utility.yul\":5568:5604   */\n      iszero\n      tag_401\n      jumpi\n        /* \"#utility.yul\":5584:5602   */\n      tag_402\n      tag_266\n      jump\t// in\n    tag_402:\n        /* \"#utility.yul\":5568:5604   */\n    tag_401:\n        /* \"#utility.yul\":5420:5611   */\n      swap3\n      swap2\n      pop\n      pop\n      jump\t// out\n        /* \"#utility.yul\":5617:5735   */\n    tag_267:\n        /* \"#utility.yul\":5704:5728   */\n      tag_404\n        /* \"#utility.yul\":5722:5727   */\n      dup2\n        /* \"#utility.yul\":5704:5728   */\n      tag_254\n      jump\t// in\n    tag_404:\n        /* \"#utility.yul\":5699:5702   */\n      dup3\n        /* \"#utility.yul\":5692:5729   */\n      mstore\n        /* \"#utility.yul\":5617:5735   */\n      pop\n      pop\n      jump\t// out\n        /* \"#utility.yul\":5741:5910   */\n    tag_268:\n        /* \"#utility.yul\":5825:5836   */\n      0x00\n        /* \"#utility.yul\":5859:5865   */\n      dup3\n        /* \"#utility.yul\":5854:5857   */\n      dup3\n        /* \"#utility.yul\":5847:5866   */\n      mstore\n        /* \"#utility.yul\":5899:5903   */\n      0x20\n        /* \"#utility.yul\":5894:5897   */\n      dup3\n        /* \"#utility.yul\":5890:5904   */\n      add\n        /* \"#utility.yul\":5875:5904   */\n      swap1\n      pop\n        /* \"#utility.yul\":5741:5910   */\n      swap3\n      swap2\n      pop\n      pop\n      jump\t// out\n        /* \"#utility.yul\":5916:6082   */\n    tag_269:\n        /* \"#utility.yul\":6056:6074   */\n      0x446f6e617465757220616e6f6e796d6500000000000000000000000000000000\n        /* \"#utility.yul\":6052:6053   */\n      0x00\n        /* \"#utility.yul\":6044:6050   */\n      dup3\n        /* \"#utility.yul\":6040:6054   */\n      add\n        /* \"#utility.yul\":6033:6075   */\n      mstore\n        /* \"#utility.yul\":5916:6082   */\n      pop\n      jump\t// out\n        /* \"#utility.yul\":6088:6454   */\n    tag_270:\n        /* \"#utility.yul\":6230:6233   */\n      0x00\n        /* \"#utility.yul\":6251:6318   */\n      tag_408\n        /* \"#utility.yul\":6315:6317   */\n      0x10\n        /* \"#utility.yul\":6310:6313   */\n      dup4\n        /* \"#utility.yul\":6251:6318   */\n      tag_268\n      jump\t// in\n    tag_408:\n        /* \"#utility.yul\":6244:6318   */\n      swap2\n      pop\n        /* \"#utility.yul\":6327:6420   */\n      tag_409\n        /* \"#utility.yul\":6416:6419   */\n      dup3\n        /* \"#utility.yul\":6327:6420   */\n      tag_269\n      jump\t// in\n    tag_409:\n        /* \"#utility.yul\":6445:6447   */\n      0x20\n        /* \"#utility.yul\":6440:6443   */\n      dup3\n        /* \"#utility.yul\":6436:6448   */\n      add\n        /* \"#utility.yul\":6429:6448   */\n      swap1\n      pop\n        /* \"#utility.yul\":6088:6454   */\n      swap2\n      swap1\n      pop\n      jump\t// out\n        /* \"#utility.yul\":6460:6620   */\n    tag_271:\n        /* \"#utility.yul\":6600:6612   */\n      0x446f6e2064697265637400000000000000000000000000000000000000000000\n        /* \"#utility.yul\":6596:6597   */\n      0x00\n        /* \"#utility.yul\":6588:6594   */\n      dup3\n        /* \"#utility.yul\":6584:6598   */\n      add\n        /* \"#utility.yul\":6577:6613   */\n      mstore\n        /* \"#utility.yul\":6460:6620   */\n      pop\n      jump\t// out\n        /* \"#utility.yul\":6626:6992   */\n    tag_272:\n        /* \"#utility.yul\":6768:6771   */\n      0x00\n        /* \"#utility.yul\":6789:6856   */\n      tag_412\n        /* \"#utility.yul\":6853:6855   */\n      0x0a\n        /* \"#utility.yul\":6848:6851   */\n      dup4\n        /* \"#utility.yul\":6789:6856   */\n      tag_268\n      jump\t// in\n    tag_412:\n        /* \"#utility.yul\":6782:6856   */\n      swap2\n      pop\n        /* \"#utility.yul\":6865:6958   */\n      tag_413\n        /* \"#utility.yul\":6954:6957   */\n      dup3\n        /* \"#utility.yul\":6865:6958   */\n      tag_271\n      jump\t// in\n    tag_413:\n        /* \"#utility.yul\":6983:6985   */\n      0x20\n        /* \"#utility.yul\":6978:6981   */\n      dup3\n        /* \"#utility.yul\":6974:6986   */\n      add\n        /* \"#utility.yul\":6967:6986   */\n      swap1\n      pop\n        /* \"#utility.yul\":6626:6992   */\n      swap2\n      swap1\n      pop\n      jump\t// out\n        /* \"#utility.yul\":6998:7945   */\n    tag_29:\n        /* \"#utility.yul\":7321:7325   */\n      0x00\n        /* \"#utility.yul\":7359:7362   */\n      0x80\n        /* \"#utility.yul\":7348:7357   */\n      dup3\n        /* \"#utility.yul\":7344:7363   */\n      add\n        /* \"#utility.yul\":7336:7363   */\n      swap1\n      pop\n        /* \"#utility.yul\":7373:7444   */\n      tag_415\n        /* \"#utility.yul\":7441:7442   */\n      0x00\n        /* \"#utility.yul\":7430:7439   */\n      dup4\n        /* \"#utility.yul\":7426:7443   */\n      add\n        /* \"#utility.yul\":7417:7423   */\n      dup6\n        /* \"#utility.yul\":7373:7444   */\n      tag_267\n      jump\t// in\n    tag_415:\n        /* \"#utility.yul\":7491:7500   */\n      dup2\n        /* \"#utility.yul\":7485:7489   */\n      dup2\n        /* \"#utility.yul\":7481:7501   */\n      sub\n        /* \"#utility.yul\":7476:7478   */\n      0x20\n        /* \"#utility.yul\":7465:7474   */\n      dup4\n        /* \"#utility.yul\":7461:7479   */\n      add\n        /* \"#utility.yul\":7454:7502   */\n      mstore\n        /* \"#utility.yul\":7519:7650   */\n      tag_416\n        /* \"#utility.yul\":7645:7649   */\n      dup2\n        /* \"#utility.yul\":7519:7650   */\n      tag_270\n      jump\t// in\n    tag_416:\n        /* \"#utility.yul\":7511:7650   */\n      swap1\n      pop\n        /* \"#utility.yul\":7697:7706   */\n      dup2\n        /* \"#utility.yul\":7691:7695   */\n      dup2\n        /* \"#utility.yul\":7687:7707   */\n      sub\n        /* \"#utility.yul\":7682:7684   */\n      0x40\n        /* \"#utility.yul\":7671:7680   */\n      dup4\n        /* \"#utility.yul\":7667:7685   */\n      add\n        /* \"#utility.yul\":7660:7708   */\n      mstore\n        /* \"#utility.yul\":7725:7856   */\n      tag_417\n        /* \"#utility.yul\":7851:7855   */\n      dup2\n        /* \"#utility.yul\":7725:7856   */\n      tag_272\n      jump\t// in\n    tag_417:\n        /* \"#utility.yul\":7717:7856   */\n      swap1\n      pop\n        /* \"#utility.yul\":7866:7938   */\n      tag_418\n        /* \"#utility.yul\":7934:7936   */\n      0x60\n        /* \"#utility.yul\":7923:7932   */\n      dup4\n        /* \"#utility.yul\":7919:7937   */\n      add\n        /* \"#utility.yul\":7910:7916   */\n      dup5\n        /* \"#utility.yul\":7866:7938   */\n      tag_267\n      jump\t// in\n    tag_418:\n        /* \"#utility.yul\":6998:7945   */\n      swap4\n      swap3\n      pop\n      pop\n      pop\n      jump\t// out\n        /* \"#utility.yul\":7951:8122   */\n    tag_273:\n        /* \"#utility.yul\":8091:8114   */\n      0x466f6e6374696f6e206e6f6e207265636f6e6e75650000000000000000000000\n        /* \"#utility.yul\":8087:8088   */\n      0x00\n        /* \"#utility.yul\":8079:8085   */\n      dup3\n        /* \"#utility.yul\":8075:8089   */\n      add\n        /* \"#utility.yul\":8068:8115   */\n      mstore\n        /* \"#utility.yul\":7951:8122   */\n      pop\n      jump\t// out\n        /* \"#utility.yul\":8128:8494   */\n    tag_274:\n        /* \"#utility.yul\":8270:8273   */\n      0x00\n        /* \"#utility.yul\":8291:8358   */\n      tag_421\n        /* \"#utility.yul\":8355:8357   */\n      0x15\n        /* \"#utility.yul\":8350:8353   */\n      dup4\n        /* \"#utility.yul\":8291:8358   */\n      tag_268\n      jump\t// in\n    tag_421:\n        /* \"#utility.yul\":8284:8358   */\n      swap2\n      pop\n        /* \"#utility.yul\":8367:8460   */\n      tag_422\n        /* \"#utility.yul\":8456:8459   */\n      dup3\n        /* \"#utility.yul\":8367:8460   */\n      tag_273\n      jump\t// in\n    tag_422:\n        /* \"#utility.yul\":8485:8487   */\n      0x20\n        /* \"#utility.yul\":8480:8483   */\n      dup3\n        /* \"#utility.yul\":8476:8488   */\n      add\n        /* \"#utility.yul\":8469:8488   */\n      swap1\n      pop\n        /* \"#utility.yul\":8128:8494   */\n      swap2\n      swap1\n      pop\n      jump\t// out\n        /* \"#utility.yul\":8500:8919   */\n    tag_33:\n        /* \"#utility.yul\":8666:8670   */\n      0x00\n        /* \"#utility.yul\":8704:8706   */\n      0x20\n        /* \"#utility.yul\":8693:8702   */\n      dup3\n        /* \"#utility.yul\":8689:8707   */\n      add\n        /* \"#utility.yul\":8681:8707   */\n      swap1\n      pop\n        /* \"#utility.yul\":8753:8762   */\n      dup2\n        /* \"#utility.yul\":8747:8751   */\n      dup2\n        /* \"#utility.yul\":8743:8763   */\n      sub\n        /* \"#utility.yul\":8739:8740   */\n      0x00\n        /* \"#utility.yul\":8728:8737   */\n      dup4\n        /* \"#utility.yul\":8724:8741   */\n      add\n        /* \"#utility.yul\":8717:8764   */\n      mstore\n        /* \"#utility.yul\":8781:8912   */\n      tag_424\n        /* \"#utility.yul\":8907:8911   */\n      dup2\n        /* \"#utility.yul\":8781:8912   */\n      tag_274\n      jump\t// in\n    tag_424:\n        /* \"#utility.yul\":8773:8912   */\n      swap1\n      pop\n        /* \"#utility.yul\":8500:8919   */\n      swap2\n      swap1\n      pop\n      jump\t// out\n        /* \"#utility.yul\":8925:9000   */\n    tag_275:\n        /* \"#utility.yul\":8958:8964   */\n      0x00\n        /* \"#utility.yul\":8991:8993   */\n      0x40\n        /* \"#utility.yul\":8985:8994   */\n      mload\n        /* \"#utility.yul\":8975:8994   */\n      swap1\n      pop\n        /* \"#utility.yul\":8925:9000   */\n      swap1\n      jump\t// out\n        /* \"#utility.yul\":9006:9123   */\n    tag_276:\n        /* \"#utility.yul\":9115:9116   */\n      0x00\n        /* \"#utility.yul\":9112:9113   */\n      0x00\n        /* \"#utility.yul\":9105:9117   */\n      revert\n        /* \"#utility.yul\":9129:9246   */\n    tag_277:\n        /* \"#utility.yul\":9238:9239   */\n      0x00\n        /* \"#utility.yul\":9235:9236   */\n      0x00\n        /* \"#utility.yul\":9228:9240   */\n      revert\n        /* \"#utility.yul\":9252:9374   */\n    tag_278:\n        /* \"#utility.yul\":9325:9349   */\n      tag_429\n        /* \"#utility.yul\":9343:9348   */\n      dup2\n        /* \"#utility.yul\":9325:9349   */\n      tag_254\n      jump\t// in\n    tag_429:\n        /* \"#utility.yul\":9318:9323   */\n      dup2\n        /* \"#utility.yul\":9315:9350   */\n      eq\n        /* \"#utility.yul\":9305:9368   */\n      tag_430\n      jumpi\n        /* \"#utility.yul\":9364:9365   */\n      0x00\n        /* \"#utility.yul\":9361:9362   */\n      0x00\n        /* \"#utility.yul\":9354:9366   */\n      revert\n        /* \"#utility.yul\":9305:9368   */\n    tag_430:\n        /* \"#utility.yul\":9252:9374   */\n      pop\n      jump\t// out\n        /* \"#utility.yul\":9380:9519   */\n    tag_279:\n        /* \"#utility.yul\":9426:9431   */\n      0x00\n        /* \"#utility.yul\":9464:9470   */\n      dup2\n        /* \"#utility.yul\":9451:9471   */\n      calldataload\n        /* \"#utility.yul\":9442:9471   */\n      swap1\n      pop\n        /* \"#utility.yul\":9480:9513   */\n      tag_432\n        /* \"#utility.yul\":9507:9512   */\n      dup2\n        /* \"#utility.yul\":9480:9513   */\n      tag_278\n      jump\t// in\n    tag_432:\n        /* \"#utility.yul\":9380:9519   */\n      swap3\n      swap2\n      pop\n      pop\n      jump\t// out\n        /* \"#utility.yul\":9525:9854   */\n    tag_37:\n        /* \"#utility.yul\":9584:9590   */\n      0x00\n        /* \"#utility.yul\":9633:9635   */\n      0x20\n        /* \"#utility.yul\":9621:9630   */\n      dup3\n        /* \"#utility.yul\":9612:9619   */\n      dup5\n        /* \"#utility.yul\":9608:9631   */\n      sub\n        /* \"#utility.yul\":9604:9636   */\n      slt\n        /* \"#utility.yul\":9601:9720   */\n      iszero\n      tag_434\n      jumpi\n        /* \"#utility.yul\":9639:9718   */\n      tag_435\n      tag_276\n      jump\t// in\n    tag_435:\n        /* \"#utility.yul\":9601:9720   */\n    tag_434:\n        /* \"#utility.yul\":9759:9760   */\n      0x00\n        /* \"#utility.yul\":9784:9837   */\n      tag_436\n        /* \"#utility.yul\":9829:9836   */\n      dup5\n        /* \"#utility.yul\":9820:9826   */\n      dup3\n        /* \"#utility.yul\":9809:9818   */\n      dup6\n        /* \"#utility.yul\":9805:9827   */\n      add\n        /* \"#utility.yul\":9784:9837   */\n      tag_279\n      jump\t// in\n    tag_436:\n        /* \"#utility.yul\":9774:9837   */\n      swap2\n      pop\n        /* \"#utility.yul\":9730:9847   */\n      pop\n        /* \"#utility.yul\":9525:9854   */\n      swap3\n      swap2\n      pop\n      pop\n      jump\t// out\n        /* \"#utility.yul\":9860:9996   */\n    tag_280:\n        /* \"#utility.yul\":9949:9955   */\n      0x00\n        /* \"#utility.yul\":9983:9988   */\n      dup2\n        /* \"#utility.yul\":9977:9989   */\n      mload\n        /* \"#utility.yul\":9967:9989   */\n      swap1\n      pop\n        /* \"#utility.yul\":9860:9996   */\n      swap2\n      swap1\n      pop\n      jump\t// out\n        /* \"#utility.yul\":10002:10208   */\n    tag_281:\n        /* \"#utility.yul\":10123:10134   */\n      0x00\n        /* \"#utility.yul\":10157:10163   */\n      dup3\n        /* \"#utility.yul\":10152:10155   */\n      dup3\n        /* \"#utility.yul\":10145:10164   */\n      mstore\n        /* \"#utility.yul\":10197:10201   */\n      0x20\n        /* \"#utility.yul\":10192:10195   */\n      dup3\n        /* \"#utility.yul\":10188:10202   */\n      add\n        /* \"#utility.yul\":10173:10202   */\n      swap1\n      pop\n        /* \"#utility.yul\":10002:10208   */\n      swap3\n      swap2\n      pop\n      pop\n      jump\t// out\n        /* \"#utility.yul\":10214:10368   */\n    tag_282:\n        /* \"#utility.yul\":10303:10307   */\n      0x00\n        /* \"#utility.yul\":10326:10329   */\n      dup2\n        /* \"#utility.yul\":10318:10329   */\n      swap1\n      pop\n        /* \"#utility.yul\":10356:10360   */\n      0x20\n        /* \"#utility.yul\":10351:10354   */\n      dup3\n        /* \"#utility.yul\":10347:10361   */\n      add\n        /* \"#utility.yul\":10339:10361   */\n      swap1\n      pop\n        /* \"#utility.yul\":10214:10368   */\n      swap2\n      swap1\n      pop\n      jump\t// out\n        /* \"#utility.yul\":10374:10500   */\n    tag_283:\n        /* \"#utility.yul\":10411:10418   */\n      0x00\n        /* \"#utility.yul\":10451:10493   */\n      0xffffffffffffffffffffffffffffffffffffffff\n        /* \"#utility.yul\":10444:10449   */\n      dup3\n        /* \"#utility.yul\":10440:10494   */\n      and\n        /* \"#utility.yul\":10429:10494   */\n      swap1\n      pop\n        /* \"#utility.yul\":10374:10500   */\n      swap2\n      swap1\n      pop\n      jump\t// out\n        /* \"#utility.yul\":10506:10602   */\n    tag_284:\n        /* \"#utility.yul\":10543:10550   */\n      0x00\n        /* \"#utility.yul\":10572:10596   */\n      tag_442\n        /* \"#utility.yul\":10590:10595   */\n      dup3\n        /* \"#utility.yul\":10572:10596   */\n      tag_283\n      jump\t// in\n    tag_442:\n        /* \"#utility.yul\":10561:10596   */\n      swap1\n      pop\n        /* \"#utility.yul\":10506:10602   */\n      swap2\n      swap1\n      pop\n      jump\t// out\n        /* \"#utility.yul\":10608:10716   */\n    tag_285:\n        /* \"#utility.yul\":10685:10709   */\n      tag_444\n        /* \"#utility.yul\":10703:10708   */\n      dup2\n        /* \"#utility.yul\":10685:10709   */\n      tag_284\n      jump\t// in\n    tag_444:\n        /* \"#utility.yul\":10680:10683   */\n      dup3\n        /* \"#utility.yul\":10673:10710   */\n      mstore\n        /* \"#utility.yul\":10608:10716   */\n      pop\n      pop\n      jump\t// out\n        /* \"#utility.yul\":10722:10830   */\n    tag_286:\n        /* \"#utility.yul\":10799:10823   */\n      tag_446\n        /* \"#utility.yul\":10817:10822   */\n      dup2\n        /* \"#utility.yul\":10799:10823   */\n      tag_254\n      jump\t// in\n    tag_446:\n        /* \"#utility.yul\":10794:10797   */\n      dup3\n        /* \"#utility.yul\":10787:10824   */\n      mstore\n        /* \"#utility.yul\":10722:10830   */\n      pop\n      pop\n      jump\t// out\n        /* \"#utility.yul\":10836:10995   */\n    tag_287:\n        /* \"#utility.yul\":10910:10921   */\n      0x00\n        /* \"#utility.yul\":10944:10950   */\n      dup3\n        /* \"#utility.yul\":10939:10942   */\n      dup3\n        /* \"#utility.yul\":10932:10951   */\n      mstore\n        /* \"#utility.yul\":10984:10988   */\n      0x20\n        /* \"#utility.yul\":10979:10982   */\n      dup3\n        /* \"#utility.yul\":10975:10989   */\n      add\n        /* \"#utility.yul\":10960:10989   */\n      swap1\n      pop\n        /* \"#utility.yul\":10836:10995   */\n      swap3\n      swap2\n      pop\n      pop\n      jump\t// out\n        /* \"#utility.yul\":11001:11140   */\n    tag_288:\n        /* \"#utility.yul\":11090:11096   */\n      dup3\n        /* \"#utility.yul\":11085:11088   */\n      dup2\n        /* \"#utility.yul\":11080:11083   */\n      dup4\n        /* \"#utility.yul\":11074:11097   */\n      mcopy\n        /* \"#utility.yul\":11131:11132   */\n      0x00\n        /* \"#utility.yul\":11122:11128   */\n      dup4\n        /* \"#utility.yul\":11117:11120   */\n      dup4\n        /* \"#utility.yul\":11113:11129   */\n      add\n        /* \"#utility.yul\":11106:11133   */\n      mstore\n        /* \"#utility.yul\":11001:11140   */\n      pop\n      pop\n      pop\n      jump\t// out\n        /* \"#utility.yul\":11146:11248   */\n    tag_289:\n        /* \"#utility.yul\":11187:11193   */\n      0x00\n        /* \"#utility.yul\":11238:11240   */\n      0x1f\n        /* \"#utility.yul\":11234:11241   */\n      not\n        /* \"#utility.yul\":11229:11231   */\n      0x1f\n        /* \"#utility.yul\":11222:11227   */\n      dup4\n        /* \"#utility.yul\":11218:11232   */\n      add\n        /* \"#utility.yul\":11214:11242   */\n      and\n        /* \"#utility.yul\":11204:11242   */\n      swap1\n      pop\n        /* \"#utility.yul\":11146:11248   */\n      swap2\n      swap1\n      pop\n      jump\t// out\n        /* \"#utility.yul\":11254:11611   */\n    tag_290:\n        /* \"#utility.yul\":11332:11335   */\n      0x00\n        /* \"#utility.yul\":11360:11399   */\n      tag_451\n        /* \"#utility.yul\":11393:11398   */\n      dup3\n        /* \"#utility.yul\":11360:11399   */\n      tag_248\n      jump\t// in\n    tag_451:\n        /* \"#utility.yul\":11415:11476   */\n      tag_452\n        /* \"#utility.yul\":11469:11475   */\n      dup2\n        /* \"#utility.yul\":11464:11467   */\n      dup6\n        /* \"#utility.yul\":11415:11476   */\n      tag_287\n      jump\t// in\n    tag_452:\n        /* \"#utility.yul\":11408:11476   */\n      swap4\n      pop\n        /* \"#utility.yul\":11485:11550   */\n      tag_453\n        /* \"#utility.yul\":11543:11549   */\n      dup2\n        /* \"#utility.yul\":11538:11541   */\n      dup6\n        /* \"#utility.yul\":11531:11535   */\n      0x20\n        /* \"#utility.yul\":11524:11529   */\n      dup7\n        /* \"#utility.yul\":11520:11536   */\n      add\n        /* \"#utility.yul\":11485:11550   */\n      tag_288\n      jump\t// in\n    tag_453:\n        /* \"#utility.yul\":11575:11604   */\n      tag_454\n        /* \"#utility.yul\":11597:11603   */\n      dup2\n        /* \"#utility.yul\":11575:11604   */\n      tag_289\n      jump\t// in\n    tag_454:\n        /* \"#utility.yul\":11570:11573   */\n      dup5\n        /* \"#utility.yul\":11566:11605   */\n      add\n        /* \"#utility.yul\":11559:11605   */\n      swap2\n      pop\n        /* \"#utility.yul\":11336:11611   */\n      pop\n        /* \"#utility.yul\":11254:11611   */\n      swap3\n      swap2\n      pop\n      pop\n      jump\t// out\n        /* \"#utility.yul\":11681:12874   */\n    tag_291:\n        /* \"#utility.yul\":11784:11787   */\n      0x00\n        /* \"#utility.yul\":11820:11824   */\n      0xa0\n        /* \"#utility.yul\":11815:11818   */\n      dup4\n        /* \"#utility.yul\":11811:11825   */\n      add\n        /* \"#utility.yul\":11907:11911   */\n      0x00\n        /* \"#utility.yul\":11900:11905   */\n      dup4\n        /* \"#utility.yul\":11896:11912   */\n      add\n        /* \"#utility.yul\":11890:11913   */\n      mload\n        /* \"#utility.yul\":11926:11989   */\n      tag_456\n        /* \"#utility.yul\":11983:11987   */\n      0x00\n        /* \"#utility.yul\":11978:11981   */\n      dup7\n        /* \"#utility.yul\":11974:11988   */\n      add\n        /* \"#utility.yul\":11960:11972   */\n      dup3\n        /* \"#utility.yul\":11926:11989   */\n      tag_285\n      jump\t// in\n    tag_456:\n        /* \"#utility.yul\":11835:11999   */\n      pop\n        /* \"#utility.yul\":12086:12090   */\n      0x20\n        /* \"#utility.yul\":12079:12084   */\n      dup4\n        /* \"#utility.yul\":12075:12091   */\n      add\n        /* \"#utility.yul\":12069:12092   */\n      mload\n        /* \"#utility.yul\":12105:12168   */\n      tag_457\n        /* \"#utility.yul\":12162:12166   */\n      0x20\n        /* \"#utility.yul\":12157:12160   */\n      dup7\n        /* \"#utility.yul\":12153:12167   */\n      add\n        /* \"#utility.yul\":12139:12151   */\n      dup3\n        /* \"#utility.yul\":12105:12168   */\n      tag_286\n      jump\t// in\n    tag_457:\n        /* \"#utility.yul\":12009:12178   */\n      pop\n        /* \"#utility.yul\":12260:12264   */\n      0x40\n        /* \"#utility.yul\":12253:12258   */\n      dup4\n        /* \"#utility.yul\":12249:12265   */\n      add\n        /* \"#utility.yul\":12243:12266   */\n      mload\n        /* \"#utility.yul\":12313:12316   */\n      dup5\n        /* \"#utility.yul\":12307:12311   */\n      dup3\n        /* \"#utility.yul\":12303:12317   */\n      sub\n        /* \"#utility.yul\":12296:12300   */\n      0x40\n        /* \"#utility.yul\":12291:12294   */\n      dup7\n        /* \"#utility.yul\":12287:12301   */\n      add\n        /* \"#utility.yul\":12280:12318   */\n      mstore\n        /* \"#utility.yul\":12339:12412   */\n      tag_458\n        /* \"#utility.yul\":12407:12411   */\n      dup3\n        /* \"#utility.yul\":12393:12405   */\n      dup3\n        /* \"#utility.yul\":12339:12412   */\n      tag_290\n      jump\t// in\n    tag_458:\n        /* \"#utility.yul\":12331:12412   */\n      swap2\n      pop\n        /* \"#utility.yul\":12188:12423   */\n      pop\n        /* \"#utility.yul\":12508:12512   */\n      0x60\n        /* \"#utility.yul\":12501:12506   */\n      dup4\n        /* \"#utility.yul\":12497:12513   */\n      add\n        /* \"#utility.yul\":12491:12514   */\n      mload\n        /* \"#utility.yul\":12561:12564   */\n      dup5\n        /* \"#utility.yul\":12555:12559   */\n      dup3\n        /* \"#utility.yul\":12551:12565   */\n      sub\n        /* \"#utility.yul\":12544:12548   */\n      0x60\n        /* \"#utility.yul\":12539:12542   */\n      dup7\n        /* \"#utility.yul\":12535:12549   */\n      add\n        /* \"#utility.yul\":12528:12566   */\n      mstore\n        /* \"#utility.yul\":12587:12660   */\n      tag_459\n        /* \"#utility.yul\":12655:12659   */\n      dup3\n        /* \"#utility.yul\":12641:12653   */\n      dup3\n        /* \"#utility.yul\":12587:12660   */\n      tag_290\n      jump\t// in\n    tag_459:\n        /* \"#utility.yul\":12579:12660   */\n      swap2\n      pop\n        /* \"#utility.yul\":12433:12671   */\n      pop\n        /* \"#utility.yul\":12755:12759   */\n      0x80\n        /* \"#utility.yul\":12748:12753   */\n      dup4\n        /* \"#utility.yul\":12744:12760   */\n      add\n        /* \"#utility.yul\":12738:12761   */\n      mload\n        /* \"#utility.yul\":12774:12837   */\n      tag_460\n        /* \"#utility.yul\":12831:12835   */\n      0x80\n        /* \"#utility.yul\":12826:12829   */\n      dup7\n        /* \"#utility.yul\":12822:12836   */\n      add\n        /* \"#utility.yul\":12808:12820   */\n      dup3\n        /* \"#utility.yul\":12774:12837   */\n      tag_286\n      jump\t// in\n    tag_460:\n        /* \"#utility.yul\":12681:12847   */\n      pop\n        /* \"#utility.yul\":12864:12868   */\n      dup1\n        /* \"#utility.yul\":12857:12868   */\n      swap2\n      pop\n        /* \"#utility.yul\":11789:12874   */\n      pop\n        /* \"#utility.yul\":11681:12874   */\n      swap3\n      swap2\n      pop\n      pop\n      jump\t// out\n        /* \"#utility.yul\":12880:13124   */\n    tag_292:\n        /* \"#utility.yul\":12993:13003   */\n      0x00\n        /* \"#utility.yul\":13028:13118   */\n      tag_462\n        /* \"#utility.yul\":13114:13117   */\n      dup4\n        /* \"#utility.yul\":13106:13112   */\n      dup4\n        /* \"#utility.yul\":13028:13118   */\n      tag_291\n      jump\t// in\n    tag_462:\n        /* \"#utility.yul\":13014:13118   */\n      swap1\n      pop\n        /* \"#utility.yul\":12880:13124   */\n      swap3\n      swap2\n      pop\n      pop\n      jump\t// out\n        /* \"#utility.yul\":13130:13265   */\n    tag_293:\n        /* \"#utility.yul\":13222:13226   */\n      0x00\n        /* \"#utility.yul\":13254:13258   */\n      0x20\n        /* \"#utility.yul\":13249:13252   */\n      dup3\n        /* \"#utility.yul\":13245:13259   */\n      add\n        /* \"#utility.yul\":13237:13259   */\n      swap1\n      pop\n        /* \"#utility.yul\":13130:13265   */\n      swap2\n      swap1\n      pop\n      jump\t// out\n        /* \"#utility.yul\":13339:14426   */\n    tag_294:\n        /* \"#utility.yul\":13502:13505   */\n      0x00\n        /* \"#utility.yul\":13531:13607   */\n      tag_465\n        /* \"#utility.yul\":13601:13606   */\n      dup3\n        /* \"#utility.yul\":13531:13607   */\n      tag_280\n      jump\t// in\n    tag_465:\n        /* \"#utility.yul\":13623:13731   */\n      tag_466\n        /* \"#utility.yul\":13724:13730   */\n      dup2\n        /* \"#utility.yul\":13719:13722   */\n      dup6\n        /* \"#utility.yul\":13623:13731   */\n      tag_281\n      jump\t// in\n    tag_466:\n        /* \"#utility.yul\":13616:13731   */\n      swap4\n      pop\n        /* \"#utility.yul\":13757:13760   */\n      dup4\n        /* \"#utility.yul\":13802:13806   */\n      0x20\n        /* \"#utility.yul\":13794:13800   */\n      dup3\n        /* \"#utility.yul\":13790:13807   */\n      mul\n        /* \"#utility.yul\":13785:13788   */\n      dup6\n        /* \"#utility.yul\":13781:13808   */\n      add\n        /* \"#utility.yul\":13832:13910   */\n      tag_467\n        /* \"#utility.yul\":13904:13909   */\n      dup6\n        /* \"#utility.yul\":13832:13910   */\n      tag_282\n      jump\t// in\n    tag_467:\n        /* \"#utility.yul\":13933:13940   */\n      dup1\n        /* \"#utility.yul\":13964:13965   */\n      0x00\n        /* \"#utility.yul\":13949:14381   */\n    tag_468:\n        /* \"#utility.yul\":13974:13980   */\n      dup6\n        /* \"#utility.yul\":13971:13972   */\n      dup2\n        /* \"#utility.yul\":13968:13981   */\n      lt\n        /* \"#utility.yul\":13949:14381   */\n      iszero\n      tag_470\n      jumpi\n        /* \"#utility.yul\":14045:14054   */\n      dup5\n        /* \"#utility.yul\":14039:14043   */\n      dup5\n        /* \"#utility.yul\":14035:14055   */\n      sub\n        /* \"#utility.yul\":14030:14033   */\n      dup10\n        /* \"#utility.yul\":14023:14056   */\n      mstore\n        /* \"#utility.yul\":14096:14102   */\n      dup2\n        /* \"#utility.yul\":14090:14103   */\n      mload\n        /* \"#utility.yul\":14124:14232   */\n      tag_471\n        /* \"#utility.yul\":14227:14231   */\n      dup6\n        /* \"#utility.yul\":14212:14225   */\n      dup3\n        /* \"#utility.yul\":14124:14232   */\n      tag_292\n      jump\t// in\n    tag_471:\n        /* \"#utility.yul\":14116:14232   */\n      swap5\n      pop\n        /* \"#utility.yul\":14255:14337   */\n      tag_472\n        /* \"#utility.yul\":14330:14336   */\n      dup4\n        /* \"#utility.yul\":14255:14337   */\n      tag_293\n      jump\t// in\n    tag_472:\n        /* \"#utility.yul\":14245:14337   */\n      swap3\n      pop\n        /* \"#utility.yul\":14366:14370   */\n      0x20\n        /* \"#utility.yul\":14361:14364   */\n      dup11\n        /* \"#utility.yul\":14357:14371   */\n      add\n        /* \"#utility.yul\":14350:14371   */\n      swap10\n      pop\n        /* \"#utility.yul\":14009:14381   */\n      pop\n        /* \"#utility.yul\":13996:13997   */\n      0x01\n        /* \"#utility.yul\":13993:13994   */\n      dup2\n        /* \"#utility.yul\":13989:13998   */\n      add\n        /* \"#utility.yul\":13984:13998   */\n      swap1\n      pop\n        /* \"#utility.yul\":13949:14381   */\n      jump(tag_468)\n    tag_470:\n        /* \"#utility.yul\":13953:13967   */\n      pop\n        /* \"#utility.yul\":14397:14401   */\n      dup3\n        /* \"#utility.yul\":14390:14401   */\n      swap8\n      pop\n        /* \"#utility.yul\":14417:14420   */\n      dup8\n        /* \"#utility.yul\":14410:14420   */\n      swap6\n      pop\n        /* \"#utility.yul\":13507:14426   */\n      pop\n      pop\n      pop\n      pop\n      pop\n        /* \"#utility.yul\":13339:14426   */\n      swap3\n      swap2\n      pop\n      pop\n      jump\t// out\n        /* \"#utility.yul\":14432:14893   */\n    tag_43:\n        /* \"#utility.yul\":14619:14623   */\n      0x00\n        /* \"#utility.yul\":14657:14659   */\n      0x20\n        /* \"#utility.yul\":14646:14655   */\n      dup3\n        /* \"#utility.yul\":14642:14660   */\n      add\n        /* \"#utility.yul\":14634:14660   */\n      swap1\n      pop\n        /* \"#utility.yul\":14706:14715   */\n      dup2\n        /* \"#utility.yul\":14700:14704   */\n      dup2\n        /* \"#utility.yul\":14696:14716   */\n      sub\n        /* \"#utility.yul\":14692:14693   */\n      0x00\n        /* \"#utility.yul\":14681:14690   */\n      dup4\n        /* \"#utility.yul\":14677:14694   */\n      add\n        /* \"#utility.yul\":14670:14717   */\n      mstore\n        /* \"#utility.yul\":14734:14886   */\n      tag_474\n        /* \"#utility.yul\":14881:14885   */\n      dup2\n        /* \"#utility.yul\":14872:14878   */\n      dup5\n        /* \"#utility.yul\":14734:14886   */\n      tag_294\n      jump\t// in\n    tag_474:\n        /* \"#utility.yul\":14726:14886   */\n      swap1\n      pop\n        /* \"#utility.yul\":14432:14893   */\n      swap3\n      swap2\n      pop\n      pop\n      jump\t// out\n        /* \"#utility.yul\":14899:15016   */\n    tag_295:\n        /* \"#utility.yul\":15008:15009   */\n      0x00\n        /* \"#utility.yul\":15005:15006   */\n      0x00\n        /* \"#utility.yul\":14998:15010   */\n      revert\n        /* \"#utility.yul\":15022:15139   */\n    tag_296:\n        /* \"#utility.yul\":15131:15132   */\n      0x00\n        /* \"#utility.yul\":15128:15129   */\n      0x00\n        /* \"#utility.yul\":15121:15133   */\n      revert\n        /* \"#utility.yul\":15145:15426   */\n    tag_297:\n        /* \"#utility.yul\":15228:15255   */\n      tag_478\n        /* \"#utility.yul\":15250:15254   */\n      dup3\n        /* \"#utility.yul\":15228:15255   */\n      tag_289\n      jump\t// in\n    tag_478:\n        /* \"#utility.yul\":15220:15226   */\n      dup2\n        /* \"#utility.yul\":15216:15256   */\n      add\n        /* \"#utility.yul\":15358:15364   */\n      dup2\n        /* \"#utility.yul\":15346:15356   */\n      dup2\n        /* \"#utility.yul\":15343:15365   */\n      lt\n        /* \"#utility.yul\":15322:15340   */\n      0xffffffffffffffff\n        /* \"#utility.yul\":15310:15320   */\n      dup3\n        /* \"#utility.yul\":15307:15341   */\n      gt\n        /* \"#utility.yul\":15304:15366   */\n      or\n        /* \"#utility.yul\":15301:15389   */\n      iszero\n      tag_479\n      jumpi\n        /* \"#utility.yul\":15369:15387   */\n      tag_480\n      tag_125\n      jump\t// in\n    tag_480:\n        /* \"#utility.yul\":15301:15389   */\n    tag_479:\n        /* \"#utility.yul\":15409:15419   */\n      dup1\n        /* \"#utility.yul\":15405:15407   */\n      0x40\n        /* \"#utility.yul\":15398:15420   */\n      mstore\n        /* \"#utility.yul\":15188:15426   */\n      pop\n        /* \"#utility.yul\":15145:15426   */\n      pop\n      pop\n      jump\t// out\n        /* \"#utility.yul\":15432:15561   */\n    tag_298:\n        /* \"#utility.yul\":15466:15472   */\n      0x00\n        /* \"#utility.yul\":15493:15513   */\n      tag_482\n      tag_275\n      jump\t// in\n    tag_482:\n        /* \"#utility.yul\":15483:15513   */\n      swap1\n      pop\n        /* \"#utility.yul\":15522:15555   */\n      tag_483\n        /* \"#utility.yul\":15550:15554   */\n      dup3\n        /* \"#utility.yul\":15542:15548   */\n      dup3\n        /* \"#utility.yul\":15522:15555   */\n      tag_297\n      jump\t// in\n    tag_483:\n        /* \"#utility.yul\":15432:15561   */\n      swap2\n      swap1\n      pop\n      jump\t// out\n        /* \"#utility.yul\":15567:15875   */\n    tag_299:\n        /* \"#utility.yul\":15629:15633   */\n      0x00\n        /* \"#utility.yul\":15719:15737   */\n      0xffffffffffffffff\n        /* \"#utility.yul\":15711:15717   */\n      dup3\n        /* \"#utility.yul\":15708:15738   */\n      gt\n        /* \"#utility.yul\":15705:15761   */\n      iszero\n      tag_485\n      jumpi\n        /* \"#utility.yul\":15741:15759   */\n      tag_486\n      tag_125\n      jump\t// in\n    tag_486:\n        /* \"#utility.yul\":15705:15761   */\n    tag_485:\n        /* \"#utility.yul\":15779:15808   */\n      tag_487\n        /* \"#utility.yul\":15801:15807   */\n      dup3\n        /* \"#utility.yul\":15779:15808   */\n      tag_289\n      jump\t// in\n    tag_487:\n        /* \"#utility.yul\":15771:15808   */\n      swap1\n      pop\n        /* \"#utility.yul\":15863:15867   */\n      0x20\n        /* \"#utility.yul\":15857:15861   */\n      dup2\n        /* \"#utility.yul\":15853:15868   */\n      add\n        /* \"#utility.yul\":15845:15868   */\n      swap1\n      pop\n        /* \"#utility.yul\":15567:15875   */\n      swap2\n      swap1\n      pop\n      jump\t// out\n        /* \"#utility.yul\":15881:16029   */\n    tag_300:\n        /* \"#utility.yul\":15979:15985   */\n      dup3\n        /* \"#utility.yul\":15974:15977   */\n      dup2\n        /* \"#utility.yul\":15969:15972   */\n      dup4\n        /* \"#utility.yul\":15956:15986   */\n      calldatacopy\n        /* \"#utility.yul\":16020:16021   */\n      0x00\n        /* \"#utility.yul\":16011:16017   */\n      dup4\n        /* \"#utility.yul\":16006:16009   */\n      dup4\n        /* \"#utility.yul\":16002:16018   */\n      add\n        /* \"#utility.yul\":15995:16022   */\n      mstore\n        /* \"#utility.yul\":15881:16029   */\n      pop\n      pop\n      pop\n      jump\t// out\n        /* \"#utility.yul\":16035:16460   */\n    tag_301:\n        /* \"#utility.yul\":16113:16118   */\n      0x00\n        /* \"#utility.yul\":16138:16204   */\n      tag_490\n        /* \"#utility.yul\":16154:16203   */\n      tag_491\n        /* \"#utility.yul\":16196:16202   */\n      dup5\n        /* \"#utility.yul\":16154:16203   */\n      tag_299\n      jump\t// in\n    tag_491:\n        /* \"#utility.yul\":16138:16204   */\n      tag_298\n      jump\t// in\n    tag_490:\n        /* \"#utility.yul\":16129:16204   */\n      swap1\n      pop\n        /* \"#utility.yul\":16227:16233   */\n      dup3\n        /* \"#utility.yul\":16220:16225   */\n      dup2\n        /* \"#utility.yul\":16213:16234   */\n      mstore\n        /* \"#utility.yul\":16265:16269   */\n      0x20\n        /* \"#utility.yul\":16258:16263   */\n      dup2\n        /* \"#utility.yul\":16254:16270   */\n      add\n        /* \"#utility.yul\":16303:16306   */\n      dup5\n        /* \"#utility.yul\":16294:16300   */\n      dup5\n        /* \"#utility.yul\":16289:16292   */\n      dup5\n        /* \"#utility.yul\":16285:16301   */\n      add\n        /* \"#utility.yul\":16282:16307   */\n      gt\n        /* \"#utility.yul\":16279:16391   */\n      iszero\n      tag_492\n      jumpi\n        /* \"#utility.yul\":16310:16389   */\n      tag_493\n      tag_296\n      jump\t// in\n    tag_493:\n        /* \"#utility.yul\":16279:16391   */\n    tag_492:\n        /* \"#utility.yul\":16400:16454   */\n      tag_494\n        /* \"#utility.yul\":16447:16453   */\n      dup5\n        /* \"#utility.yul\":16442:16445   */\n      dup3\n        /* \"#utility.yul\":16437:16440   */\n      dup6\n        /* \"#utility.yul\":16400:16454   */\n      tag_300\n      jump\t// in\n    tag_494:\n        /* \"#utility.yul\":16119:16460   */\n      pop\n        /* \"#utility.yul\":16035:16460   */\n      swap4\n      swap3\n      pop\n      pop\n      pop\n      jump\t// out\n        /* \"#utility.yul\":16480:16820   */\n    tag_302:\n        /* \"#utility.yul\":16536:16541   */\n      0x00\n        /* \"#utility.yul\":16585:16588   */\n      dup3\n        /* \"#utility.yul\":16578:16582   */\n      0x1f\n        /* \"#utility.yul\":16570:16576   */\n      dup4\n        /* \"#utility.yul\":16566:16583   */\n      add\n        /* \"#utility.yul\":16562:16589   */\n      slt\n        /* \"#utility.yul\":16552:16674   */\n      tag_496\n      jumpi\n        /* \"#utility.yul\":16593:16672   */\n      tag_497\n      tag_295\n      jump\t// in\n    tag_497:\n        /* \"#utility.yul\":16552:16674   */\n    tag_496:\n        /* \"#utility.yul\":16710:16716   */\n      dup2\n        /* \"#utility.yul\":16697:16717   */\n      calldataload\n        /* \"#utility.yul\":16735:16814   */\n      tag_498\n        /* \"#utility.yul\":16810:16813   */\n      dup5\n        /* \"#utility.yul\":16802:16808   */\n      dup3\n        /* \"#utility.yul\":16795:16799   */\n      0x20\n        /* \"#utility.yul\":16787:16793   */\n      dup7\n        /* \"#utility.yul\":16783:16800   */\n      add\n        /* \"#utility.yul\":16735:16814   */\n      tag_301\n      jump\t// in\n    tag_498:\n        /* \"#utility.yul\":16726:16814   */\n      swap2\n      pop\n        /* \"#utility.yul\":16542:16820   */\n      pop\n        /* \"#utility.yul\":16480:16820   */\n      swap3\n      swap2\n      pop\n      pop\n      jump\t// out\n        /* \"#utility.yul\":16826:17660   */\n    tag_46:\n        /* \"#utility.yul\":16914:16920   */\n      0x00\n        /* \"#utility.yul\":16922:16928   */\n      0x00\n        /* \"#utility.yul\":16971:16973   */\n      0x40\n        /* \"#utility.yul\":16959:16968   */\n      dup4\n        /* \"#utility.yul\":16950:16957   */\n      dup6\n        /* \"#utility.yul\":16946:16969   */\n      sub\n        /* \"#utility.yul\":16942:16974   */\n      slt\n        /* \"#utility.yul\":16939:17058   */\n      iszero\n      tag_500\n      jumpi\n        /* \"#utility.yul\":16977:17056   */\n      tag_501\n      tag_276\n      jump\t// in\n    tag_501:\n        /* \"#utility.yul\":16939:17058   */\n    tag_500:\n        /* \"#utility.yul\":17125:17126   */\n      0x00\n        /* \"#utility.yul\":17114:17123   */\n      dup4\n        /* \"#utility.yul\":17110:17127   */\n      add\n        /* \"#utility.yul\":17097:17128   */\n      calldataload\n        /* \"#utility.yul\":17155:17173   */\n      0xffffffffffffffff\n        /* \"#utility.yul\":17147:17153   */\n      dup2\n        /* \"#utility.yul\":17144:17174   */\n      gt\n        /* \"#utility.yul\":17141:17258   */\n      iszero\n      tag_502\n      jumpi\n        /* \"#utility.yul\":17177:17256   */\n      tag_503\n      tag_277\n      jump\t// in\n    tag_503:\n        /* \"#utility.yul\":17141:17258   */\n    tag_502:\n        /* \"#utility.yul\":17282:17345   */\n      tag_504\n        /* \"#utility.yul\":17337:17344   */\n      dup6\n        /* \"#utility.yul\":17328:17334   */\n      dup3\n        /* \"#utility.yul\":17317:17326   */\n      dup7\n        /* \"#utility.yul\":17313:17335   */\n      add\n        /* \"#utility.yul\":17282:17345   */\n      tag_302\n      jump\t// in\n    tag_504:\n        /* \"#utility.yul\":17272:17345   */\n      swap3\n      pop\n        /* \"#utility.yul\":17068:17355   */\n      pop\n        /* \"#utility.yul\":17422:17424   */\n      0x20\n        /* \"#utility.yul\":17411:17420   */\n      dup4\n        /* \"#utility.yul\":17407:17425   */\n      add\n        /* \"#utility.yul\":17394:17426   */\n      calldataload\n        /* \"#utility.yul\":17453:17471   */\n      0xffffffffffffffff\n        /* \"#utility.yul\":17445:17451   */\n      dup2\n        /* \"#utility.yul\":17442:17472   */\n      gt\n        /* \"#utility.yul\":17439:17556   */\n      iszero\n      tag_505\n      jumpi\n        /* \"#utility.yul\":17475:17554   */\n      tag_506\n      tag_277\n      jump\t// in\n    tag_506:\n        /* \"#utility.yul\":17439:17556   */\n    tag_505:\n        /* \"#utility.yul\":17580:17643   */\n      tag_507\n        /* \"#utility.yul\":17635:17642   */\n      dup6\n        /* \"#utility.yul\":17626:17632   */\n      dup3\n        /* \"#utility.yul\":17615:17624   */\n      dup7\n        /* \"#utility.yul\":17611:17633   */\n      add\n        /* \"#utility.yul\":17580:17643   */\n      tag_302\n      jump\t// in\n    tag_507:\n        /* \"#utility.yul\":17570:17643   */\n      swap2\n      pop\n        /* \"#utility.yul\":17365:17653   */\n      pop\n        /* \"#utility.yul\":16826:17660   */\n      swap3\n      pop\n      swap3\n      swap1\n      pop\n      jump\t// out\n        /* \"#utility.yul\":17666:18645   */\n    tag_50:\n        /* \"#utility.yul\":17763:17769   */\n      0x00\n        /* \"#utility.yul\":17771:17777   */\n      0x00\n        /* \"#utility.yul\":17779:17785   */\n      0x00\n        /* \"#utility.yul\":17828:17830   */\n      0x60\n        /* \"#utility.yul\":17816:17825   */\n      dup5\n        /* \"#utility.yul\":17807:17814   */\n      dup7\n        /* \"#utility.yul\":17803:17826   */\n      sub\n        /* \"#utility.yul\":17799:17831   */\n      slt\n        /* \"#utility.yul\":17796:17915   */\n      iszero\n      tag_509\n      jumpi\n        /* \"#utility.yul\":17834:17913   */\n      tag_510\n      tag_276\n      jump\t// in\n    tag_510:\n        /* \"#utility.yul\":17796:17915   */\n    tag_509:\n        /* \"#utility.yul\":17982:17983   */\n      0x00\n        /* \"#utility.yul\":17971:17980   */\n      dup5\n        /* \"#utility.yul\":17967:17984   */\n      add\n        /* \"#utility.yul\":17954:17985   */\n      calldataload\n        /* \"#utility.yul\":18012:18030   */\n      0xffffffffffffffff\n        /* \"#utility.yul\":18004:18010   */\n      dup2\n        /* \"#utility.yul\":18001:18031   */\n      gt\n        /* \"#utility.yul\":17998:18115   */\n      iszero\n      tag_511\n      jumpi\n        /* \"#utility.yul\":18034:18113   */\n      tag_512\n      tag_277\n      jump\t// in\n    tag_512:\n        /* \"#utility.yul\":17998:18115   */\n    tag_511:\n        /* \"#utility.yul\":18139:18202   */\n      tag_513\n        /* \"#utility.yul\":18194:18201   */\n      dup7\n        /* \"#utility.yul\":18185:18191   */\n      dup3\n        /* \"#utility.yul\":18174:18183   */\n      dup8\n        /* \"#utility.yul\":18170:18192   */\n      add\n        /* \"#utility.yul\":18139:18202   */\n      tag_302\n      jump\t// in\n    tag_513:\n        /* \"#utility.yul\":18129:18202   */\n      swap4\n      pop\n        /* \"#utility.yul\":17925:18212   */\n      pop\n        /* \"#utility.yul\":18279:18281   */\n      0x20\n        /* \"#utility.yul\":18268:18277   */\n      dup5\n        /* \"#utility.yul\":18264:18282   */\n      add\n        /* \"#utility.yul\":18251:18283   */\n      calldataload\n        /* \"#utility.yul\":18310:18328   */\n      0xffffffffffffffff\n        /* \"#utility.yul\":18302:18308   */\n      dup2\n        /* \"#utility.yul\":18299:18329   */\n      gt\n        /* \"#utility.yul\":18296:18413   */\n      iszero\n      tag_514\n      jumpi\n        /* \"#utility.yul\":18332:18411   */\n      tag_515\n      tag_277\n      jump\t// in\n    tag_515:\n        /* \"#utility.yul\":18296:18413   */\n    tag_514:\n        /* \"#utility.yul\":18437:18500   */\n      tag_516\n        /* \"#utility.yul\":18492:18499   */\n      dup7\n        /* \"#utility.yul\":18483:18489   */\n      dup3\n        /* \"#utility.yul\":18472:18481   */\n      dup8\n        /* \"#utility.yul\":18468:18490   */\n      add\n        /* \"#utility.yul\":18437:18500   */\n      tag_302\n      jump\t// in\n    tag_516:\n        /* \"#utility.yul\":18427:18500   */\n      swap3\n      pop\n        /* \"#utility.yul\":18222:18510   */\n      pop\n        /* \"#utility.yul\":18549:18551   */\n      0x40\n        /* \"#utility.yul\":18575:18628   */\n      tag_517\n        /* \"#utility.yul\":18620:18627   */\n      dup7\n        /* \"#utility.yul\":18611:18617   */\n      dup3\n        /* \"#utility.yul\":18600:18609   */\n      dup8\n        /* \"#utility.yul\":18596:18618   */\n      add\n        /* \"#utility.yul\":18575:18628   */\n      tag_279\n      jump\t// in\n    tag_517:\n        /* \"#utility.yul\":18565:18628   */\n      swap2\n      pop\n        /* \"#utility.yul\":18520:18638   */\n      pop\n        /* \"#utility.yul\":17666:18645   */\n      swap3\n      pop\n      swap3\n      pop\n      swap3\n      jump\t// out\n        /* \"#utility.yul\":18651:18873   */\n    tag_63:\n        /* \"#utility.yul\":18744:18748   */\n      0x00\n        /* \"#utility.yul\":18782:18784   */\n      0x20\n        /* \"#utility.yul\":18771:18780   */\n      dup3\n        /* \"#utility.yul\":18767:18785   */\n      add\n        /* \"#utility.yul\":18759:18785   */\n      swap1\n      pop\n        /* \"#utility.yul\":18795:18866   */\n      tag_519\n        /* \"#utility.yul\":18863:18864   */\n      0x00\n        /* \"#utility.yul\":18852:18861   */\n      dup4\n        /* \"#utility.yul\":18848:18865   */\n      add\n        /* \"#utility.yul\":18839:18845   */\n      dup5\n        /* \"#utility.yul\":18795:18866   */\n      tag_267\n      jump\t// in\n    tag_519:\n        /* \"#utility.yul\":18651:18873   */\n      swap3\n      swap2\n      pop\n      pop\n      jump\t// out\n        /* \"#utility.yul\":18879:19001   */\n    tag_303:\n        /* \"#utility.yul\":18952:18976   */\n      tag_521\n        /* \"#utility.yul\":18970:18975   */\n      dup2\n        /* \"#utility.yul\":18952:18976   */\n      tag_284\n      jump\t// in\n    tag_521:\n        /* \"#utility.yul\":18945:18950   */\n      dup2\n        /* \"#utility.yul\":18942:18977   */\n      eq\n        /* \"#utility.yul\":18932:18995   */\n      tag_522\n      jumpi\n        /* \"#utility.yul\":18991:18992   */\n      0x00\n        /* \"#utility.yul\":18988:18989   */\n      0x00\n        /* \"#utility.yul\":18981:18993   */\n      revert\n        /* \"#utility.yul\":18932:18995   */\n    tag_522:\n        /* \"#utility.yul\":18879:19001   */\n      pop\n      jump\t// out\n        /* \"#utility.yul\":19007:19146   */\n    tag_304:\n        /* \"#utility.yul\":19053:19058   */\n      0x00\n        /* \"#utility.yul\":19091:19097   */\n      dup2\n        /* \"#utility.yul\":19078:19098   */\n      calldataload\n        /* \"#utility.yul\":19069:19098   */\n      swap1\n      pop\n        /* \"#utility.yul\":19107:19140   */\n      tag_524\n        /* \"#utility.yul\":19134:19139   */\n      dup2\n        /* \"#utility.yul\":19107:19140   */\n      tag_303\n      jump\t// in\n    tag_524:\n        /* \"#utility.yul\":19007:19146   */\n      swap3\n      swap2\n      pop\n      pop\n      jump\t// out\n        /* \"#utility.yul\":19152:19481   */\n    tag_71:\n        /* \"#utility.yul\":19211:19217   */\n      0x00\n        /* \"#utility.yul\":19260:19262   */\n      0x20\n        /* \"#utility.yul\":19248:19257   */\n      dup3\n        /* \"#utility.yul\":19239:19246   */\n      dup5\n        /* \"#utility.yul\":19235:19258   */\n      sub\n        /* \"#utility.yul\":19231:19263   */\n      slt\n        /* \"#utility.yul\":19228:19347   */\n      iszero\n      tag_526\n      jumpi\n        /* \"#utility.yul\":19266:19345   */\n      tag_527\n      tag_276\n      jump\t// in\n    tag_527:\n        /* \"#utility.yul\":19228:19347   */\n    tag_526:\n        /* \"#utility.yul\":19386:19387   */\n      0x00\n        /* \"#utility.yul\":19411:19464   */\n      tag_528\n        /* \"#utility.yul\":19456:19463   */\n      dup5\n        /* \"#utility.yul\":19447:19453   */\n      dup3\n        /* \"#utility.yul\":19436:19445   */\n      dup6\n        /* \"#utility.yul\":19432:19454   */\n      add\n        /* \"#utility.yul\":19411:19464   */\n      tag_304\n      jump\t// in\n    tag_528:\n        /* \"#utility.yul\":19401:19464   */\n      swap2\n      pop\n        /* \"#utility.yul\":19357:19474   */\n      pop\n        /* \"#utility.yul\":19152:19481   */\n      swap3\n      swap2\n      pop\n      pop\n      jump\t// out\n        /* \"#utility.yul\":19487:19591   */\n    tag_305:\n        /* \"#utility.yul\":19532:19539   */\n      0x00\n        /* \"#utility.yul\":19561:19585   */\n      tag_530\n        /* \"#utility.yul\":19579:19584   */\n      dup3\n        /* \"#utility.yul\":19561:19585   */\n      tag_283\n      jump\t// in\n    tag_530:\n        /* \"#utility.yul\":19550:19585   */\n      swap1\n      pop\n        /* \"#utility.yul\":19487:19591   */\n      swap2\n      swap1\n      pop\n      jump\t// out\n        /* \"#utility.yul\":19597:19739   */\n    tag_306:\n        /* \"#utility.yul\":19700:19732   */\n      tag_532\n        /* \"#utility.yul\":19726:19731   */\n      dup2\n        /* \"#utility.yul\":19700:19732   */\n      tag_305\n      jump\t// in\n    tag_532:\n        /* \"#utility.yul\":19695:19698   */\n      dup3\n        /* \"#utility.yul\":19688:19733   */\n      mstore\n        /* \"#utility.yul\":19597:19739   */\n      pop\n      pop\n      jump\t// out\n        /* \"#utility.yul\":19745:19999   */\n    tag_78:\n        /* \"#utility.yul\":19854:19858   */\n      0x00\n        /* \"#utility.yul\":19892:19894   */\n      0x20\n        /* \"#utility.yul\":19881:19890   */\n      dup3\n        /* \"#utility.yul\":19877:19895   */\n      add\n        /* \"#utility.yul\":19869:19895   */\n      swap1\n      pop\n        /* \"#utility.yul\":19905:19992   */\n      tag_534\n        /* \"#utility.yul\":19989:19990   */\n      0x00\n        /* \"#utility.yul\":19978:19987   */\n      dup4\n        /* \"#utility.yul\":19974:19991   */\n      add\n        /* \"#utility.yul\":19965:19971   */\n      dup5\n        /* \"#utility.yul\":19905:19992   */\n      tag_306\n      jump\t// in\n    tag_534:\n        /* \"#utility.yul\":19745:19999   */\n      swap3\n      swap2\n      pop\n      pop\n      jump\t// out\n        /* \"#utility.yul\":20005:20123   */\n    tag_307:\n        /* \"#utility.yul\":20092:20116   */\n      tag_536\n        /* \"#utility.yul\":20110:20115   */\n      dup2\n        /* \"#utility.yul\":20092:20116   */\n      tag_284\n      jump\t// in\n    tag_536:\n        /* \"#utility.yul\":20087:20090   */\n      dup3\n        /* \"#utility.yul\":20080:20117   */\n      mstore\n        /* \"#utility.yul\":20005:20123   */\n      pop\n      pop\n      jump\t// out\n        /* \"#utility.yul\":20129:20506   */\n    tag_308:\n        /* \"#utility.yul\":20217:20220   */\n      0x00\n        /* \"#utility.yul\":20245:20284   */\n      tag_538\n        /* \"#utility.yul\":20278:20283   */\n      dup3\n        /* \"#utility.yul\":20245:20284   */\n      tag_248\n      jump\t// in\n    tag_538:\n        /* \"#utility.yul\":20300:20371   */\n      tag_539\n        /* \"#utility.yul\":20364:20370   */\n      dup2\n        /* \"#utility.yul\":20359:20362   */\n      dup6\n        /* \"#utility.yul\":20300:20371   */\n      tag_268\n      jump\t// in\n    tag_539:\n        /* \"#utility.yul\":20293:20371   */\n      swap4\n      pop\n        /* \"#utility.yul\":20380:20445   */\n      tag_540\n        /* \"#utility.yul\":20438:20444   */\n      dup2\n        /* \"#utility.yul\":20433:20436   */\n      dup6\n        /* \"#utility.yul\":20426:20430   */\n      0x20\n        /* \"#utility.yul\":20419:20424   */\n      dup7\n        /* \"#utility.yul\":20415:20431   */\n      add\n        /* \"#utility.yul\":20380:20445   */\n      tag_288\n      jump\t// in\n    tag_540:\n        /* \"#utility.yul\":20470:20499   */\n      tag_541\n        /* \"#utility.yul\":20492:20498   */\n      dup2\n        /* \"#utility.yul\":20470:20499   */\n      tag_289\n      jump\t// in\n    tag_541:\n        /* \"#utility.yul\":20465:20468   */\n      dup5\n        /* \"#utility.yul\":20461:20500   */\n      add\n        /* \"#utility.yul\":20454:20500   */\n      swap2\n      pop\n        /* \"#utility.yul\":20221:20506   */\n      pop\n        /* \"#utility.yul\":20129:20506   */\n      swap3\n      swap2\n      pop\n      pop\n      jump\t// out\n        /* \"#utility.yul\":20512:21358   */\n    tag_84:\n        /* \"#utility.yul\":20757:20761   */\n      0x00\n        /* \"#utility.yul\":20795:20798   */\n      0xa0\n        /* \"#utility.yul\":20784:20793   */\n      dup3\n        /* \"#utility.yul\":20780:20799   */\n      add\n        /* \"#utility.yul\":20772:20799   */\n      swap1\n      pop\n        /* \"#utility.yul\":20809:20880   */\n      tag_543\n        /* \"#utility.yul\":20877:20878   */\n      0x00\n        /* \"#utility.yul\":20866:20875   */\n      dup4\n        /* \"#utility.yul\":20862:20879   */\n      add\n        /* \"#utility.yul\":20853:20859   */\n      dup9\n        /* \"#utility.yul\":20809:20880   */\n      tag_307\n      jump\t// in\n    tag_543:\n        /* \"#utility.yul\":20890:20962   */\n      tag_544\n        /* \"#utility.yul\":20958:20960   */\n      0x20\n        /* \"#utility.yul\":20947:20956   */\n      dup4\n        /* \"#utility.yul\":20943:20961   */\n      add\n        /* \"#utility.yul\":20934:20940   */\n      dup8\n        /* \"#utility.yul\":20890:20962   */\n      tag_267\n      jump\t// in\n    tag_544:\n        /* \"#utility.yul\":21009:21018   */\n      dup2\n        /* \"#utility.yul\":21003:21007   */\n      dup2\n        /* \"#utility.yul\":20999:21019   */\n      sub\n        /* \"#utility.yul\":20994:20996   */\n      0x40\n        /* \"#utility.yul\":20983:20992   */\n      dup4\n        /* \"#utility.yul\":20979:20997   */\n      add\n        /* \"#utility.yul\":20972:21020   */\n      mstore\n        /* \"#utility.yul\":21037:21115   */\n      tag_545\n        /* \"#utility.yul\":21110:21114   */\n      dup2\n        /* \"#utility.yul\":21101:21107   */\n      dup7\n        /* \"#utility.yul\":21037:21115   */\n      tag_308\n      jump\t// in\n    tag_545:\n        /* \"#utility.yul\":21029:21115   */\n      swap1\n      pop\n        /* \"#utility.yul\":21162:21171   */\n      dup2\n        /* \"#utility.yul\":21156:21160   */\n      dup2\n        /* \"#utility.yul\":21152:21172   */\n      sub\n        /* \"#utility.yul\":21147:21149   */\n      0x60\n        /* \"#utility.yul\":21136:21145   */\n      dup4\n        /* \"#utility.yul\":21132:21150   */\n      add\n        /* \"#utility.yul\":21125:21173   */\n      mstore\n        /* \"#utility.yul\":21190:21268   */\n      tag_546\n        /* \"#utility.yul\":21263:21267   */\n      dup2\n        /* \"#utility.yul\":21254:21260   */\n      dup6\n        /* \"#utility.yul\":21190:21268   */\n      tag_308\n      jump\t// in\n    tag_546:\n        /* \"#utility.yul\":21182:21268   */\n      swap1\n      pop\n        /* \"#utility.yul\":21278:21351   */\n      tag_547\n        /* \"#utility.yul\":21346:21349   */\n      0x80\n        /* \"#utility.yul\":21335:21344   */\n      dup4\n        /* \"#utility.yul\":21331:21350   */\n      add\n        /* \"#utility.yul\":21322:21328   */\n      dup5\n        /* \"#utility.yul\":21278:21351   */\n      tag_267\n      jump\t// in\n    tag_547:\n        /* \"#utility.yul\":20512:21358   */\n      swap7\n      swap6\n      pop\n      pop\n      pop\n      pop\n      pop\n      pop\n      jump\t// out\n        /* \"#utility.yul\":21364:21696   */\n    tag_94:\n        /* \"#utility.yul\":21485:21489   */\n      0x00\n        /* \"#utility.yul\":21523:21525   */\n      0x40\n        /* \"#utility.yul\":21512:21521   */\n      dup3\n        /* \"#utility.yul\":21508:21526   */\n      add\n        /* \"#utility.yul\":21500:21526   */\n      swap1\n      pop\n        /* \"#utility.yul\":21536:21607   */\n      tag_549\n        /* \"#utility.yul\":21604:21605   */\n      0x00\n        /* \"#utility.yul\":21593:21602   */\n      dup4\n        /* \"#utility.yul\":21589:21606   */\n      add\n        /* \"#utility.yul\":21580:21586   */\n      dup6\n        /* \"#utility.yul\":21536:21607   */\n      tag_267\n      jump\t// in\n    tag_549:\n        /* \"#utility.yul\":21617:21689   */\n      tag_550\n        /* \"#utility.yul\":21685:21687   */\n      0x20\n        /* \"#utility.yul\":21674:21683   */\n      dup4\n        /* \"#utility.yul\":21670:21688   */\n      add\n        /* \"#utility.yul\":21661:21667   */\n      dup5\n        /* \"#utility.yul\":21617:21689   */\n      tag_267\n      jump\t// in\n    tag_550:\n        /* \"#utility.yul\":21364:21696   */\n      swap4\n      swap3\n      pop\n      pop\n      pop\n      jump\t// out\n        /* \"#utility.yul\":21702:21840   */\n    tag_309:\n        /* \"#utility.yul\":21783:21815   */\n      tag_552\n        /* \"#utility.yul\":21809:21814   */\n      dup2\n        /* \"#utility.yul\":21783:21815   */\n      tag_305\n      jump\t// in\n    tag_552:\n        /* \"#utility.yul\":21776:21781   */\n      dup2\n        /* \"#utility.yul\":21773:21816   */\n      eq\n        /* \"#utility.yul\":21763:21834   */\n      tag_553\n      jumpi\n        /* \"#utility.yul\":21830:21831   */\n      0x00\n        /* \"#utility.yul\":21827:21828   */\n      0x00\n        /* \"#utility.yul\":21820:21832   */\n      revert\n        /* \"#utility.yul\":21763:21834   */\n    tag_553:\n        /* \"#utility.yul\":21702:21840   */\n      pop\n      jump\t// out\n        /* \"#utility.yul\":21846:22001   */\n    tag_310:\n        /* \"#utility.yul\":21900:21905   */\n      0x00\n        /* \"#utility.yul\":21938:21944   */\n      dup2\n        /* \"#utility.yul\":21925:21945   */\n      calldataload\n        /* \"#utility.yul\":21916:21945   */\n      swap1\n      pop\n        /* \"#utility.yul\":21954:21995   */\n      tag_555\n        /* \"#utility.yul\":21989:21994   */\n      dup2\n        /* \"#utility.yul\":21954:21995   */\n      tag_309\n      jump\t// in\n    tag_555:\n        /* \"#utility.yul\":21846:22001   */\n      swap3\n      swap2\n      pop\n      pop\n      jump\t// out\n        /* \"#utility.yul\":22007:22352   */\n    tag_98:\n        /* \"#utility.yul\":22074:22080   */\n      0x00\n        /* \"#utility.yul\":22123:22125   */\n      0x20\n        /* \"#utility.yul\":22111:22120   */\n      dup3\n        /* \"#utility.yul\":22102:22109   */\n      dup5\n        /* \"#utility.yul\":22098:22121   */\n      sub\n        /* \"#utility.yul\":22094:22126   */\n      slt\n        /* \"#utility.yul\":22091:22210   */\n      iszero\n      tag_557\n      jumpi\n        /* \"#utility.yul\":22129:22208   */\n      tag_558\n      tag_276\n      jump\t// in\n    tag_558:\n        /* \"#utility.yul\":22091:22210   */\n    tag_557:\n        /* \"#utility.yul\":22249:22250   */\n      0x00\n        /* \"#utility.yul\":22274:22335   */\n      tag_559\n        /* \"#utility.yul\":22327:22334   */\n      dup5\n        /* \"#utility.yul\":22318:22324   */\n      dup3\n        /* \"#utility.yul\":22307:22316   */\n      dup6\n        /* \"#utility.yul\":22303:22325   */\n      add\n        /* \"#utility.yul\":22274:22335   */\n      tag_310\n      jump\t// in\n    tag_559:\n        /* \"#utility.yul\":22264:22335   */\n      swap2\n      pop\n        /* \"#utility.yul\":22220:22345   */\n      pop\n        /* \"#utility.yul\":22007:22352   */\n      swap3\n      swap2\n      pop\n      pop\n      jump\t// out\n        /* \"#utility.yul\":22358:22593   */\n    tag_311:\n        /* \"#utility.yul\":22498:22532   */\n      0x5365756c206c652070726f707269657461697265207065757420656666656374\n        /* \"#utility.yul\":22494:22495   */\n      0x00\n        /* \"#utility.yul\":22486:22492   */\n      dup3\n        /* \"#utility.yul\":22482:22496   */\n      add\n        /* \"#utility.yul\":22475:22533   */\n      mstore\n        /* \"#utility.yul\":22567:22585   */\n      0x75657220636574746520616374696f6e00000000000000000000000000000000\n        /* \"#utility.yul\":22562:22564   */\n      0x20\n        /* \"#utility.yul\":22554:22560   */\n      dup3\n        /* \"#utility.yul\":22550:22565   */\n      add\n        /* \"#utility.yul\":22543:22586   */\n      mstore\n        /* \"#utility.yul\":22358:22593   */\n      pop\n      jump\t// out\n        /* \"#utility.yul\":22599:22965   */\n    tag_312:\n        /* \"#utility.yul\":22741:22744   */\n      0x00\n        /* \"#utility.yul\":22762:22829   */\n      tag_562\n        /* \"#utility.yul\":22826:22828   */\n      0x30\n        /* \"#utility.yul\":22821:22824   */\n      dup4\n        /* \"#utility.yul\":22762:22829   */\n      tag_268\n      jump\t// in\n    tag_562:\n        /* \"#utility.yul\":22755:22829   */\n      swap2\n      pop\n        /* \"#utility.yul\":22838:22931   */\n      tag_563\n        /* \"#utility.yul\":22927:22930   */\n      dup3\n        /* \"#utility.yul\":22838:22931   */\n      tag_311\n      jump\t// in\n    tag_563:\n        /* \"#utility.yul\":22956:22958   */\n      0x40\n        /* \"#utility.yul\":22951:22954   */\n      dup3\n        /* \"#utility.yul\":22947:22959   */\n      add\n        /* \"#utility.yul\":22940:22959   */\n      swap1\n      pop\n        /* \"#utility.yul\":22599:22965   */\n      swap2\n      swap1\n      pop\n      jump\t// out\n        /* \"#utility.yul\":22971:23390   */\n    tag_103:\n        /* \"#utility.yul\":23137:23141   */\n      0x00\n        /* \"#utility.yul\":23175:23177   */\n      0x20\n        /* \"#utility.yul\":23164:23173   */\n      dup3\n        /* \"#utility.yul\":23160:23178   */\n      add\n        /* \"#utility.yul\":23152:23178   */\n      swap1\n      pop\n        /* \"#utility.yul\":23224:23233   */\n      dup2\n        /* \"#utility.yul\":23218:23222   */\n      dup2\n        /* \"#utility.yul\":23214:23234   */\n      sub\n        /* \"#utility.yul\":23210:23211   */\n      0x00\n        /* \"#utility.yul\":23199:23208   */\n      dup4\n        /* \"#utility.yul\":23195:23212   */\n      add\n        /* \"#utility.yul\":23188:23235   */\n      mstore\n        /* \"#utility.yul\":23252:23383   */\n      tag_565\n        /* \"#utility.yul\":23378:23382   */\n      dup2\n        /* \"#utility.yul\":23252:23383   */\n      tag_312\n      jump\t// in\n    tag_565:\n        /* \"#utility.yul\":23244:23383   */\n      swap1\n      pop\n        /* \"#utility.yul\":22971:23390   */\n      swap2\n      swap1\n      pop\n      jump\t// out\n        /* \"#utility.yul\":23396:23617   */\n    tag_313:\n        /* \"#utility.yul\":23536:23570   */\n      0x4c65206d6f6e74616e7420646f69742065747265207375706572696575722061\n        /* \"#utility.yul\":23532:23533   */\n      0x00\n        /* \"#utility.yul\":23524:23530   */\n      dup3\n        /* \"#utility.yul\":23520:23534   */\n      add\n        /* \"#utility.yul\":23513:23571   */\n      mstore\n        /* \"#utility.yul\":23605:23609   */\n      0x2030000000000000000000000000000000000000000000000000000000000000\n        /* \"#utility.yul\":23600:23602   */\n      0x20\n        /* \"#utility.yul\":23592:23598   */\n      dup3\n        /* \"#utility.yul\":23588:23603   */\n      add\n        /* \"#utility.yul\":23581:23610   */\n      mstore\n        /* \"#utility.yul\":23396:23617   */\n      pop\n      jump\t// out\n        /* \"#utility.yul\":23623:23989   */\n    tag_314:\n        /* \"#utility.yul\":23765:23768   */\n      0x00\n        /* \"#utility.yul\":23786:23853   */\n      tag_568\n        /* \"#utility.yul\":23850:23852   */\n      0x22\n        /* \"#utility.yul\":23845:23848   */\n      dup4\n        /* \"#utility.yul\":23786:23853   */\n      tag_268\n      jump\t// in\n    tag_568:\n        /* \"#utility.yul\":23779:23853   */\n      swap2\n      pop\n        /* \"#utility.yul\":23862:23955   */\n      tag_569\n        /* \"#utility.yul\":23951:23954   */\n      dup3\n        /* \"#utility.yul\":23862:23955   */\n      tag_313\n      jump\t// in\n    tag_569:\n        /* \"#utility.yul\":23980:23982   */\n      0x40\n        /* \"#utility.yul\":23975:23978   */\n      dup3\n        /* \"#utility.yul\":23971:23983   */\n      add\n        /* \"#utility.yul\":23964:23983   */\n      swap1\n      pop\n        /* \"#utility.yul\":23623:23989   */\n      swap2\n      swap1\n      pop\n      jump\t// out\n        /* \"#utility.yul\":23995:24414   */\n    tag_107:\n        /* \"#utility.yul\":24161:24165   */\n      0x00\n        /* \"#utility.yul\":24199:24201   */\n      0x20\n        /* \"#utility.yul\":24188:24197   */\n      dup3\n        /* \"#utility.yul\":24184:24202   */\n      add\n        /* \"#utility.yul\":24176:24202   */\n      swap1\n      pop\n        /* \"#utility.yul\":24248:24257   */\n      dup2\n        /* \"#utility.yul\":24242:24246   */\n      dup2\n        /* \"#utility.yul\":24238:24258   */\n      sub\n        /* \"#utility.yul\":24234:24235   */\n      0x00\n        /* \"#utility.yul\":24223:24232   */\n      dup4\n        /* \"#utility.yul\":24219:24236   */\n      add\n        /* \"#utility.yul\":24212:24259   */\n      mstore\n        /* \"#utility.yul\":24276:24407   */\n      tag_571\n        /* \"#utility.yul\":24402:24406   */\n      dup2\n        /* \"#utility.yul\":24276:24407   */\n      tag_314\n      jump\t// in\n    tag_571:\n        /* \"#utility.yul\":24268:24407   */\n      swap1\n      pop\n        /* \"#utility.yul\":23995:24414   */\n      swap2\n      swap1\n      pop\n      jump\t// out\n        /* \"#utility.yul\":24420:24587   */\n    tag_315:\n        /* \"#utility.yul\":24560:24579   */\n      0x536f6c646520696e737566666973616e74000000000000000000000000000000\n        /* \"#utility.yul\":24556:24557   */\n      0x00\n        /* \"#utility.yul\":24548:24554   */\n      dup3\n        /* \"#utility.yul\":24544:24558   */\n      add\n        /* \"#utility.yul\":24537:24580   */\n      mstore\n        /* \"#utility.yul\":24420:24587   */\n      pop\n      jump\t// out\n        /* \"#utility.yul\":24593:24959   */\n    tag_316:\n        /* \"#utility.yul\":24735:24738   */\n      0x00\n        /* \"#utility.yul\":24756:24823   */\n      tag_574\n        /* \"#utility.yul\":24820:24822   */\n      0x11\n        /* \"#utility.yul\":24815:24818   */\n      dup4\n        /* \"#utility.yul\":24756:24823   */\n      tag_268\n      jump\t// in\n    tag_574:\n        /* \"#utility.yul\":24749:24823   */\n      swap2\n      pop\n        /* \"#utility.yul\":24832:24925   */\n      tag_575\n        /* \"#utility.yul\":24921:24924   */\n      dup3\n        /* \"#utility.yul\":24832:24925   */\n      tag_315\n      jump\t// in\n    tag_575:\n        /* \"#utility.yul\":24950:24952   */\n      0x20\n        /* \"#utility.yul\":24945:24948   */\n      dup3\n        /* \"#utility.yul\":24941:24953   */\n      add\n        /* \"#utility.yul\":24934:24953   */\n      swap1\n      pop\n        /* \"#utility.yul\":24593:24959   */\n      swap2\n      swap1\n      pop\n      jump\t// out\n        /* \"#utility.yul\":24965:25384   */\n    tag_110:\n        /* \"#utility.yul\":25131:25135   */\n      0x00\n        /* \"#utility.yul\":25169:25171   */\n      0x20\n        /* \"#utility.yul\":25158:25167   */\n      dup3\n        /* \"#utility.yul\":25154:25172   */\n      add\n        /* \"#utility.yul\":25146:25172   */\n      swap1\n      pop\n        /* \"#utility.yul\":25218:25227   */\n      dup2\n        /* \"#utility.yul\":25212:25216   */\n      dup2\n        /* \"#utility.yul\":25208:25228   */\n      sub\n        /* \"#utility.yul\":25204:25205   */\n      0x00\n        /* \"#utility.yul\":25193:25202   */\n      dup4\n        /* \"#utility.yul\":25189:25206   */\n      add\n        /* \"#utility.yul\":25182:25229   */\n      mstore\n        /* \"#utility.yul\":25246:25377   */\n      tag_577\n        /* \"#utility.yul\":25372:25376   */\n      dup2\n        /* \"#utility.yul\":25246:25377   */\n      tag_316\n      jump\t// in\n    tag_577:\n        /* \"#utility.yul\":25238:25377   */\n      swap1\n      pop\n        /* \"#utility.yul\":24965:25384   */\n      swap2\n      swap1\n      pop\n      jump\t// out\n        /* \"#utility.yul\":25390:25537   */\n    tag_317:\n        /* \"#utility.yul\":25491:25502   */\n      0x00\n        /* \"#utility.yul\":25528:25531   */\n      dup2\n        /* \"#utility.yul\":25513:25531   */\n      swap1\n      pop\n        /* \"#utility.yul\":25390:25537   */\n      swap3\n      swap2\n      pop\n      pop\n      jump\t// out\n        /* \"#utility.yul\":25543:25657   */\n    tag_318:\n      pop\n      jump\t// out\n        /* \"#utility.yul\":25663:26061   */\n    tag_319:\n        /* \"#utility.yul\":25822:25825   */\n      0x00\n        /* \"#utility.yul\":25843:25926   */\n      tag_581\n        /* \"#utility.yul\":25924:25925   */\n      0x00\n        /* \"#utility.yul\":25919:25922   */\n      dup4\n        /* \"#utility.yul\":25843:25926   */\n      tag_317\n      jump\t// in\n    tag_581:\n        /* \"#utility.yul\":25836:25926   */\n      swap2\n      pop\n        /* \"#utility.yul\":25935:26028   */\n      tag_582\n        /* \"#utility.yul\":26024:26027   */\n      dup3\n        /* \"#utility.yul\":25935:26028   */\n      tag_318\n      jump\t// in\n    tag_582:\n        /* \"#utility.yul\":26053:26054   */\n      0x00\n        /* \"#utility.yul\":26048:26051   */\n      dup3\n        /* \"#utility.yul\":26044:26055   */\n      add\n        /* \"#utility.yul\":26037:26055   */\n      swap1\n      pop\n        /* \"#utility.yul\":25663:26061   */\n      swap2\n      swap1\n      pop\n      jump\t// out\n        /* \"#utility.yul\":26067:26446   */\n    tag_112:\n        /* \"#utility.yul\":26251:26254   */\n      0x00\n        /* \"#utility.yul\":26273:26420   */\n      tag_584\n        /* \"#utility.yul\":26416:26419   */\n      dup3\n        /* \"#utility.yul\":26273:26420   */\n      tag_319\n      jump\t// in\n    tag_584:\n        /* \"#utility.yul\":26266:26420   */\n      swap2\n      pop\n        /* \"#utility.yul\":26437:26440   */\n      dup2\n        /* \"#utility.yul\":26430:26440   */\n      swap1\n      pop\n        /* \"#utility.yul\":26067:26446   */\n      swap2\n      swap1\n      pop\n      jump\t// out\n        /* \"#utility.yul\":26452:26618   */\n    tag_320:\n        /* \"#utility.yul\":26592:26610   */\n      0x4563686563206475207265747261697400000000000000000000000000000000\n        /* \"#utility.yul\":26588:26589   */\n      0x00\n        /* \"#utility.yul\":26580:26586   */\n      dup3\n        /* \"#utility.yul\":26576:26590   */\n      add\n        /* \"#utility.yul\":26569:26611   */\n      mstore\n        /* \"#utility.yul\":26452:26618   */\n      pop\n      jump\t// out\n        /* \"#utility.yul\":26624:26990   */\n    tag_321:\n        /* \"#utility.yul\":26766:26769   */\n      0x00\n        /* \"#utility.yul\":26787:26854   */\n      tag_587\n        /* \"#utility.yul\":26851:26853   */\n      0x10\n        /* \"#utility.yul\":26846:26849   */\n      dup4\n        /* \"#utility.yul\":26787:26854   */\n      tag_268\n      jump\t// in\n    tag_587:\n        /* \"#utility.yul\":26780:26854   */\n      swap2\n      pop\n        /* \"#utility.yul\":26863:26956   */\n      tag_588\n        /* \"#utility.yul\":26952:26955   */\n      dup3\n        /* \"#utility.yul\":26863:26956   */\n      tag_320\n      jump\t// in\n    tag_588:\n        /* \"#utility.yul\":26981:26983   */\n      0x20\n        /* \"#utility.yul\":26976:26979   */\n      dup3\n        /* \"#utility.yul\":26972:26984   */\n      add\n        /* \"#utility.yul\":26965:26984   */\n      swap1\n      pop\n        /* \"#utility.yul\":26624:26990   */\n      swap2\n      swap1\n      pop\n      jump\t// out\n        /* \"#utility.yul\":26996:27415   */\n    tag_118:\n        /* \"#utility.yul\":27162:27166   */\n      0x00\n        /* \"#utility.yul\":27200:27202   */\n      0x20\n        /* \"#utility.yul\":27189:27198   */\n      dup3\n        /* \"#utility.yul\":27185:27203   */\n      add\n        /* \"#utility.yul\":27177:27203   */\n      swap1\n      pop\n        /* \"#utility.yul\":27249:27258   */\n      dup2\n        /* \"#utility.yul\":27243:27247   */\n      dup2\n        /* \"#utility.yul\":27239:27259   */\n      sub\n        /* \"#utility.yul\":27235:27236   */\n      0x00\n        /* \"#utility.yul\":27224:27233   */\n      dup4\n        /* \"#utility.yul\":27220:27237   */\n      add\n        /* \"#utility.yul\":27213:27260   */\n      mstore\n        /* \"#utility.yul\":27277:27408   */\n      tag_590\n        /* \"#utility.yul\":27403:27407   */\n      dup2\n        /* \"#utility.yul\":27277:27408   */\n      tag_321\n      jump\t// in\n    tag_590:\n        /* \"#utility.yul\":27269:27408   */\n      swap1\n      pop\n        /* \"#utility.yul\":26996:27415   */\n      swap2\n      swap1\n      pop\n      jump\t// out\n        /* \"#utility.yul\":27421:27615   */\n    tag_134:\n        /* \"#utility.yul\":27461:27465   */\n      0x00\n        /* \"#utility.yul\":27481:27501   */\n      tag_592\n        /* \"#utility.yul\":27499:27500   */\n      dup3\n        /* \"#utility.yul\":27481:27501   */\n      tag_254\n      jump\t// in\n    tag_592:\n        /* \"#utility.yul\":27476:27501   */\n      swap2\n      pop\n        /* \"#utility.yul\":27515:27535   */\n      tag_593\n        /* \"#utility.yul\":27533:27534   */\n      dup4\n        /* \"#utility.yul\":27515:27535   */\n      tag_254\n      jump\t// in\n    tag_593:\n        /* \"#utility.yul\":27510:27535   */\n      swap3\n      pop\n        /* \"#utility.yul\":27559:27560   */\n      dup3\n        /* \"#utility.yul\":27556:27557   */\n      dup3\n        /* \"#utility.yul\":27552:27561   */\n      sub\n        /* \"#utility.yul\":27544:27561   */\n      swap1\n      pop\n        /* \"#utility.yul\":27583:27584   */\n      dup2\n        /* \"#utility.yul\":27577:27581   */\n      dup2\n        /* \"#utility.yul\":27574:27585   */\n      gt\n        /* \"#utility.yul\":27571:27608   */\n      iszero\n      tag_594\n      jumpi\n        /* \"#utility.yul\":27588:27606   */\n      tag_595\n      tag_266\n      jump\t// in\n    tag_595:\n        /* \"#utility.yul\":27571:27608   */\n    tag_594:\n        /* \"#utility.yul\":27421:27615   */\n      swap3\n      swap2\n      pop\n      pop\n      jump\t// out\n        /* \"#utility.yul\":27621:27801   */\n    tag_138:\n        /* \"#utility.yul\":27669:27746   */\n      0x4e487b7100000000000000000000000000000000000000000000000000000000\n        /* \"#utility.yul\":27666:27667   */\n      0x00\n        /* \"#utility.yul\":27659:27747   */\n      mstore\n        /* \"#utility.yul\":27766:27770   */\n      0x32\n        /* \"#utility.yul\":27763:27764   */\n      0x04\n        /* \"#utility.yul\":27756:27771   */\n      mstore\n        /* \"#utility.yul\":27790:27794   */\n      0x24\n        /* \"#utility.yul\":27787:27788   */\n      0x00\n        /* \"#utility.yul\":27780:27795   */\n      revert\n        /* \"#utility.yul\":27807:27989   */\n    tag_322:\n        /* \"#utility.yul\":27947:27981   */\n      0x4c65206d6f6e74616e74206d696e696d756d2065737420302e30303120455448\n        /* \"#utility.yul\":27943:27944   */\n      0x00\n        /* \"#utility.yul\":27935:27941   */\n      dup3\n        /* \"#utility.yul\":27931:27945   */\n      add\n        /* \"#utility.yul\":27924:27982   */\n      mstore\n        /* \"#utility.yul\":27807:27989   */\n      pop\n      jump\t// out\n        /* \"#utility.yul\":27995:28361   */\n    tag_323:\n        /* \"#utility.yul\":28137:28140   */\n      0x00\n        /* \"#utility.yul\":28158:28225   */\n      tag_599\n        /* \"#utility.yul\":28222:28224   */\n      0x20\n        /* \"#utility.yul\":28217:28220   */\n      dup4\n        /* \"#utility.yul\":28158:28225   */\n      tag_268\n      jump\t// in\n    tag_599:\n        /* \"#utility.yul\":28151:28225   */\n      swap2\n      pop\n        /* \"#utility.yul\":28234:28327   */\n      tag_600\n        /* \"#utility.yul\":28323:28326   */\n      dup3\n        /* \"#utility.yul\":28234:28327   */\n      tag_322\n      jump\t// in\n    tag_600:\n        /* \"#utility.yul\":28352:28354   */\n      0x20\n        /* \"#utility.yul\":28347:28350   */\n      dup3\n        /* \"#utility.yul\":28343:28355   */\n      add\n        /* \"#utility.yul\":28336:28355   */\n      swap1\n      pop\n        /* \"#utility.yul\":27995:28361   */\n      swap2\n      swap1\n      pop\n      jump\t// out\n        /* \"#utility.yul\":28367:28786   */\n    tag_156:\n        /* \"#utility.yul\":28533:28537   */\n      0x00\n        /* \"#utility.yul\":28571:28573   */\n      0x20\n        /* \"#utility.yul\":28560:28569   */\n      dup3\n        /* \"#utility.yul\":28556:28574   */\n      add\n        /* \"#utility.yul\":28548:28574   */\n      swap1\n      pop\n        /* \"#utility.yul\":28620:28629   */\n      dup2\n        /* \"#utility.yul\":28614:28618   */\n      dup2\n        /* \"#utility.yul\":28610:28630   */\n      sub\n        /* \"#utility.yul\":28606:28607   */\n      0x00\n        /* \"#utility.yul\":28595:28604   */\n      dup4\n        /* \"#utility.yul\":28591:28608   */\n      add\n        /* \"#utility.yul\":28584:28631   */\n      mstore\n        /* \"#utility.yul\":28648:28779   */\n      tag_602\n        /* \"#utility.yul\":28774:28778   */\n      dup2\n        /* \"#utility.yul\":28648:28779   */\n      tag_323\n      jump\t// in\n    tag_602:\n        /* \"#utility.yul\":28640:28779   */\n      swap1\n      pop\n        /* \"#utility.yul\":28367:28786   */\n      swap2\n      swap1\n      pop\n      jump\t// out\n        /* \"#utility.yul\":28792:28970   */\n    tag_324:\n        /* \"#utility.yul\":28932:28962   */\n      0x4c65206e6f6d206e652070657574207061732065747265207669646500000000\n        /* \"#utility.yul\":28928:28929   */\n      0x00\n        /* \"#utility.yul\":28920:28926   */\n      dup3\n        /* \"#utility.yul\":28916:28930   */\n      add\n        /* \"#utility.yul\":28909:28963   */\n      mstore\n        /* \"#utility.yul\":28792:28970   */\n      pop\n      jump\t// out\n        /* \"#utility.yul\":28976:29342   */\n    tag_325:\n        /* \"#utility.yul\":29118:29121   */\n      0x00\n        /* \"#utility.yul\":29139:29206   */\n      tag_605\n        /* \"#utility.yul\":29203:29205   */\n      0x1c\n        /* \"#utility.yul\":29198:29201   */\n      dup4\n        /* \"#utility.yul\":29139:29206   */\n      tag_268\n      jump\t// in\n    tag_605:\n        /* \"#utility.yul\":29132:29206   */\n      swap2\n      pop\n        /* \"#utility.yul\":29215:29308   */\n      tag_606\n        /* \"#utility.yul\":29304:29307   */\n      dup3\n        /* \"#utility.yul\":29215:29308   */\n      tag_324\n      jump\t// in\n    tag_606:\n        /* \"#utility.yul\":29333:29335   */\n      0x20\n        /* \"#utility.yul\":29328:29331   */\n      dup3\n        /* \"#utility.yul\":29324:29336   */\n      add\n        /* \"#utility.yul\":29317:29336   */\n      swap1\n      pop\n        /* \"#utility.yul\":28976:29342   */\n      swap2\n      swap1\n      pop\n      jump\t// out\n        /* \"#utility.yul\":29348:29767   */\n    tag_160:\n        /* \"#utility.yul\":29514:29518   */\n      0x00\n        /* \"#utility.yul\":29552:29554   */\n      0x20\n        /* \"#utility.yul\":29541:29550   */\n      dup3\n        /* \"#utility.yul\":29537:29555   */\n      add\n        /* \"#utility.yul\":29529:29555   */\n      swap1\n      pop\n        /* \"#utility.yul\":29601:29610   */\n      dup2\n        /* \"#utility.yul\":29595:29599   */\n      dup2\n        /* \"#utility.yul\":29591:29611   */\n      sub\n        /* \"#utility.yul\":29587:29588   */\n      0x00\n        /* \"#utility.yul\":29576:29585   */\n      dup4\n        /* \"#utility.yul\":29572:29589   */\n      add\n        /* \"#utility.yul\":29565:29612   */\n      mstore\n        /* \"#utility.yul\":29629:29760   */\n      tag_608\n        /* \"#utility.yul\":29755:29759   */\n      dup2\n        /* \"#utility.yul\":29629:29760   */\n      tag_325\n      jump\t// in\n    tag_608:\n        /* \"#utility.yul\":29621:29760   */\n      swap1\n      pop\n        /* \"#utility.yul\":29348:29767   */\n      swap2\n      swap1\n      pop\n      jump\t// out\n        /* \"#utility.yul\":29773:30508   */\n    tag_166:\n        /* \"#utility.yul\":29990:29994   */\n      0x00\n        /* \"#utility.yul\":30028:30031   */\n      0x80\n        /* \"#utility.yul\":30017:30026   */\n      dup3\n        /* \"#utility.yul\":30013:30032   */\n      add\n        /* \"#utility.yul\":30005:30032   */\n      swap1\n      pop\n        /* \"#utility.yul\":30042:30113   */\n      tag_610\n        /* \"#utility.yul\":30110:30111   */\n      0x00\n        /* \"#utility.yul\":30099:30108   */\n      dup4\n        /* \"#utility.yul\":30095:30112   */\n      add\n        /* \"#utility.yul\":30086:30092   */\n      dup8\n        /* \"#utility.yul\":30042:30113   */\n      tag_267\n      jump\t// in\n    tag_610:\n        /* \"#utility.yul\":30160:30169   */\n      dup2\n        /* \"#utility.yul\":30154:30158   */\n      dup2\n        /* \"#utility.yul\":30150:30170   */\n      sub\n        /* \"#utility.yul\":30145:30147   */\n      0x20\n        /* \"#utility.yul\":30134:30143   */\n      dup4\n        /* \"#utility.yul\":30130:30148   */\n      add\n        /* \"#utility.yul\":30123:30171   */\n      mstore\n        /* \"#utility.yul\":30188:30266   */\n      tag_611\n        /* \"#utility.yul\":30261:30265   */\n      dup2\n        /* \"#utility.yul\":30252:30258   */\n      dup7\n        /* \"#utility.yul\":30188:30266   */\n      tag_308\n      jump\t// in\n    tag_611:\n        /* \"#utility.yul\":30180:30266   */\n      swap1\n      pop\n        /* \"#utility.yul\":30313:30322   */\n      dup2\n        /* \"#utility.yul\":30307:30311   */\n      dup2\n        /* \"#utility.yul\":30303:30323   */\n      sub\n        /* \"#utility.yul\":30298:30300   */\n      0x40\n        /* \"#utility.yul\":30287:30296   */\n      dup4\n        /* \"#utility.yul\":30283:30301   */\n      add\n        /* \"#utility.yul\":30276:30324   */\n      mstore\n        /* \"#utility.yul\":30341:30419   */\n      tag_612\n        /* \"#utility.yul\":30414:30418   */\n      dup2\n        /* \"#utility.yul\":30405:30411   */\n      dup6\n        /* \"#utility.yul\":30341:30419   */\n      tag_308\n      jump\t// in\n    tag_612:\n        /* \"#utility.yul\":30333:30419   */\n      swap1\n      pop\n        /* \"#utility.yul\":30429:30501   */\n      tag_613\n        /* \"#utility.yul\":30497:30499   */\n      0x60\n        /* \"#utility.yul\":30486:30495   */\n      dup4\n        /* \"#utility.yul\":30482:30500   */\n      add\n        /* \"#utility.yul\":30473:30479   */\n      dup5\n        /* \"#utility.yul\":30429:30501   */\n      tag_267\n      jump\t// in\n    tag_613:\n        /* \"#utility.yul\":29773:30508   */\n      swap6\n      swap5\n      pop\n      pop\n      pop\n      pop\n      pop\n      jump\t// out\n        /* \"#utility.yul\":30514:30740   */\n    tag_326:\n        /* \"#utility.yul\":30654:30688   */\n      0x566f757320706f7576657a206163686574657220656e74726520312065742031\n        /* \"#utility.yul\":30650:30651   */\n      0x00\n        /* \"#utility.yul\":30642:30648   */\n      dup3\n        /* \"#utility.yul\":30638:30652   */\n      add\n        /* \"#utility.yul\":30631:30689   */\n      mstore\n        /* \"#utility.yul\":30723:30732   */\n      0x3020636166657300000000000000000000000000000000000000000000000000\n        /* \"#utility.yul\":30718:30720   */\n      0x20\n        /* \"#utility.yul\":30710:30716   */\n      dup3\n        /* \"#utility.yul\":30706:30721   */\n      add\n        /* \"#utility.yul\":30699:30733   */\n      mstore\n        /* \"#utility.yul\":30514:30740   */\n      pop\n      jump\t// out\n        /* \"#utility.yul\":30746:31112   */\n    tag_327:\n        /* \"#utility.yul\":30888:30891   */\n      0x00\n        /* \"#utility.yul\":30909:30976   */\n      tag_616\n        /* \"#utility.yul\":30973:30975   */\n      0x27\n        /* \"#utility.yul\":30968:30971   */\n      dup4\n        /* \"#utility.yul\":30909:30976   */\n      tag_268\n      jump\t// in\n    tag_616:\n        /* \"#utility.yul\":30902:30976   */\n      swap2\n      pop\n        /* \"#utility.yul\":30985:31078   */\n      tag_617\n        /* \"#utility.yul\":31074:31077   */\n      dup3\n        /* \"#utility.yul\":30985:31078   */\n      tag_326\n      jump\t// in\n    tag_617:\n        /* \"#utility.yul\":31103:31105   */\n      0x40\n        /* \"#utility.yul\":31098:31101   */\n      dup3\n        /* \"#utility.yul\":31094:31106   */\n      add\n        /* \"#utility.yul\":31087:31106   */\n      swap1\n      pop\n        /* \"#utility.yul\":30746:31112   */\n      swap2\n      swap1\n      pop\n      jump\t// out\n        /* \"#utility.yul\":31118:31537   */\n    tag_171:\n        /* \"#utility.yul\":31284:31288   */\n      0x00\n        /* \"#utility.yul\":31322:31324   */\n      0x20\n        /* \"#utility.yul\":31311:31320   */\n      dup3\n        /* \"#utility.yul\":31307:31325   */\n      add\n        /* \"#utility.yul\":31299:31325   */\n      swap1\n      pop\n        /* \"#utility.yul\":31371:31380   */\n      dup2\n        /* \"#utility.yul\":31365:31369   */\n      dup2\n        /* \"#utility.yul\":31361:31381   */\n      sub\n        /* \"#utility.yul\":31357:31358   */\n      0x00\n        /* \"#utility.yul\":31346:31355   */\n      dup4\n        /* \"#utility.yul\":31342:31359   */\n      add\n        /* \"#utility.yul\":31335:31382   */\n      mstore\n        /* \"#utility.yul\":31399:31530   */\n      tag_619\n        /* \"#utility.yul\":31525:31529   */\n      dup2\n        /* \"#utility.yul\":31399:31530   */\n      tag_327\n      jump\t// in\n    tag_619:\n        /* \"#utility.yul\":31391:31530   */\n      swap1\n      pop\n        /* \"#utility.yul\":31118:31537   */\n      swap2\n      swap1\n      pop\n      jump\t// out\n        /* \"#utility.yul\":31543:31953   */\n    tag_173:\n        /* \"#utility.yul\":31583:31590   */\n      0x00\n        /* \"#utility.yul\":31606:31626   */\n      tag_621\n        /* \"#utility.yul\":31624:31625   */\n      dup3\n        /* \"#utility.yul\":31606:31626   */\n      tag_254\n      jump\t// in\n    tag_621:\n        /* \"#utility.yul\":31601:31626   */\n      swap2\n      pop\n        /* \"#utility.yul\":31640:31660   */\n      tag_622\n        /* \"#utility.yul\":31658:31659   */\n      dup4\n        /* \"#utility.yul\":31640:31660   */\n      tag_254\n      jump\t// in\n    tag_622:\n        /* \"#utility.yul\":31635:31660   */\n      swap3\n      pop\n        /* \"#utility.yul\":31695:31696   */\n      dup3\n        /* \"#utility.yul\":31692:31693   */\n      dup3\n        /* \"#utility.yul\":31688:31697   */\n      mul\n        /* \"#utility.yul\":31717:31747   */\n      tag_623\n        /* \"#utility.yul\":31735:31746   */\n      dup2\n        /* \"#utility.yul\":31717:31747   */\n      tag_254\n      jump\t// in\n    tag_623:\n        /* \"#utility.yul\":31706:31747   */\n      swap2\n      pop\n        /* \"#utility.yul\":31896:31897   */\n      dup3\n        /* \"#utility.yul\":31887:31894   */\n      dup3\n        /* \"#utility.yul\":31883:31898   */\n      div\n        /* \"#utility.yul\":31880:31881   */\n      dup5\n        /* \"#utility.yul\":31877:31899   */\n      eq\n        /* \"#utility.yul\":31857:31858   */\n      dup4\n        /* \"#utility.yul\":31850:31859   */\n      iszero\n        /* \"#utility.yul\":31830:31913   */\n      or\n        /* \"#utility.yul\":31807:31946   */\n      tag_624\n      jumpi\n        /* \"#utility.yul\":31926:31944   */\n      tag_625\n      tag_266\n      jump\t// in\n    tag_625:\n        /* \"#utility.yul\":31807:31946   */\n    tag_624:\n        /* \"#utility.yul\":31591:31953   */\n      pop\n        /* \"#utility.yul\":31543:31953   */\n      swap3\n      swap2\n      pop\n      pop\n      jump\t// out\n        /* \"#utility.yul\":31959:32189   */\n    tag_328:\n        /* \"#utility.yul\":32099:32133   */\n      0x4d6f6e74616e7420696e737566666973616e7420706f7572206c65206e6f6d62\n        /* \"#utility.yul\":32095:32096   */\n      0x00\n        /* \"#utility.yul\":32087:32093   */\n      dup3\n        /* \"#utility.yul\":32083:32097   */\n      add\n        /* \"#utility.yul\":32076:32134   */\n      mstore\n        /* \"#utility.yul\":32168:32181   */\n      0x7265206465206361666573000000000000000000000000000000000000000000\n        /* \"#utility.yul\":32163:32165   */\n      0x20\n        /* \"#utility.yul\":32155:32161   */\n      dup3\n        /* \"#utility.yul\":32151:32166   */\n      add\n        /* \"#utility.yul\":32144:32182   */\n      mstore\n        /* \"#utility.yul\":31959:32189   */\n      pop\n      jump\t// out\n        /* \"#utility.yul\":32195:32561   */\n    tag_329:\n        /* \"#utility.yul\":32337:32340   */\n      0x00\n        /* \"#utility.yul\":32358:32425   */\n      tag_628\n        /* \"#utility.yul\":32422:32424   */\n      0x2b\n        /* \"#utility.yul\":32417:32420   */\n      dup4\n        /* \"#utility.yul\":32358:32425   */\n      tag_268\n      jump\t// in\n    tag_628:\n        /* \"#utility.yul\":32351:32425   */\n      swap2\n      pop\n        /* \"#utility.yul\":32434:32527   */\n      tag_629\n        /* \"#utility.yul\":32523:32526   */\n      dup3\n        /* \"#utility.yul\":32434:32527   */\n      tag_328\n      jump\t// in\n    tag_629:\n        /* \"#utility.yul\":32552:32554   */\n      0x40\n        /* \"#utility.yul\":32547:32550   */\n      dup3\n        /* \"#utility.yul\":32543:32555   */\n      add\n        /* \"#utility.yul\":32536:32555   */\n      swap1\n      pop\n        /* \"#utility.yul\":32195:32561   */\n      swap2\n      swap1\n      pop\n      jump\t// out\n        /* \"#utility.yul\":32567:32986   */\n    tag_176:\n        /* \"#utility.yul\":32733:32737   */\n      0x00\n        /* \"#utility.yul\":32771:32773   */\n      0x20\n        /* \"#utility.yul\":32760:32769   */\n      dup3\n        /* \"#utility.yul\":32756:32774   */\n      add\n        /* \"#utility.yul\":32748:32774   */\n      swap1\n      pop\n        /* \"#utility.yul\":32820:32829   */\n      dup2\n        /* \"#utility.yul\":32814:32818   */\n      dup2\n        /* \"#utility.yul\":32810:32830   */\n      sub\n        /* \"#utility.yul\":32806:32807   */\n      0x00\n        /* \"#utility.yul\":32795:32804   */\n      dup4\n        /* \"#utility.yul\":32791:32808   */\n      add\n        /* \"#utility.yul\":32784:32831   */\n      mstore\n        /* \"#utility.yul\":32848:32979   */\n      tag_631\n        /* \"#utility.yul\":32974:32978   */\n      dup2\n        /* \"#utility.yul\":32848:32979   */\n      tag_329\n      jump\t// in\n    tag_631:\n        /* \"#utility.yul\":32840:32979   */\n      swap1\n      pop\n        /* \"#utility.yul\":32567:32986   */\n      swap2\n      swap1\n      pop\n      jump\t// out\n        /* \"#utility.yul\":32992:33172   */\n    tag_330:\n        /* \"#utility.yul\":33040:33117   */\n      0x4e487b7100000000000000000000000000000000000000000000000000000000\n        /* \"#utility.yul\":33037:33038   */\n      0x00\n        /* \"#utility.yul\":33030:33118   */\n      mstore\n        /* \"#utility.yul\":33137:33141   */\n      0x12\n        /* \"#utility.yul\":33134:33135   */\n      0x04\n        /* \"#utility.yul\":33127:33142   */\n      mstore\n        /* \"#utility.yul\":33161:33165   */\n      0x24\n        /* \"#utility.yul\":33158:33159   */\n      0x00\n        /* \"#utility.yul\":33151:33166   */\n      revert\n        /* \"#utility.yul\":33178:33363   */\n    tag_180:\n        /* \"#utility.yul\":33218:33219   */\n      0x00\n        /* \"#utility.yul\":33235:33255   */\n      tag_634\n        /* \"#utility.yul\":33253:33254   */\n      dup3\n        /* \"#utility.yul\":33235:33255   */\n      tag_254\n      jump\t// in\n    tag_634:\n        /* \"#utility.yul\":33230:33255   */\n      swap2\n      pop\n        /* \"#utility.yul\":33269:33289   */\n      tag_635\n        /* \"#utility.yul\":33287:33288   */\n      dup4\n        /* \"#utility.yul\":33269:33289   */\n      tag_254\n      jump\t// in\n    tag_635:\n        /* \"#utility.yul\":33264:33289   */\n      swap3\n      pop\n        /* \"#utility.yul\":33308:33309   */\n      dup3\n        /* \"#utility.yul\":33298:33333   */\n      tag_636\n      jumpi\n        /* \"#utility.yul\":33313:33331   */\n      tag_637\n      tag_330\n      jump\t// in\n    tag_637:\n        /* \"#utility.yul\":33298:33333   */\n    tag_636:\n        /* \"#utility.yul\":33355:33356   */\n      dup3\n        /* \"#utility.yul\":33352:33353   */\n      dup3\n        /* \"#utility.yul\":33348:33357   */\n      div\n        /* \"#utility.yul\":33343:33357   */\n      swap1\n      pop\n        /* \"#utility.yul\":33178:33363   */\n      swap3\n      swap2\n      pop\n      pop\n      jump\t// out\n        /* \"#utility.yul\":33369:33540   */\n    tag_331:\n        /* \"#utility.yul\":33509:33532   */\n      0x417563756e20666f6e6473206120726574697265720000000000000000000000\n        /* \"#utility.yul\":33505:33506   */\n      0x00\n        /* \"#utility.yul\":33497:33503   */\n      dup3\n        /* \"#utility.yul\":33493:33507   */\n      add\n        /* \"#utility.yul\":33486:33533   */\n      mstore\n        /* \"#utility.yul\":33369:33540   */\n      pop\n      jump\t// out\n        /* \"#utility.yul\":33546:33912   */\n    tag_332:\n        /* \"#utility.yul\":33688:33691   */\n      0x00\n        /* \"#utility.yul\":33709:33776   */\n      tag_640\n        /* \"#utility.yul\":33773:33775   */\n      0x15\n        /* \"#utility.yul\":33768:33771   */\n      dup4\n        /* \"#utility.yul\":33709:33776   */\n      tag_268\n      jump\t// in\n    tag_640:\n        /* \"#utility.yul\":33702:33776   */\n      swap2\n      pop\n        /* \"#utility.yul\":33785:33878   */\n      tag_641\n        /* \"#utility.yul\":33874:33877   */\n      dup3\n        /* \"#utility.yul\":33785:33878   */\n      tag_331\n      jump\t// in\n    tag_641:\n        /* \"#utility.yul\":33903:33905   */\n      0x20\n        /* \"#utility.yul\":33898:33901   */\n      dup3\n        /* \"#utility.yul\":33894:33906   */\n      add\n        /* \"#utility.yul\":33887:33906   */\n      swap1\n      pop\n        /* \"#utility.yul\":33546:33912   */\n      swap2\n      swap1\n      pop\n      jump\t// out\n        /* \"#utility.yul\":33918:34337   */\n    tag_195:\n        /* \"#utility.yul\":34084:34088   */\n      0x00\n        /* \"#utility.yul\":34122:34124   */\n      0x20\n        /* \"#utility.yul\":34111:34120   */\n      dup3\n        /* \"#utility.yul\":34107:34125   */\n      add\n        /* \"#utility.yul\":34099:34125   */\n      swap1\n      pop\n        /* \"#utility.yul\":34171:34180   */\n      dup2\n        /* \"#utility.yul\":34165:34169   */\n      dup2\n        /* \"#utility.yul\":34161:34181   */\n      sub\n        /* \"#utility.yul\":34157:34158   */\n      0x00\n        /* \"#utility.yul\":34146:34155   */\n      dup4\n        /* \"#utility.yul\":34142:34159   */\n      add\n        /* \"#utility.yul\":34135:34182   */\n      mstore\n        /* \"#utility.yul\":34199:34330   */\n      tag_643\n        /* \"#utility.yul\":34325:34329   */\n      dup2\n        /* \"#utility.yul\":34199:34330   */\n      tag_332\n      jump\t// in\n    tag_643:\n        /* \"#utility.yul\":34191:34330   */\n      swap1\n      pop\n        /* \"#utility.yul\":33918:34337   */\n      swap2\n      swap1\n      pop\n      jump\t// out\n        /* \"#utility.yul\":34343:34576   */\n    tag_240:\n        /* \"#utility.yul\":34382:34385   */\n      0x00\n        /* \"#utility.yul\":34405:34429   */\n      tag_645\n        /* \"#utility.yul\":34423:34428   */\n      dup3\n        /* \"#utility.yul\":34405:34429   */\n      tag_254\n      jump\t// in\n    tag_645:\n        /* \"#utility.yul\":34396:34429   */\n      swap2\n      pop\n        /* \"#utility.yul\":34451:34517   */\n      0xffffffffffffffffffffffffffffffffffffffffffffffffffffffffffffffff\n        /* \"#utility.yul\":34444:34449   */\n      dup3\n        /* \"#utility.yul\":34441:34518   */\n      sub\n        /* \"#utility.yul\":34438:34541   */\n      tag_646\n      jumpi\n        /* \"#utility.yul\":34521:34539   */\n      tag_647\n      tag_266\n      jump\t// in\n    tag_647:\n        /* \"#utility.yul\":34438:34541   */\n    tag_646:\n        /* \"#utility.yul\":34568:34569   */\n      0x01\n        /* \"#utility.yul\":34561:34566   */\n      dup3\n        /* \"#utility.yul\":34557:34570   */\n      add\n        /* \"#utility.yul\":34550:34570   */\n      swap1\n      pop\n        /* \"#utility.yul\":34343:34576   */\n      swap2\n      swap1\n      pop\n      jump\t// out\n        /* \"#utility.yul\":34582:34757   */\n    tag_333:\n        /* \"#utility.yul\":34722:34749   */\n      0x4e6f7576656c6c65206164726573736520696e76616c69646500000000000000\n        /* \"#utility.yul\":34718:34719   */\n      0x00\n        /* \"#utility.yul\":34710:34716   */\n      dup3\n        /* \"#utility.yul\":34706:34720   */\n      add\n        /* \"#utility.yul\":34699:34750   */\n      mstore\n        /* \"#utility.yul\":34582:34757   */\n      pop\n      jump\t// out\n        /* \"#utility.yul\":34763:35129   */\n    tag_334:\n        /* \"#utility.yul\":34905:34908   */\n      0x00\n        /* \"#utility.yul\":34926:34993   */\n      tag_650\n        /* \"#utility.yul\":34990:34992   */\n      0x19\n        /* \"#utility.yul\":34985:34988   */\n      dup4\n        /* \"#utility.yul\":34926:34993   */\n      tag_268\n      jump\t// in\n    tag_650:\n        /* \"#utility.yul\":34919:34993   */\n      swap2\n      pop\n        /* \"#utility.yul\":35002:35095   */\n      tag_651\n        /* \"#utility.yul\":35091:35094   */\n      dup3\n        /* \"#utility.yul\":35002:35095   */\n      tag_333\n      jump\t// in\n    tag_651:\n        /* \"#utility.yul\":35120:35122   */\n      0x20\n        /* \"#utility.yul\":35115:35118   */\n      dup3\n        /* \"#utility.yul\":35111:35123   */\n      add\n        /* \"#utility.yul\":35104:35123   */\n      swap1\n      pop\n        /* \"#utility.yul\":34763:35129   */\n      swap2\n      swap1\n      pop\n      jump\t// out\n        /* \"#utility.yul\":35135:35554   */\n    tag_247:\n        /* \"#utility.yul\":35301:35305   */\n      0x00\n        /* \"#utility.yul\":35339:35341   */\n      0x20\n        /* \"#utility.yul\":35328:35337   */\n      dup3\n        /* \"#utility.yul\":35324:35342   */\n      add\n        /* \"#utility.yul\":35316:35342   */\n      swap1\n      pop\n        /* \"#utility.yul\":35388:35397   */\n      dup2\n        /* \"#utility.yul\":35382:35386   */\n      dup2\n        /* \"#utility.yul\":35378:35398   */\n      sub\n        /* \"#utility.yul\":35374:35375   */\n      0x00\n        /* \"#utility.yul\":35363:35372   */\n      dup4\n        /* \"#utility.yul\":35359:35376   */\n      add\n        /* \"#utility.yul\":35352:35399   */\n      mstore\n        /* \"#utility.yul\":35416:35547   */\n      tag_653\n        /* \"#utility.yul\":35542:35546   */\n      dup2\n        /* \"#utility.yul\":35416:35547   */\n      tag_334\n      jump\t// in\n    tag_653:\n        /* \"#utility.yul\":35408:35547   */\n      swap1\n      pop\n        /* \"#utility.yul\":35135:35554   */\n      swap2\n      swap1\n      pop\n      jump\t// out\n\n    auxdata: 0xa26469706673582212205a4b35bcda472695443c09e796d53c0dedfee239f36701c3909d98951ff1e5e064736f6c634300081e0033\n}\n",
				"bytecode": {
					"linkReferences": {},
					"object": "6080604052348015600e575f5ffd5b50335f5f6101000a81548173ffffffffffffffffffffffffffffffffffffffff021916908373ffffffffffffffffffffffffffffffffffffffff1602179055506128ec8061005b5f395ff3fe6080604052600436106100e0575f3560e01c80636f9fb98a1161007e578063aa58670411610058578063aa5867041461049e578063b02eafb1146104de578063c8eb0c8814610508578063f2fde38b14610545576102df565b80636f9fb98a1461040e5780637b4424b8146104385780638da5cb5b14610474576102df565b80632c490cc7116100ba5780632c490cc7146103885780633aaa74b2146103a45780635b0c306d146103ba5780635cbee4ef146103e4576102df565b80631211540c1461031a5780631e6178cc14610342578063204206e11461036c576102df565b366102df5760016040518060a001604052803373ffffffffffffffffffffffffffffffffffffffff1681526020014281526020016040518060400160405280601081526020017f446f6e617465757220616e6f6e796d650000000000000000000000000000000081525081526020016040518060400160405280600a81526020017f446f6e2064697265637400000000000000000000000000000000000000000000815250815260200134815250908060018154018082558091505060019003905f5260205f2090600502015f909190919091505f820151815f015f6101000a81548173ffffffffffffffffffffffffffffffffffffffff021916908373ffffffffffffffffffffffffffffffffffffffff160217905550602082015181600101556040820151816002019081610217919061196b565b50606082015181600301908161022d919061196b565b506080820151816004015550503460025f3373ffffffffffffffffffffffffffffffffffffffff1673ffffffffffffffffffffffffffffffffffffffff1681526020019081526020015f205f8282546102869190611a67565b925050819055503373ffffffffffffffffffffffffffffffffffffffff167f0b977a663808728b1d9d73abc7d6c74f3c354f5c726e6812e767b783e14d198342346040516102d5929190611b4d565b60405180910390a2005b6040517f08c379a000000000000000000000000000000000000000000000000000000000815260040161031190611be4565b60405180910390fd5b348015610325575f5ffd5b50610340600480360381019061033b9190611c3d565b61056d565b005b34801561034d575f5ffd5b506103566107bc565b6040516103639190611e51565b60405180910390f35b61038660048036038101906103819190611f70565b610a3e565b005b6103a2600480360381019061039d9190611fe6565b610c61565b005b3480156103af575f5ffd5b506103b8610f0a565b005b3480156103c5575f5ffd5b506103ce61111a565b6040516103db9190611e51565b60405180910390f35b3480156103ef575f5ffd5b506103f86112fe565b604051610405919061206e565b60405180910390f35b348015610419575f5ffd5b50610422611309565b60405161042f919061206e565b60405180910390f35b348015610443575f5ffd5b5061045e600480360381019061045991906120b1565b611310565b60405161046b919061206e565b60405180910390f35b34801561047f575f5ffd5b50610488611325565b60405161049591906120fc565b60405180910390f35b3480156104a9575f5ffd5b506104c460048036038101906104bf9190611c3d565b611349565b6040516104d595949392919061215c565b60405180910390f35b3480156104e9575f5ffd5b506104f26114b5565b6040516104ff919061206e565b60405180910390f35b348015610513575f5ffd5b5061052e600480360381019061052991906120b1565b6114c1565b60405161053c9291906121bb565b60405180910390f35b348015610550575f5ffd5b5061056b6004803603810190610566919061220c565b6115ae565b005b5f5f9054906101000a900473ffffffffffffffffffffffffffffffffffffffff1673ffffffffffffffffffffffffffffffffffffffff163373ffffffffffffffffffffffffffffffffffffffff16146105fb576040517f08c379a00000000000000000000000000000000000000000000000000000000081526004016105f2906122a7565b60405180910390fd5b5f811161063d576040517f08c379a000000000000000000000000000000000000000000000000000000000815260040161063490612335565b60405180910390fd5b80471015610680576040517f08c379a00000000000000000000000000000000000000000000000000000000081526004016106779061239d565b60405180910390fd5b5f5f5f9054906101000a900473ffffffffffffffffffffffffffffffffffffffff1673ffffffffffffffffffffffffffffffffffffffff16826040516106c5906123e8565b5f6040518083038185875af1925050503d805f81146106ff576040519150601f19603f3d011682016040523d82523d5f602084013e610704565b606091505b5050905080610748576040517f08c379a000000000000000000000000000000000000000000000000000000000815260040161073f90612446565b60405180910390fd5b5f5f9054906101000a900473ffffffffffffffffffffffffffffffffffffffff1673ffffffffffffffffffffffffffffffffffffffff167ffb59733a8f0bd43414922fb86c6ffdd090e44935074086318980ca89221acc5683426040516107b09291906121bb565b60405180910390a25050565b60605f60018054905090505f600a82116107d657816107d9565b600a5b90505f8167ffffffffffffffff8111156107f6576107f5611738565b5b60405190808252806020026020018201604052801561082f57816020015b61081c6116ec565b8152602001906001900390816108145790505b5090505f5f90505b82811015610a345760018160018661084f9190612464565b6108599190612464565b8154811061086a57610869612497565b5b905f5260205f2090600502016040518060a00160405290815f82015f9054906101000a900473ffffffffffffffffffffffffffffffffffffffff1673ffffffffffffffffffffffffffffffffffffffff1673ffffffffffffffffffffffffffffffffffffffff168152602001600182015481526020016002820180546108ef90611792565b80601f016020809104026020016040519081016040528092919081815260200182805461091b90611792565b80156109665780601f1061093d57610100808354040283529160200191610966565b820191905f5260205f20905b81548152906001019060200180831161094957829003601f168201915b5050505050815260200160038201805461097f90611792565b80601f01602080910402602001604051908101604052809291908181526020018280546109ab90611792565b80156109f65780601f106109cd576101008083540402835291602001916109f6565b820191905f5260205f20905b8154815290600101906020018083116109d957829003601f168201915b50505050508152602001600482015481525050828281518110610a1c57610a1b612497565b5b60200260200101819052508080600101915050610837565b5080935050505090565b66038d7ea4c68000341015610a88576040517f08c379a0000000000000000000000000000000000000000000000000000000008152600401610a7f9061250e565b60405180910390fd5b5f825111610acb576040517f08c379a0000000000000000000000000000000000000000000000000000000008152600401610ac290612576565b60405180910390fd5b60016040518060a001604052803373ffffffffffffffffffffffffffffffffffffffff16815260200142815260200184815260200183815260200134815250908060018154018082558091505060019003905f5260205f2090600502015f909190919091505f820151815f015f6101000a81548173ffffffffffffffffffffffffffffffffffffffff021916908373ffffffffffffffffffffffffffffffffffffffff160217905550602082015181600101556040820151816002019081610b93919061196b565b506060820151816003019081610ba9919061196b565b506080820151816004015550503460025f3373ffffffffffffffffffffffffffffffffffffffff1673ffffffffffffffffffffffffffffffffffffffff1681526020019081526020015f205f828254610c029190611a67565b925050819055503373ffffffffffffffffffffffffffffffffffffffff167f0b977a663808728b1d9d73abc7d6c74f3c354f5c726e6812e767b783e14d198342848434604051610c559493929190612594565b60405180910390a25050565b5f81118015610c715750600a8111155b610cb0576040517f08c379a0000000000000000000000000000000000000000000000000000000008152600401610ca790612655565b60405180910390fd5b8066038d7ea4c68000610cc39190612673565b341015610d05576040517f08c379a0000000000000000000000000000000000000000000000000000000008152600401610cfc90612724565b60405180910390fd5b5f835111610d48576040517f08c379a0000000000000000000000000000000000000000000000000000000008152600401610d3f90612576565b60405180910390fd5b5f8134610d55919061276f565b90505f5f90505b82811015610eb05760016040518060a001604052803373ffffffffffffffffffffffffffffffffffffffff16815260200142815260200187815260200186815260200184815250908060018154018082558091505060019003905f5260205f2090600502015f909190919091505f820151815f015f6101000a81548173ffffffffffffffffffffffffffffffffffffffff021916908373ffffffffffffffffffffffffffffffffffffffff160217905550602082015181600101556040820151816002019081610e2c919061196b565b506060820151816003019081610e42919061196b565b506080820151816004015550503373ffffffffffffffffffffffffffffffffffffffff167f0b977a663808728b1d9d73abc7d6c74f3c354f5c726e6812e767b783e14d198342878786604051610e9b9493929190612594565b60405180910390a28080600101915050610d5c565b503460025f3373ffffffffffffffffffffffffffffffffffffffff1673ffffffffffffffffffffffffffffffffffffffff1681526020019081526020015f205f828254610efd9190611a67565b9250508190555050505050565b5f5f9054906101000a900473ffffffffffffffffffffffffffffffffffffffff1673ffffffffffffffffffffffffffffffffffffffff163373ffffffffffffffffffffffffffffffffffffffff1614610f98576040517f08c379a0000000000000000000000000000000000000000000000000000000008152600401610f8f906122a7565b60405180910390fd5b5f4790505f8111610fde576040517f08c379a0000000000000000000000000000000000000000000000000000000008152600401610fd5906127e9565b60405180910390fd5b5f5f5f9054906101000a900473ffffffffffffffffffffffffffffffffffffffff1673ffffffffffffffffffffffffffffffffffffffff1682604051611023906123e8565b5f6040518083038185875af1925050503d805f811461105d576040519150601f19603f3d011682016040523d82523d5f602084013e611062565b606091505b50509050806110a6576040517f08c379a000000000000000000000000000000000000000000000000000000000815260040161109d90612446565b60405180910390fd5b5f5f9054906101000a900473ffffffffffffffffffffffffffffffffffffffff1673ffffffffffffffffffffffffffffffffffffffff167ffb59733a8f0bd43414922fb86c6ffdd090e44935074086318980ca89221acc56834260405161110e9291906121bb565b60405180910390a25050565b60606001805480602002602001604051908101604052809291908181526020015f905b828210156112f5578382905f5260205f2090600502016040518060a00160405290815f82015f9054906101000a900473ffffffffffffffffffffffffffffffffffffffff1673ffffffffffffffffffffffffffffffffffffffff1673ffffffffffffffffffffffffffffffffffffffff168152602001600182015481526020016002820180546111cc90611792565b80601f01602080910402602001604051908101604052809291908181526020018280546111f890611792565b80156112435780601f1061121a57610100808354040283529160200191611243565b820191905f5260205f20905b81548152906001019060200180831161122657829003601f168201915b5050505050815260200160038201805461125c90611792565b80601f016020809104026020016040519081016040528092919081815260200182805461128890611792565b80156112d35780601f106112aa576101008083540402835291602001916112d3565b820191905f5260205f20905b8154815290600101906020018083116112b657829003601f168201915b505050505081526020016004820154815250508152602001906001019061113d565b50505050905090565b66038d7ea4c6800081565b5f47905090565b6002602052805f5260405f205f915090505481565b5f5f9054906101000a900473ffffffffffffffffffffffffffffffffffffffff1681565b60018181548110611358575f80fd5b905f5260205f2090600502015f91509050805f015f9054906101000a900473ffffffffffffffffffffffffffffffffffffffff16908060010154908060020180546113a290611792565b80601f01602080910402602001604051908101604052809291908181526020018280546113ce90611792565b80156114195780601f106113f057610100808354040283529160200191611419565b820191905f5260205f20905b8154815290600101906020018083116113fc57829003601f168201915b50505050509080600301805461142e90611792565b80601f016020809104026020016040519081016040528092919081815260200182805461145a90611792565b80156114a55780601f1061147c576101008083540402835291602001916114a5565b820191905f5260205f20905b81548152906001019060200180831161148857829003601f168201915b5050505050908060040154905085565b5f600180549050905090565b5f5f60025f8473ffffffffffffffffffffffffffffffffffffffff1673ffffffffffffffffffffffffffffffffffffffff1681526020019081526020015f205491505f90505f5f90505b6001805490508110156115a8578373ffffffffffffffffffffffffffffffffffffffff166001828154811061154357611542612497565b5b905f5260205f2090600502015f015f9054906101000a900473ffffffffffffffffffffffffffffffffffffffff1673ffffffffffffffffffffffffffffffffffffffff160361159b57818061159790612807565b9250505b808060010191505061150b565b50915091565b5f5f9054906101000a900473ffffffffffffffffffffffffffffffffffffffff1673ffffffffffffffffffffffffffffffffffffffff163373ffffffffffffffffffffffffffffffffffffffff161461163c576040517f08c379a0000000000000000000000000000000000000000000000000000000008152600401611633906122a7565b60405180910390fd5b5f73ffffffffffffffffffffffffffffffffffffffff168173ffffffffffffffffffffffffffffffffffffffff16036116aa576040517f08c379a00000000000000000000000000000000000000000000000000000000081526004016116a190612898565b60405180910390fd5b805f5f6101000a81548173ffffffffffffffffffffffffffffffffffffffff021916908373ffffffffffffffffffffffffffffffffffffffff16021790555050565b6040518060a001604052805f73ffffffffffffffffffffffffffffffffffffffff1681526020015f815260200160608152602001606081526020015f81525090565b5f81519050919050565b7f4e487b71000000000000000000000000000000000000000000000000000000005f52604160045260245ffd5b7f4e487b71000000000000000000000000000000000000000000000000000000005f52602260045260245ffd5b5f60028204905060018216806117a957607f821691505b6020821081036117bc576117bb611765565b5b50919050565b5f819050815f5260205f209050919050565b5f6020601f8301049050919050565b5f82821b905092915050565b5f6008830261181e7fffffffffffffffffffffffffffffffffffffffffffffffffffffffffffffffff826117e3565b61182886836117e3565b95508019841693508086168417925050509392505050565b5f819050919050565b5f819050919050565b5f61186c61186761186284611840565b611849565b611840565b9050919050565b5f819050919050565b61188583611852565b61189961189182611873565b8484546117ef565b825550505050565b5f5f905090565b6118b06118a1565b6118bb81848461187c565b505050565b5b818110156118de576118d35f826118a8565b6001810190506118c1565b5050565b601f821115611923576118f4816117c2565b6118fd846117d4565b8101602085101561190c578190505b611920611918856117d4565b8301826118c0565b50505b505050565b5f82821c905092915050565b5f6119435f1984600802611928565b1980831691505092915050565b5f61195b8383611934565b9150826002028217905092915050565b6119748261172e565b67ffffffffffffffff81111561198d5761198c611738565b5b6119978254611792565b6119a28282856118e2565b5f60209050601f8311600181146119d3575f84156119c1578287015190505b6119cb8582611950565b865550611a32565b601f1984166119e1866117c2565b5f5b82811015611a08578489015182556001820191506020850194506020810190506119e3565b86831015611a255784890151611a21601f891682611934565b8355505b6001600288020188555050505b505050505050565b7f4e487b71000000000000000000000000000000000000000000000000000000005f52601160045260245ffd5b5f611a7182611840565b9150611a7c83611840565b9250828201905080821115611a9457611a93611a3a565b5b92915050565b611aa381611840565b82525050565b5f82825260208201905092915050565b7f446f6e617465757220616e6f6e796d65000000000000000000000000000000005f82015250565b5f611aed601083611aa9565b9150611af882611ab9565b602082019050919050565b7f446f6e20646972656374000000000000000000000000000000000000000000005f82015250565b5f611b37600a83611aa9565b9150611b4282611b03565b602082019050919050565b5f608082019050611b605f830185611a9a565b8181036020830152611b7181611ae1565b90508181036040830152611b8481611b2b565b9050611b936060830184611a9a565b9392505050565b7f466f6e6374696f6e206e6f6e207265636f6e6e756500000000000000000000005f82015250565b5f611bce601583611aa9565b9150611bd982611b9a565b602082019050919050565b5f6020820190508181035f830152611bfb81611bc2565b9050919050565b5f604051905090565b5f5ffd5b5f5ffd5b611c1c81611840565b8114611c26575f5ffd5b50565b5f81359050611c3781611c13565b92915050565b5f60208284031215611c5257611c51611c0b565b5b5f611c5f84828501611c29565b91505092915050565b5f81519050919050565b5f82825260208201905092915050565b5f819050602082019050919050565b5f73ffffffffffffffffffffffffffffffffffffffff82169050919050565b5f611cba82611c91565b9050919050565b611cca81611cb0565b82525050565b611cd981611840565b82525050565b5f82825260208201905092915050565b8281835e5f83830152505050565b5f601f19601f8301169050919050565b5f611d178261172e565b611d218185611cdf565b9350611d31818560208601611cef565b611d3a81611cfd565b840191505092915050565b5f60a083015f830151611d5a5f860182611cc1565b506020830151611d6d6020860182611cd0565b5060408301518482036040860152611d858282611d0d565b91505060608301518482036060860152611d9f8282611d0d565b9150506080830151611db46080860182611cd0565b508091505092915050565b5f611dca8383611d45565b905092915050565b5f602082019050919050565b5f611de882611c68565b611df28185611c72565b935083602082028501611e0485611c82565b805f5b85811015611e3f5784840389528151611e208582611dbf565b9450611e2b83611dd2565b925060208a01995050600181019050611e07565b50829750879550505050505092915050565b5f6020820190508181035f830152611e698184611dde565b905092915050565b5f5ffd5b5f5ffd5b611e8282611cfd565b810181811067ffffffffffffffff82111715611ea157611ea0611738565b5b80604052505050565b5f611eb3611c02565b9050611ebf8282611e79565b919050565b5f67ffffffffffffffff821115611ede57611edd611738565b5b611ee782611cfd565b9050602081019050919050565b828183375f83830152505050565b5f611f14611f0f84611ec4565b611eaa565b905082815260208101848484011115611f3057611f2f611e75565b5b611f3b848285611ef4565b509392505050565b5f82601f830112611f5757611f56611e71565b5b8135611f67848260208601611f02565b91505092915050565b5f5f60408385031215611f8657611f85611c0b565b5b5f83013567ffffffffffffffff811115611fa357611fa2611c0f565b5b611faf85828601611f43565b925050602083013567ffffffffffffffff811115611fd057611fcf611c0f565b5b611fdc85828601611f43565b9150509250929050565b5f5f5f60608486031215611ffd57611ffc611c0b565b5b5f84013567ffffffffffffffff81111561201a57612019611c0f565b5b61202686828701611f43565b935050602084013567ffffffffffffffff81111561204757612046611c0f565b5b61205386828701611f43565b925050604061206486828701611c29565b9150509250925092565b5f6020820190506120815f830184611a9a565b92915050565b61209081611cb0565b811461209a575f5ffd5b50565b5f813590506120ab81612087565b92915050565b5f602082840312156120c6576120c5611c0b565b5b5f6120d38482850161209d565b91505092915050565b5f6120e682611c91565b9050919050565b6120f6816120dc565b82525050565b5f60208201905061210f5f8301846120ed565b92915050565b61211e81611cb0565b82525050565b5f61212e8261172e565b6121388185611aa9565b9350612148818560208601611cef565b61215181611cfd565b840191505092915050565b5f60a08201905061216f5f830188612115565b61217c6020830187611a9a565b818103604083015261218e8186612124565b905081810360608301526121a28185612124565b90506121b16080830184611a9a565b9695505050505050565b5f6040820190506121ce5f830185611a9a565b6121db6020830184611a9a565b9392505050565b6121eb816120dc565b81146121f5575f5ffd5b50565b5f81359050612206816121e2565b92915050565b5f6020828403121561222157612220611c0b565b5b5f61222e848285016121f8565b91505092915050565b7f5365756c206c652070726f7072696574616972652070657574206566666563745f8201527f75657220636574746520616374696f6e00000000000000000000000000000000602082015250565b5f612291603083611aa9565b915061229c82612237565b604082019050919050565b5f6020820190508181035f8301526122be81612285565b9050919050565b7f4c65206d6f6e74616e7420646f697420657472652073757065726965757220615f8201527f2030000000000000000000000000000000000000000000000000000000000000602082015250565b5f61231f602283611aa9565b915061232a826122c5565b604082019050919050565b5f6020820190508181035f83015261234c81612313565b9050919050565b7f536f6c646520696e737566666973616e740000000000000000000000000000005f82015250565b5f612387601183611aa9565b915061239282612353565b602082019050919050565b5f6020820190508181035f8301526123b48161237b565b9050919050565b5f81905092915050565b50565b5f6123d35f836123bb565b91506123de826123c5565b5f82019050919050565b5f6123f2826123c8565b9150819050919050565b7f45636865632064752072657472616974000000000000000000000000000000005f82015250565b5f612430601083611aa9565b915061243b826123fc565b602082019050919050565b5f6020820190508181035f83015261245d81612424565b9050919050565b5f61246e82611840565b915061247983611840565b925082820390508181111561249157612490611a3a565b5b92915050565b7f4e487b71000000000000000000000000000000000000000000000000000000005f52603260045260245ffd5b7f4c65206d6f6e74616e74206d696e696d756d2065737420302e303031204554485f82015250565b5f6124f8602083611aa9565b9150612503826124c4565b602082019050919050565b5f6020820190508181035f830152612525816124ec565b9050919050565b7f4c65206e6f6d206e6520706575742070617320657472652076696465000000005f82015250565b5f612560601c83611aa9565b915061256b8261252c565b602082019050919050565b5f6020820190508181035f83015261258d81612554565b9050919050565b5f6080820190506125a75f830187611a9a565b81810360208301526125b98186612124565b905081810360408301526125cd8185612124565b90506125dc6060830184611a9a565b95945050505050565b7f566f757320706f7576657a206163686574657220656e747265203120657420315f8201527f3020636166657300000000000000000000000000000000000000000000000000602082015250565b5f61263f602783611aa9565b915061264a826125e5565b604082019050919050565b5f6020820190508181035f83015261266c81612633565b9050919050565b5f61267d82611840565b915061268883611840565b925082820261269681611840565b915082820484148315176126ad576126ac611a3a565b5b5092915050565b7f4d6f6e74616e7420696e737566666973616e7420706f7572206c65206e6f6d625f8201527f7265206465206361666573000000000000000000000000000000000000000000602082015250565b5f61270e602b83611aa9565b9150612719826126b4565b604082019050919050565b5f6020820190508181035f83015261273b81612702565b9050919050565b7f4e487b71000000000000000000000000000000000000000000000000000000005f52601260045260245ffd5b5f61277982611840565b915061278483611840565b92508261279457612793612742565b5b828204905092915050565b7f417563756e20666f6e64732061207265746972657200000000000000000000005f82015250565b5f6127d3601583611aa9565b91506127de8261279f565b602082019050919050565b5f6020820190508181035f830152612800816127c7565b9050919050565b5f61281182611840565b91507fffffffffffffffffffffffffffffffffffffffffffffffffffffffffffffffff820361284357612842611a3a565b5b600182019050919050565b7f4e6f7576656c6c65206164726573736520696e76616c696465000000000000005f82015250565b5f612882601983611aa9565b915061288d8261284e565b602082019050919050565b5f6020820190508181035f8301526128af81612876565b905091905056fea26469706673582212205a4b35bcda472695443c09e796d53c0dedfee239f36701c3909d98951ff1e5e064736f6c634300081e0033",
					"opcodes": "PUSH1 0x80 PUSH1 0x40 MSTORE CALLVALUE DUP1 ISZERO PUSH1 0xE JUMPI PUSH0 PUSH0 REVERT JUMPDEST POP CALLER PUSH0 PUSH0 PUSH2 0x100 EXP DUP2 SLOAD DUP2 PUSH20 0xFFFFFFFFFFFFFFFFFFFFFFFFFFFFFFFFFFFFFFFF MUL NOT AND SWAP1 DUP4 PUSH20 0xFFFFFFFFFFFFFFFFFFFFFFFFFFFFFFFFFFFFFFFF AND MUL OR SWAP1 SSTORE POP PUSH2 0x28EC DUP1 PUSH2 0x5B PUSH0 CODECOPY PUSH0 RETURN INVALID PUSH1 0x80 PUSH1 0x40 MSTORE PUSH1 0x4 CALLDATASIZE LT PUSH2 0xE0 JUMPI PUSH0 CALLDATALOAD PUSH1 0xE0 SHR DUP1 PUSH4 0x6F9FB98A GT PUSH2 0x7E JUMPI DUP1 PUSH4 0xAA586704 GT PUSH2 0x58 JUMPI DUP1 PUSH4 0xAA586704 EQ PUSH2 0x49E JUMPI DUP1 PUSH4 0xB02EAFB1 EQ PUSH2 0x4DE JUMPI DUP1 PUSH4 0xC8EB0C88 EQ PUSH2 0x508 JUMPI DUP1 PUSH4 0xF2FDE38B EQ PUSH2 0x545 JUMPI PUSH2 0x2DF JUMP JUMPDEST DUP1 PUSH4 0x6F9FB98A EQ PUSH2 0x40E JUMPI DUP1 PUSH4 0x7B4424B8 EQ PUSH2 0x438 JUMPI DUP1 PUSH4 0x8DA5CB5B EQ PUSH2 0x474 JUMPI PUSH2 0x2DF JUMP JUMPDEST DUP1 PUSH4 0x2C490CC7 GT PUSH2 0xBA JUMPI DUP1 PUSH4 0x2C490CC7 EQ PUSH2 0x388 JUMPI DUP1 PUSH4 0x3AAA74B2 EQ PUSH2 0x3A4 JUMPI DUP1 PUSH4 0x5B0C306D EQ PUSH2 0x3BA JUMPI DUP1 PUSH4 0x5CBEE4EF EQ PUSH2 0x3E4 JUMPI PUSH2 0x2DF JUMP JUMPDEST DUP1 PUSH4 0x1211540C EQ PUSH2 0x31A JUMPI DUP1 PUSH4 0x1E6178CC EQ PUSH2 0x342 JUMPI DUP1 PUSH4 0x204206E1 EQ PUSH2 0x36C JUMPI PUSH2 0x2DF JUMP JUMPDEST CALLDATASIZE PUSH2 0x2DF JUMPI PUSH1 0x1 PUSH1 0x40 MLOAD DUP1 PUSH1 0xA0 ADD PUSH1 0x40 MSTORE DUP1 CALLER PUSH20 0xFFFFFFFFFFFFFFFFFFFFFFFFFFFFFFFFFFFFFFFF AND DUP2 MSTORE PUSH1 0x20 ADD TIMESTAMP DUP2 MSTORE PUSH1 0x20 ADD PUSH1 0x40 MLOAD DUP1 PUSH1 0x40 ADD PUSH1 0x40 MSTORE DUP1 PUSH1 0x10 DUP2 MSTORE PUSH1 0x20 ADD PUSH32 0x446F6E617465757220616E6F6E796D6500000000000000000000000000000000 DUP2 MSTORE POP DUP2 MSTORE PUSH1 0x20 ADD PUSH1 0x40 MLOAD DUP1 PUSH1 0x40 ADD PUSH1 0x40 MSTORE DUP1 PUSH1 0xA DUP2 MSTORE PUSH1 0x20 ADD PUSH32 0x446F6E2064697265637400000000000000000000000000000000000000000000 DUP2 MSTORE POP DUP2 MSTORE PUSH1 0x20 ADD CALLVALUE DUP2 MSTORE POP SWAP1 DUP1 PUSH1 0x1 DUP2 SLOAD ADD DUP1 DUP3 SSTORE DUP1 SWAP2 POP POP PUSH1 0x1 SWAP1 SUB SWAP1 PUSH0 MSTORE PUSH1 0x20 PUSH0 KECCAK256 SWAP1 PUSH1 0x5 MUL ADD PUSH0 SWAP1 SWAP2 SWAP1 SWAP2 SWAP1 SWAP2 POP PUSH0 DUP3 ADD MLOAD DUP2 PUSH0 ADD PUSH0 PUSH2 0x100 EXP DUP2 SLOAD DUP2 PUSH20 0xFFFFFFFFFFFFFFFFFFFFFFFFFFFFFFFFFFFFFFFF MUL NOT AND SWAP1 DUP4 PUSH20 0xFFFFFFFFFFFFFFFFFFFFFFFFFFFFFFFFFFFFFFFF AND MUL OR SWAP1 SSTORE POP PUSH1 0x20 DUP3 ADD MLOAD DUP2 PUSH1 0x1 ADD SSTORE PUSH1 0x40 DUP3 ADD MLOAD DUP2 PUSH1 0x2 ADD SWAP1 DUP2 PUSH2 0x217 SWAP2 SWAP1 PUSH2 0x196B JUMP JUMPDEST POP PUSH1 0x60 DUP3 ADD MLOAD DUP2 PUSH1 0x3 ADD SWAP1 DUP2 PUSH2 0x22D SWAP2 SWAP1 PUSH2 0x196B JUMP JUMPDEST POP PUSH1 0x80 DUP3 ADD MLOAD DUP2 PUSH1 0x4 ADD SSTORE POP POP CALLVALUE PUSH1 0x2 PUSH0 CALLER PUSH20 0xFFFFFFFFFFFFFFFFFFFFFFFFFFFFFFFFFFFFFFFF AND PUSH20 0xFFFFFFFFFFFFFFFFFFFFFFFFFFFFFFFFFFFFFFFF AND DUP2 MSTORE PUSH1 0x20 ADD SWAP1 DUP2 MSTORE PUSH1 0x20 ADD PUSH0 KECCAK256 PUSH0 DUP3 DUP3 SLOAD PUSH2 0x286 SWAP2 SWAP1 PUSH2 0x1A67 JUMP JUMPDEST SWAP3 POP POP DUP2 SWAP1 SSTORE POP CALLER PUSH20 0xFFFFFFFFFFFFFFFFFFFFFFFFFFFFFFFFFFFFFFFF AND PUSH32 0xB977A663808728B1D9D73ABC7D6C74F3C354F5C726E6812E767B783E14D1983 TIMESTAMP CALLVALUE PUSH1 0x40 MLOAD PUSH2 0x2D5 SWAP3 SWAP2 SWAP1 PUSH2 0x1B4D JUMP JUMPDEST PUSH1 0x40 MLOAD DUP1 SWAP2 SUB SWAP1 LOG2 STOP JUMPDEST PUSH1 0x40 MLOAD PUSH32 0x8C379A000000000000000000000000000000000000000000000000000000000 DUP2 MSTORE PUSH1 0x4 ADD PUSH2 0x311 SWAP1 PUSH2 0x1BE4 JUMP JUMPDEST PUSH1 0x40 MLOAD DUP1 SWAP2 SUB SWAP1 REVERT JUMPDEST CALLVALUE DUP1 ISZERO PUSH2 0x325 JUMPI PUSH0 PUSH0 REVERT JUMPDEST POP PUSH2 0x340 PUSH1 0x4 DUP1 CALLDATASIZE SUB DUP2 ADD SWAP1 PUSH2 0x33B SWAP2 SWAP1 PUSH2 0x1C3D JUMP JUMPDEST PUSH2 0x56D JUMP JUMPDEST STOP JUMPDEST CALLVALUE DUP1 ISZERO PUSH2 0x34D JUMPI PUSH0 PUSH0 REVERT JUMPDEST POP PUSH2 0x356 PUSH2 0x7BC JUMP JUMPDEST PUSH1 0x40 MLOAD PUSH2 0x363 SWAP2 SWAP1 PUSH2 0x1E51 JUMP JUMPDEST PUSH1 0x40 MLOAD DUP1 SWAP2 SUB SWAP1 RETURN JUMPDEST PUSH2 0x386 PUSH1 0x4 DUP1 CALLDATASIZE SUB DUP2 ADD SWAP1 PUSH2 0x381 SWAP2 SWAP1 PUSH2 0x1F70 JUMP JUMPDEST PUSH2 0xA3E JUMP JUMPDEST STOP JUMPDEST PUSH2 0x3A2 PUSH1 0x4 DUP1 CALLDATASIZE SUB DUP2 ADD SWAP1 PUSH2 0x39D SWAP2 SWAP1 PUSH2 0x1FE6 JUMP JUMPDEST PUSH2 0xC61 JUMP JUMPDEST STOP JUMPDEST CALLVALUE DUP1 ISZERO PUSH2 0x3AF JUMPI PUSH0 PUSH0 REVERT JUMPDEST POP PUSH2 0x3B8 PUSH2 0xF0A JUMP JUMPDEST STOP JUMPDEST CALLVALUE DUP1 ISZERO PUSH2 0x3C5 JUMPI PUSH0 PUSH0 REVERT JUMPDEST POP PUSH2 0x3CE PUSH2 0x111A JUMP JUMPDEST PUSH1 0x40 MLOAD PUSH2 0x3DB SWAP2 SWAP1 PUSH2 0x1E51 JUMP JUMPDEST PUSH1 0x40 MLOAD DUP1 SWAP2 SUB SWAP1 RETURN JUMPDEST CALLVALUE DUP1 ISZERO PUSH2 0x3EF JUMPI PUSH0 PUSH0 REVERT JUMPDEST POP PUSH2 0x3F8 PUSH2 0x12FE JUMP JUMPDEST PUSH1 0x40 MLOAD PUSH2 0x405 SWAP2 SWAP1 PUSH2 0x206E JUMP JUMPDEST PUSH1 0x40 MLOAD DUP1 SWAP2 SUB SWAP1 RETURN JUMPDEST CALLVALUE DUP1 ISZERO PUSH2 0x419 JUMPI PUSH0 PUSH0 REVERT JUMPDEST POP PUSH2 0x422 PUSH2 0x1309 JUMP JUMPDEST PUSH1 0x40 MLOAD PUSH2 0x42F SWAP2 SWAP1 PUSH2 0x206E JUMP JUMPDEST PUSH1 0x40 MLOAD DUP1 SWAP2 SUB SWAP1 RETURN JUMPDEST CALLVALUE DUP1 ISZERO PUSH2 0x443 JUMPI PUSH0 PUSH0 REVERT JUMPDEST POP PUSH2 0x45E PUSH1 0x4 DUP1 CALLDATASIZE SUB DUP2 ADD SWAP1 PUSH2 0x459 SWAP2 SWAP1 PUSH2 0x20B1 JUMP JUMPDEST PUSH2 0x1310 JUMP JUMPDEST PUSH1 0x40 MLOAD PUSH2 0x46B SWAP2 SWAP1 PUSH2 0x206E JUMP JUMPDEST PUSH1 0x40 MLOAD DUP1 SWAP2 SUB SWAP1 RETURN JUMPDEST CALLVALUE DUP1 ISZERO PUSH2 0x47F JUMPI PUSH0 PUSH0 REVERT JUMPDEST POP PUSH2 0x488 PUSH2 0x1325 JUMP JUMPDEST PUSH1 0x40 MLOAD PUSH2 0x495 SWAP2 SWAP1 PUSH2 0x20FC JUMP JUMPDEST PUSH1 0x40 MLOAD DUP1 SWAP2 SUB SWAP1 RETURN JUMPDEST CALLVALUE DUP1 ISZERO PUSH2 0x4A9 JUMPI PUSH0 PUSH0 REVERT JUMPDEST POP PUSH2 0x4C4 PUSH1 0x4 DUP1 CALLDATASIZE SUB DUP2 ADD SWAP1 PUSH2 0x4BF SWAP2 SWAP1 PUSH2 0x1C3D JUMP JUMPDEST PUSH2 0x1349 JUMP JUMPDEST PUSH1 0x40 MLOAD PUSH2 0x4D5 SWAP6 SWAP5 SWAP4 SWAP3 SWAP2 SWAP1 PUSH2 0x215C JUMP JUMPDEST PUSH1 0x40 MLOAD DUP1 SWAP2 SUB SWAP1 RETURN JUMPDEST CALLVALUE DUP1 ISZERO PUSH2 0x4E9 JUMPI PUSH0 PUSH0 REVERT JUMPDEST POP PUSH2 0x4F2 PUSH2 0x14B5 JUMP JUMPDEST PUSH1 0x40 MLOAD PUSH2 0x4FF SWAP2 SWAP1 PUSH2 0x206E JUMP JUMPDEST PUSH1 0x40 MLOAD DUP1 SWAP2 SUB SWAP1 RETURN JUMPDEST CALLVALUE DUP1 ISZERO PUSH2 0x513 JUMPI PUSH0 PUSH0 REVERT JUMPDEST POP PUSH2 0x52E PUSH1 0x4 DUP1 CALLDATASIZE SUB DUP2 ADD SWAP1 PUSH2 0x529 SWAP2 SWAP1 PUSH2 0x20B1 JUMP JUMPDEST PUSH2 0x14C1 JUMP JUMPDEST PUSH1 0x40 MLOAD PUSH2 0x53C SWAP3 SWAP2 SWAP1 PUSH2 0x21BB JUMP JUMPDEST PUSH1 0x40 MLOAD DUP1 SWAP2 SUB SWAP1 RETURN JUMPDEST CALLVALUE DUP1 ISZERO PUSH2 0x550 JUMPI PUSH0 PUSH0 REVERT JUMPDEST POP PUSH2 0x56B PUSH1 0x4 DUP1 CALLDATASIZE SUB DUP2 ADD SWAP1 PUSH2 0x566 SWAP2 SWAP1 PUSH2 0x220C JUMP JUMPDEST PUSH2 0x15AE JUMP JUMPDEST STOP JUMPDEST PUSH0 PUSH0 SWAP1 SLOAD SWAP1 PUSH2 0x100 EXP SWAP1 DIV PUSH20 0xFFFFFFFFFFFFFFFFFFFFFFFFFFFFFFFFFFFFFFFF AND PUSH20 0xFFFFFFFFFFFFFFFFFFFFFFFFFFFFFFFFFFFFFFFF AND CALLER PUSH20 0xFFFFFFFFFFFFFFFFFFFFFFFFFFFFFFFFFFFFFFFF AND EQ PUSH2 0x5FB JUMPI PUSH1 0x40 MLOAD PUSH32 0x8C379A000000000000000000000000000000000000000000000000000000000 DUP2 MSTORE PUSH1 0x4 ADD PUSH2 0x5F2 SWAP1 PUSH2 0x22A7 JUMP JUMPDEST PUSH1 0x40 MLOAD DUP1 SWAP2 SUB SWAP1 REVERT JUMPDEST PUSH0 DUP2 GT PUSH2 0x63D JUMPI PUSH1 0x40 MLOAD PUSH32 0x8C379A000000000000000000000000000000000000000000000000000000000 DUP2 MSTORE PUSH1 0x4 ADD PUSH2 0x634 SWAP1 PUSH2 0x2335 JUMP JUMPDEST PUSH1 0x40 MLOAD DUP1 SWAP2 SUB SWAP1 REVERT JUMPDEST DUP1 SELFBALANCE LT ISZERO PUSH2 0x680 JUMPI PUSH1 0x40 MLOAD PUSH32 0x8C379A000000000000000000000000000000000000000000000000000000000 DUP2 MSTORE PUSH1 0x4 ADD PUSH2 0x677 SWAP1 PUSH2 0x239D JUMP JUMPDEST PUSH1 0x40 MLOAD DUP1 SWAP2 SUB SWAP1 REVERT JUMPDEST PUSH0 PUSH0 PUSH0 SWAP1 SLOAD SWAP1 PUSH2 0x100 EXP SWAP1 DIV PUSH20 0xFFFFFFFFFFFFFFFFFFFFFFFFFFFFFFFFFFFFFFFF AND PUSH20 0xFFFFFFFFFFFFFFFFFFFFFFFFFFFFFFFFFFFFFFFF AND DUP3 PUSH1 0x40 MLOAD PUSH2 0x6C5 SWAP1 PUSH2 0x23E8 JUMP JUMPDEST PUSH0 PUSH1 0x40 MLOAD DUP1 DUP4 SUB DUP2 DUP6 DUP8 GAS CALL SWAP3 POP POP POP RETURNDATASIZE DUP1 PUSH0 DUP2 EQ PUSH2 0x6FF JUMPI PUSH1 0x40 MLOAD SWAP2 POP PUSH1 0x1F NOT PUSH1 0x3F RETURNDATASIZE ADD AND DUP3 ADD PUSH1 0x40 MSTORE RETURNDATASIZE DUP3 MSTORE RETURNDATASIZE PUSH0 PUSH1 0x20 DUP5 ADD RETURNDATACOPY PUSH2 0x704 JUMP JUMPDEST PUSH1 0x60 SWAP2 POP JUMPDEST POP POP SWAP1 POP DUP1 PUSH2 0x748 JUMPI PUSH1 0x40 MLOAD PUSH32 0x8C379A000000000000000000000000000000000000000000000000000000000 DUP2 MSTORE PUSH1 0x4 ADD PUSH2 0x73F SWAP1 PUSH2 0x2446 JUMP JUMPDEST PUSH1 0x40 MLOAD DUP1 SWAP2 SUB SWAP1 REVERT JUMPDEST PUSH0 PUSH0 SWAP1 SLOAD SWAP1 PUSH2 0x100 EXP SWAP1 DIV PUSH20 0xFFFFFFFFFFFFFFFFFFFFFFFFFFFFFFFFFFFFFFFF AND PUSH20 0xFFFFFFFFFFFFFFFFFFFFFFFFFFFFFFFFFFFFFFFF AND PUSH32 0xFB59733A8F0BD43414922FB86C6FFDD090E44935074086318980CA89221ACC56 DUP4 TIMESTAMP PUSH1 0x40 MLOAD PUSH2 0x7B0 SWAP3 SWAP2 SWAP1 PUSH2 0x21BB JUMP JUMPDEST PUSH1 0x40 MLOAD DUP1 SWAP2 SUB SWAP1 LOG2 POP POP JUMP JUMPDEST PUSH1 0x60 PUSH0 PUSH1 0x1 DUP1 SLOAD SWAP1 POP SWAP1 POP PUSH0 PUSH1 0xA DUP3 GT PUSH2 0x7D6 JUMPI DUP2 PUSH2 0x7D9 JUMP JUMPDEST PUSH1 0xA JUMPDEST SWAP1 POP PUSH0 DUP2 PUSH8 0xFFFFFFFFFFFFFFFF DUP2 GT ISZERO PUSH2 0x7F6 JUMPI PUSH2 0x7F5 PUSH2 0x1738 JUMP JUMPDEST JUMPDEST PUSH1 0x40 MLOAD SWAP1 DUP1 DUP3 MSTORE DUP1 PUSH1 0x20 MUL PUSH1 0x20 ADD DUP3 ADD PUSH1 0x40 MSTORE DUP1 ISZERO PUSH2 0x82F JUMPI DUP2 PUSH1 0x20 ADD JUMPDEST PUSH2 0x81C PUSH2 0x16EC JUMP JUMPDEST DUP2 MSTORE PUSH1 0x20 ADD SWAP1 PUSH1 0x1 SWAP1 SUB SWAP1 DUP2 PUSH2 0x814 JUMPI SWAP1 POP JUMPDEST POP SWAP1 POP PUSH0 PUSH0 SWAP1 POP JUMPDEST DUP3 DUP2 LT ISZERO PUSH2 0xA34 JUMPI PUSH1 0x1 DUP2 PUSH1 0x1 DUP7 PUSH2 0x84F SWAP2 SWAP1 PUSH2 0x2464 JUMP JUMPDEST PUSH2 0x859 SWAP2 SWAP1 PUSH2 0x2464 JUMP JUMPDEST DUP2 SLOAD DUP2 LT PUSH2 0x86A JUMPI PUSH2 0x869 PUSH2 0x2497 JUMP JUMPDEST JUMPDEST SWAP1 PUSH0 MSTORE PUSH1 0x20 PUSH0 KECCAK256 SWAP1 PUSH1 0x5 MUL ADD PUSH1 0x40 MLOAD DUP1 PUSH1 0xA0 ADD PUSH1 0x40 MSTORE SWAP1 DUP2 PUSH0 DUP3 ADD PUSH0 SWAP1 SLOAD SWAP1 PUSH2 0x100 EXP SWAP1 DIV PUSH20 0xFFFFFFFFFFFFFFFFFFFFFFFFFFFFFFFFFFFFFFFF AND PUSH20 0xFFFFFFFFFFFFFFFFFFFFFFFFFFFFFFFFFFFFFFFF AND PUSH20 0xFFFFFFFFFFFFFFFFFFFFFFFFFFFFFFFFFFFFFFFF AND DUP2 MSTORE PUSH1 0x20 ADD PUSH1 0x1 DUP3 ADD SLOAD DUP2 MSTORE PUSH1 0x20 ADD PUSH1 0x2 DUP3 ADD DUP1 SLOAD PUSH2 0x8EF SWAP1 PUSH2 0x1792 JUMP JUMPDEST DUP1 PUSH1 0x1F ADD PUSH1 0x20 DUP1 SWAP2 DIV MUL PUSH1 0x20 ADD PUSH1 0x40 MLOAD SWAP1 DUP2 ADD PUSH1 0x40 MSTORE DUP1 SWAP3 SWAP2 SWAP1 DUP2 DUP2 MSTORE PUSH1 0x20 ADD DUP3 DUP1 SLOAD PUSH2 0x91B SWAP1 PUSH2 0x1792 JUMP JUMPDEST DUP1 ISZERO PUSH2 0x966 JUMPI DUP1 PUSH1 0x1F LT PUSH2 0x93D JUMPI PUSH2 0x100 DUP1 DUP4 SLOAD DIV MUL DUP4 MSTORE SWAP2 PUSH1 0x20 ADD SWAP2 PUSH2 0x966 JUMP JUMPDEST DUP3 ADD SWAP2 SWAP1 PUSH0 MSTORE PUSH1 0x20 PUSH0 KECCAK256 SWAP1 JUMPDEST DUP2 SLOAD DUP2 MSTORE SWAP1 PUSH1 0x1 ADD SWAP1 PUSH1 0x20 ADD DUP1 DUP4 GT PUSH2 0x949 JUMPI DUP3 SWAP1 SUB PUSH1 0x1F AND DUP3 ADD SWAP2 JUMPDEST POP POP POP POP POP DUP2 MSTORE PUSH1 0x20 ADD PUSH1 0x3 DUP3 ADD DUP1 SLOAD PUSH2 0x97F SWAP1 PUSH2 0x1792 JUMP JUMPDEST DUP1 PUSH1 0x1F ADD PUSH1 0x20 DUP1 SWAP2 DIV MUL PUSH1 0x20 ADD PUSH1 0x40 MLOAD SWAP1 DUP2 ADD PUSH1 0x40 MSTORE DUP1 SWAP3 SWAP2 SWAP1 DUP2 DUP2 MSTORE PUSH1 0x20 ADD DUP3 DUP1 SLOAD PUSH2 0x9AB SWAP1 PUSH2 0x1792 JUMP JUMPDEST DUP1 ISZERO PUSH2 0x9F6 JUMPI DUP1 PUSH1 0x1F LT PUSH2 0x9CD JUMPI PUSH2 0x100 DUP1 DUP4 SLOAD DIV MUL DUP4 MSTORE SWAP2 PUSH1 0x20 ADD SWAP2 PUSH2 0x9F6 JUMP JUMPDEST DUP3 ADD SWAP2 SWAP1 PUSH0 MSTORE PUSH1 0x20 PUSH0 KECCAK256 SWAP1 JUMPDEST DUP2 SLOAD DUP2 MSTORE SWAP1 PUSH1 0x1 ADD SWAP1 PUSH1 0x20 ADD DUP1 DUP4 GT PUSH2 0x9D9 JUMPI DUP3 SWAP1 SUB PUSH1 0x1F AND DUP3 ADD SWAP2 JUMPDEST POP POP POP POP POP DUP2 MSTORE PUSH1 0x20 ADD PUSH1 0x4 DUP3 ADD SLOAD DUP2 MSTORE POP POP DUP3 DUP3 DUP2 MLOAD DUP2 LT PUSH2 0xA1C JUMPI PUSH2 0xA1B PUSH2 0x2497 JUMP JUMPDEST JUMPDEST PUSH1 0x20 MUL PUSH1 0x20 ADD ADD DUP2 SWAP1 MSTORE POP DUP1 DUP1 PUSH1 0x1 ADD SWAP2 POP POP PUSH2 0x837 JUMP JUMPDEST POP DUP1 SWAP4 POP POP POP POP SWAP1 JUMP JUMPDEST PUSH7 0x38D7EA4C68000 CALLVALUE LT ISZERO PUSH2 0xA88 JUMPI PUSH1 0x40 MLOAD PUSH32 0x8C379A000000000000000000000000000000000000000000000000000000000 DUP2 MSTORE PUSH1 0x4 ADD PUSH2 0xA7F SWAP1 PUSH2 0x250E JUMP JUMPDEST PUSH1 0x40 MLOAD DUP1 SWAP2 SUB SWAP1 REVERT JUMPDEST PUSH0 DUP3 MLOAD GT PUSH2 0xACB JUMPI PUSH1 0x40 MLOAD PUSH32 0x8C379A000000000000000000000000000000000000000000000000000000000 DUP2 MSTORE PUSH1 0x4 ADD PUSH2 0xAC2 SWAP1 PUSH2 0x2576 JUMP JUMPDEST PUSH1 0x40 MLOAD DUP1 SWAP2 SUB SWAP1 REVERT JUMPDEST PUSH1 0x1 PUSH1 0x40 MLOAD DUP1 PUSH1 0xA0 ADD PUSH1 0x40 MSTORE DUP1 CALLER PUSH20 0xFFFFFFFFFFFFFFFFFFFFFFFFFFFFFFFFFFFFFFFF AND DUP2 MSTORE PUSH1 0x20 ADD TIMESTAMP DUP2 MSTORE PUSH1 0x20 ADD DUP5 DUP2 MSTORE PUSH1 0x20 ADD DUP4 DUP2 MSTORE PUSH1 0x20 ADD CALLVALUE DUP2 MSTORE POP SWAP1 DUP1 PUSH1 0x1 DUP2 SLOAD ADD DUP1 DUP3 SSTORE DUP1 SWAP2 POP POP PUSH1 0x1 SWAP1 SUB SWAP1 PUSH0 MSTORE PUSH1 0x20 PUSH0 KECCAK256 SWAP1 PUSH1 0x5 MUL ADD PUSH0 SWAP1 SWAP2 SWAP1 SWAP2 SWAP1 SWAP2 POP PUSH0 DUP3 ADD MLOAD DUP2 PUSH0 ADD PUSH0 PUSH2 0x100 EXP DUP2 SLOAD DUP2 PUSH20 0xFFFFFFFFFFFFFFFFFFFFFFFFFFFFFFFFFFFFFFFF MUL NOT AND SWAP1 DUP4 PUSH20 0xFFFFFFFFFFFFFFFFFFFFFFFFFFFFFFFFFFFFFFFF AND MUL OR SWAP1 SSTORE POP PUSH1 0x20 DUP3 ADD MLOAD DUP2 PUSH1 0x1 ADD SSTORE PUSH1 0x40 DUP3 ADD MLOAD DUP2 PUSH1 0x2 ADD SWAP1 DUP2 PUSH2 0xB93 SWAP2 SWAP1 PUSH2 0x196B JUMP JUMPDEST POP PUSH1 0x60 DUP3 ADD MLOAD DUP2 PUSH1 0x3 ADD SWAP1 DUP2 PUSH2 0xBA9 SWAP2 SWAP1 PUSH2 0x196B JUMP JUMPDEST POP PUSH1 0x80 DUP3 ADD MLOAD DUP2 PUSH1 0x4 ADD SSTORE POP POP CALLVALUE PUSH1 0x2 PUSH0 CALLER PUSH20 0xFFFFFFFFFFFFFFFFFFFFFFFFFFFFFFFFFFFFFFFF AND PUSH20 0xFFFFFFFFFFFFFFFFFFFFFFFFFFFFFFFFFFFFFFFF AND DUP2 MSTORE PUSH1 0x20 ADD SWAP1 DUP2 MSTORE PUSH1 0x20 ADD PUSH0 KECCAK256 PUSH0 DUP3 DUP3 SLOAD PUSH2 0xC02 SWAP2 SWAP1 PUSH2 0x1A67 JUMP JUMPDEST SWAP3 POP POP DUP2 SWAP1 SSTORE POP CALLER PUSH20 0xFFFFFFFFFFFFFFFFFFFFFFFFFFFFFFFFFFFFFFFF AND PUSH32 0xB977A663808728B1D9D73ABC7D6C74F3C354F5C726E6812E767B783E14D1983 TIMESTAMP DUP5 DUP5 CALLVALUE PUSH1 0x40 MLOAD PUSH2 0xC55 SWAP5 SWAP4 SWAP3 SWAP2 SWAP1 PUSH2 0x2594 JUMP JUMPDEST PUSH1 0x40 MLOAD DUP1 SWAP2 SUB SWAP1 LOG2 POP POP JUMP JUMPDEST PUSH0 DUP2 GT DUP1 ISZERO PUSH2 0xC71 JUMPI POP PUSH1 0xA DUP2 GT ISZERO JUMPDEST PUSH2 0xCB0 JUMPI PUSH1 0x40 MLOAD PUSH32 0x8C379A000000000000000000000000000000000000000000000000000000000 DUP2 MSTORE PUSH1 0x4 ADD PUSH2 0xCA7 SWAP1 PUSH2 0x2655 JUMP JUMPDEST PUSH1 0x40 MLOAD DUP1 SWAP2 SUB SWAP1 REVERT JUMPDEST DUP1 PUSH7 0x38D7EA4C68000 PUSH2 0xCC3 SWAP2 SWAP1 PUSH2 0x2673 JUMP JUMPDEST CALLVALUE LT ISZERO PUSH2 0xD05 JUMPI PUSH1 0x40 MLOAD PUSH32 0x8C379A000000000000000000000000000000000000000000000000000000000 DUP2 MSTORE PUSH1 0x4 ADD PUSH2 0xCFC SWAP1 PUSH2 0x2724 JUMP JUMPDEST PUSH1 0x40 MLOAD DUP1 SWAP2 SUB SWAP1 REVERT JUMPDEST PUSH0 DUP4 MLOAD GT PUSH2 0xD48 JUMPI PUSH1 0x40 MLOAD PUSH32 0x8C379A000000000000000000000000000000000000000000000000000000000 DUP2 MSTORE PUSH1 0x4 ADD PUSH2 0xD3F SWAP1 PUSH2 0x2576 JUMP JUMPDEST PUSH1 0x40 MLOAD DUP1 SWAP2 SUB SWAP1 REVERT JUMPDEST PUSH0 DUP2 CALLVALUE PUSH2 0xD55 SWAP2 SWAP1 PUSH2 0x276F JUMP JUMPDEST SWAP1 POP PUSH0 PUSH0 SWAP1 POP JUMPDEST DUP3 DUP2 LT ISZERO PUSH2 0xEB0 JUMPI PUSH1 0x1 PUSH1 0x40 MLOAD DUP1 PUSH1 0xA0 ADD PUSH1 0x40 MSTORE DUP1 CALLER PUSH20 0xFFFFFFFFFFFFFFFFFFFFFFFFFFFFFFFFFFFFFFFF AND DUP2 MSTORE PUSH1 0x20 ADD TIMESTAMP DUP2 MSTORE PUSH1 0x20 ADD DUP8 DUP2 MSTORE PUSH1 0x20 ADD DUP7 DUP2 MSTORE PUSH1 0x20 ADD DUP5 DUP2 MSTORE POP SWAP1 DUP1 PUSH1 0x1 DUP2 SLOAD ADD DUP1 DUP3 SSTORE DUP1 SWAP2 POP POP PUSH1 0x1 SWAP1 SUB SWAP1 PUSH0 MSTORE PUSH1 0x20 PUSH0 KECCAK256 SWAP1 PUSH1 0x5 MUL ADD PUSH0 SWAP1 SWAP2 SWAP1 SWAP2 SWAP1 SWAP2 POP PUSH0 DUP3 ADD MLOAD DUP2 PUSH0 ADD PUSH0 PUSH2 0x100 EXP DUP2 SLOAD DUP2 PUSH20 0xFFFFFFFFFFFFFFFFFFFFFFFFFFFFFFFFFFFFFFFF MUL NOT AND SWAP1 DUP4 PUSH20 0xFFFFFFFFFFFFFFFFFFFFFFFFFFFFFFFFFFFFFFFF AND MUL OR SWAP1 SSTORE POP PUSH1 0x20 DUP3 ADD MLOAD DUP2 PUSH1 0x1 ADD SSTORE PUSH1 0x40 DUP3 ADD MLOAD DUP2 PUSH1 0x2 ADD SWAP1 DUP2 PUSH2 0xE2C SWAP2 SWAP1 PUSH2 0x196B JUMP JUMPDEST POP PUSH1 0x60 DUP3 ADD MLOAD DUP2 PUSH1 0x3 ADD SWAP1 DUP2 PUSH2 0xE42 SWAP2 SWAP1 PUSH2 0x196B JUMP JUMPDEST POP PUSH1 0x80 DUP3 ADD MLOAD DUP2 PUSH1 0x4 ADD SSTORE POP POP CALLER PUSH20 0xFFFFFFFFFFFFFFFFFFFFFFFFFFFFFFFFFFFFFFFF AND PUSH32 0xB977A663808728B1D9D73ABC7D6C74F3C354F5C726E6812E767B783E14D1983 TIMESTAMP DUP8 DUP8 DUP7 PUSH1 0x40 MLOAD PUSH2 0xE9B SWAP5 SWAP4 SWAP3 SWAP2 SWAP1 PUSH2 0x2594 JUMP JUMPDEST PUSH1 0x40 MLOAD DUP1 SWAP2 SUB SWAP1 LOG2 DUP1 DUP1 PUSH1 0x1 ADD SWAP2 POP POP PUSH2 0xD5C JUMP JUMPDEST POP CALLVALUE PUSH1 0x2 PUSH0 CALLER PUSH20 0xFFFFFFFFFFFFFFFFFFFFFFFFFFFFFFFFFFFFFFFF AND PUSH20 0xFFFFFFFFFFFFFFFFFFFFFFFFFFFFFFFFFFFFFFFF AND DUP2 MSTORE PUSH1 0x20 ADD SWAP1 DUP2 MSTORE PUSH1 0x20 ADD PUSH0 KECCAK256 PUSH0 DUP3 DUP3 SLOAD PUSH2 0xEFD SWAP2 SWAP1 PUSH2 0x1A67 JUMP JUMPDEST SWAP3 POP POP DUP2 SWAP1 SSTORE POP POP POP POP POP JUMP JUMPDEST PUSH0 PUSH0 SWAP1 SLOAD SWAP1 PUSH2 0x100 EXP SWAP1 DIV PUSH20 0xFFFFFFFFFFFFFFFFFFFFFFFFFFFFFFFFFFFFFFFF AND PUSH20 0xFFFFFFFFFFFFFFFFFFFFFFFFFFFFFFFFFFFFFFFF AND CALLER PUSH20 0xFFFFFFFFFFFFFFFFFFFFFFFFFFFFFFFFFFFFFFFF AND EQ PUSH2 0xF98 JUMPI PUSH1 0x40 MLOAD PUSH32 0x8C379A000000000000000000000000000000000000000000000000000000000 DUP2 MSTORE PUSH1 0x4 ADD PUSH2 0xF8F SWAP1 PUSH2 0x22A7 JUMP JUMPDEST PUSH1 0x40 MLOAD DUP1 SWAP2 SUB SWAP1 REVERT JUMPDEST PUSH0 SELFBALANCE SWAP1 POP PUSH0 DUP2 GT PUSH2 0xFDE JUMPI PUSH1 0x40 MLOAD PUSH32 0x8C379A000000000000000000000000000000000000000000000000000000000 DUP2 MSTORE PUSH1 0x4 ADD PUSH2 0xFD5 SWAP1 PUSH2 0x27E9 JUMP JUMPDEST PUSH1 0x40 MLOAD DUP1 SWAP2 SUB SWAP1 REVERT JUMPDEST PUSH0 PUSH0 PUSH0 SWAP1 SLOAD SWAP1 PUSH2 0x100 EXP SWAP1 DIV PUSH20 0xFFFFFFFFFFFFFFFFFFFFFFFFFFFFFFFFFFFFFFFF AND PUSH20 0xFFFFFFFFFFFFFFFFFFFFFFFFFFFFFFFFFFFFFFFF AND DUP3 PUSH1 0x40 MLOAD PUSH2 0x1023 SWAP1 PUSH2 0x23E8 JUMP JUMPDEST PUSH0 PUSH1 0x40 MLOAD DUP1 DUP4 SUB DUP2 DUP6 DUP8 GAS CALL SWAP3 POP POP POP RETURNDATASIZE DUP1 PUSH0 DUP2 EQ PUSH2 0x105D JUMPI PUSH1 0x40 MLOAD SWAP2 POP PUSH1 0x1F NOT PUSH1 0x3F RETURNDATASIZE ADD AND DUP3 ADD PUSH1 0x40 MSTORE RETURNDATASIZE DUP3 MSTORE RETURNDATASIZE PUSH0 PUSH1 0x20 DUP5 ADD RETURNDATACOPY PUSH2 0x1062 JUMP JUMPDEST PUSH1 0x60 SWAP2 POP JUMPDEST POP POP SWAP1 POP DUP1 PUSH2 0x10A6 JUMPI PUSH1 0x40 MLOAD PUSH32 0x8C379A000000000000000000000000000000000000000000000000000000000 DUP2 MSTORE PUSH1 0x4 ADD PUSH2 0x109D SWAP1 PUSH2 0x2446 JUMP JUMPDEST PUSH1 0x40 MLOAD DUP1 SWAP2 SUB SWAP1 REVERT JUMPDEST PUSH0 PUSH0 SWAP1 SLOAD SWAP1 PUSH2 0x100 EXP SWAP1 DIV PUSH20 0xFFFFFFFFFFFFFFFFFFFFFFFFFFFFFFFFFFFFFFFF AND PUSH20 0xFFFFFFFFFFFFFFFFFFFFFFFFFFFFFFFFFFFFFFFF AND PUSH32 0xFB59733A8F0BD43414922FB86C6FFDD090E44935074086318980CA89221ACC56 DUP4 TIMESTAMP PUSH1 0x40 MLOAD PUSH2 0x110E SWAP3 SWAP2 SWAP1 PUSH2 0x21BB JUMP JUMPDEST PUSH1 0x40 MLOAD DUP1 SWAP2 SUB SWAP1 LOG2 POP POP JUMP JUMPDEST PUSH1 0x60 PUSH1 0x1 DUP1 SLOAD DUP1 PUSH1 0x20 MUL PUSH1 0x20 ADD PUSH1 0x40 MLOAD SWAP1 DUP2 ADD PUSH1 0x40 MSTORE DUP1 SWAP3 SWAP2 SWAP1 DUP2 DUP2 MSTORE PUSH1 0x20 ADD PUSH0 SWAP1 JUMPDEST DUP3 DUP3 LT ISZERO PUSH2 0x12F5 JUMPI DUP4 DUP3 SWAP1 PUSH0 MSTORE PUSH1 0x20 PUSH0 KECCAK256 SWAP1 PUSH1 0x5 MUL ADD PUSH1 0x40 MLOAD DUP1 PUSH1 0xA0 ADD PUSH1 0x40 MSTORE SWAP1 DUP2 PUSH0 DUP3 ADD PUSH0 SWAP1 SLOAD SWAP1 PUSH2 0x100 EXP SWAP1 DIV PUSH20 0xFFFFFFFFFFFFFFFFFFFFFFFFFFFFFFFFFFFFFFFF AND PUSH20 0xFFFFFFFFFFFFFFFFFFFFFFFFFFFFFFFFFFFFFFFF AND PUSH20 0xFFFFFFFFFFFFFFFFFFFFFFFFFFFFFFFFFFFFFFFF AND DUP2 MSTORE PUSH1 0x20 ADD PUSH1 0x1 DUP3 ADD SLOAD DUP2 MSTORE PUSH1 0x20 ADD PUSH1 0x2 DUP3 ADD DUP1 SLOAD PUSH2 0x11CC SWAP1 PUSH2 0x1792 JUMP JUMPDEST DUP1 PUSH1 0x1F ADD PUSH1 0x20 DUP1 SWAP2 DIV MUL PUSH1 0x20 ADD PUSH1 0x40 MLOAD SWAP1 DUP2 ADD PUSH1 0x40 MSTORE DUP1 SWAP3 SWAP2 SWAP1 DUP2 DUP2 MSTORE PUSH1 0x20 ADD DUP3 DUP1 SLOAD PUSH2 0x11F8 SWAP1 PUSH2 0x1792 JUMP JUMPDEST DUP1 ISZERO PUSH2 0x1243 JUMPI DUP1 PUSH1 0x1F LT PUSH2 0x121A JUMPI PUSH2 0x100 DUP1 DUP4 SLOAD DIV MUL DUP4 MSTORE SWAP2 PUSH1 0x20 ADD SWAP2 PUSH2 0x1243 JUMP JUMPDEST DUP3 ADD SWAP2 SWAP1 PUSH0 MSTORE PUSH1 0x20 PUSH0 KECCAK256 SWAP1 JUMPDEST DUP2 SLOAD DUP2 MSTORE SWAP1 PUSH1 0x1 ADD SWAP1 PUSH1 0x20 ADD DUP1 DUP4 GT PUSH2 0x1226 JUMPI DUP3 SWAP1 SUB PUSH1 0x1F AND DUP3 ADD SWAP2 JUMPDEST POP POP POP POP POP DUP2 MSTORE PUSH1 0x20 ADD PUSH1 0x3 DUP3 ADD DUP1 SLOAD PUSH2 0x125C SWAP1 PUSH2 0x1792 JUMP JUMPDEST DUP1 PUSH1 0x1F ADD PUSH1 0x20 DUP1 SWAP2 DIV MUL PUSH1 0x20 ADD PUSH1 0x40 MLOAD SWAP1 DUP2 ADD PUSH1 0x40 MSTORE DUP1 SWAP3 SWAP2 SWAP1 DUP2 DUP2 MSTORE PUSH1 0x20 ADD DUP3 DUP1 SLOAD PUSH2 0x1288 SWAP1 PUSH2 0x1792 JUMP JUMPDEST DUP1 ISZERO PUSH2 0x12D3 JUMPI DUP1 PUSH1 0x1F LT PUSH2 0x12AA JUMPI PUSH2 0x100 DUP1 DUP4 SLOAD DIV MUL DUP4 MSTORE SWAP2 PUSH1 0x20 ADD SWAP2 PUSH2 0x12D3 JUMP JUMPDEST DUP3 ADD SWAP2 SWAP1 PUSH0 MSTORE PUSH1 0x20 PUSH0 KECCAK256 SWAP1 JUMPDEST DUP2 SLOAD DUP2 MSTORE SWAP1 PUSH1 0x1 ADD SWAP1 PUSH1 0x20 ADD DUP1 DUP4 GT PUSH2 0x12B6 JUMPI DUP3 SWAP1 SUB PUSH1 0x1F AND DUP3 ADD SWAP2 JUMPDEST POP POP POP POP POP DUP2 MSTORE PUSH1 0x20 ADD PUSH1 0x4 DUP3 ADD SLOAD DUP2 MSTORE POP POP DUP2 MSTORE PUSH1 0x20 ADD SWAP1 PUSH1 0x1 ADD SWAP1 PUSH2 0x113D JUMP JUMPDEST POP POP POP POP SWAP1 POP SWAP1 JUMP JUMPDEST PUSH7 0x38D7EA4C68000 DUP2 JUMP JUMPDEST PUSH0 SELFBALANCE SWAP1 POP SWAP1 JUMP JUMPDEST PUSH1 0x2 PUSH1 0x20 MSTORE DUP1 PUSH0 MSTORE PUSH1 0x40 PUSH0 KECCAK256 PUSH0 SWAP2 POP SWAP1 POP SLOAD DUP2 JUMP JUMPDEST PUSH0 PUSH0 SWAP1 SLOAD SWAP1 PUSH2 0x100 EXP SWAP1 DIV PUSH20 0xFFFFFFFFFFFFFFFFFFFFFFFFFFFFFFFFFFFFFFFF AND DUP2 JUMP JUMPDEST PUSH1 0x1 DUP2 DUP2 SLOAD DUP2 LT PUSH2 0x1358 JUMPI PUSH0 DUP1 REVERT JUMPDEST SWAP1 PUSH0 MSTORE PUSH1 0x20 PUSH0 KECCAK256 SWAP1 PUSH1 0x5 MUL ADD PUSH0 SWAP2 POP SWAP1 POP DUP1 PUSH0 ADD PUSH0 SWAP1 SLOAD SWAP1 PUSH2 0x100 EXP SWAP1 DIV PUSH20 0xFFFFFFFFFFFFFFFFFFFFFFFFFFFFFFFFFFFFFFFF AND SWAP1 DUP1 PUSH1 0x1 ADD SLOAD SWAP1 DUP1 PUSH1 0x2 ADD DUP1 SLOAD PUSH2 0x13A2 SWAP1 PUSH2 0x1792 JUMP JUMPDEST DUP1 PUSH1 0x1F ADD PUSH1 0x20 DUP1 SWAP2 DIV MUL PUSH1 0x20 ADD PUSH1 0x40 MLOAD SWAP1 DUP2 ADD PUSH1 0x40 MSTORE DUP1 SWAP3 SWAP2 SWAP1 DUP2 DUP2 MSTORE PUSH1 0x20 ADD DUP3 DUP1 SLOAD PUSH2 0x13CE SWAP1 PUSH2 0x1792 JUMP JUMPDEST DUP1 ISZERO PUSH2 0x1419 JUMPI DUP1 PUSH1 0x1F LT PUSH2 0x13F0 JUMPI PUSH2 0x100 DUP1 DUP4 SLOAD DIV MUL DUP4 MSTORE SWAP2 PUSH1 0x20 ADD SWAP2 PUSH2 0x1419 JUMP JUMPDEST DUP3 ADD SWAP2 SWAP1 PUSH0 MSTORE PUSH1 0x20 PUSH0 KECCAK256 SWAP1 JUMPDEST DUP2 SLOAD DUP2 MSTORE SWAP1 PUSH1 0x1 ADD SWAP1 PUSH1 0x20 ADD DUP1 DUP4 GT PUSH2 0x13FC JUMPI DUP3 SWAP1 SUB PUSH1 0x1F AND DUP3 ADD SWAP2 JUMPDEST POP POP POP POP POP SWAP1 DUP1 PUSH1 0x3 ADD DUP1 SLOAD PUSH2 0x142E SWAP1 PUSH2 0x1792 JUMP JUMPDEST DUP1 PUSH1 0x1F ADD PUSH1 0x20 DUP1 SWAP2 DIV MUL PUSH1 0x20 ADD PUSH1 0x40 MLOAD SWAP1 DUP2 ADD PUSH1 0x40 MSTORE DUP1 SWAP3 SWAP2 SWAP1 DUP2 DUP2 MSTORE PUSH1 0x20 ADD DUP3 DUP1 SLOAD PUSH2 0x145A SWAP1 PUSH2 0x1792 JUMP JUMPDEST DUP1 ISZERO PUSH2 0x14A5 JUMPI DUP1 PUSH1 0x1F LT PUSH2 0x147C JUMPI PUSH2 0x100 DUP1 DUP4 SLOAD DIV MUL DUP4 MSTORE SWAP2 PUSH1 0x20 ADD SWAP2 PUSH2 0x14A5 JUMP JUMPDEST DUP3 ADD SWAP2 SWAP1 PUSH0 MSTORE PUSH1 0x20 PUSH0 KECCAK256 SWAP1 JUMPDEST DUP2 SLOAD DUP2 MSTORE SWAP1 PUSH1 0x1 ADD SWAP1 PUSH1 0x20 ADD DUP1 DUP4 GT PUSH2 0x1488 JUMPI DUP3 SWAP1 SUB PUSH1 0x1F AND DUP3 ADD SWAP2 JUMPDEST POP POP POP POP POP SWAP1 DUP1 PUSH1 0x4 ADD SLOAD SWAP1 POP DUP6 JUMP JUMPDEST PUSH0 PUSH1 0x1 DUP1 SLOAD SWAP1 POP SWAP1 POP SWAP1 JUMP JUMPDEST PUSH0 PUSH0 PUSH1 0x2 PUSH0 DUP5 PUSH20 0xFFFFFFFFFFFFFFFFFFFFFFFFFFFFFFFFFFFFFFFF AND PUSH20 0xFFFFFFFFFFFFFFFFFFFFFFFFFFFFFFFFFFFFFFFF AND DUP2 MSTORE PUSH1 0x20 ADD SWAP1 DUP2 MSTORE PUSH1 0x20 ADD PUSH0 KECCAK256 SLOAD SWAP2 POP PUSH0 SWAP1 POP PUSH0 PUSH0 SWAP1 POP JUMPDEST PUSH1 0x1 DUP1 SLOAD SWAP1 POP DUP2 LT ISZERO PUSH2 0x15A8 JUMPI DUP4 PUSH20 0xFFFFFFFFFFFFFFFFFFFFFFFFFFFFFFFFFFFFFFFF AND PUSH1 0x1 DUP3 DUP2 SLOAD DUP2 LT PUSH2 0x1543 JUMPI PUSH2 0x1542 PUSH2 0x2497 JUMP JUMPDEST JUMPDEST SWAP1 PUSH0 MSTORE PUSH1 0x20 PUSH0 KECCAK256 SWAP1 PUSH1 0x5 MUL ADD PUSH0 ADD PUSH0 SWAP1 SLOAD SWAP1 PUSH2 0x100 EXP SWAP1 DIV PUSH20 0xFFFFFFFFFFFFFFFFFFFFFFFFFFFFFFFFFFFFFFFF AND PUSH20 0xFFFFFFFFFFFFFFFFFFFFFFFFFFFFFFFFFFFFFFFF AND SUB PUSH2 0x159B JUMPI DUP2 DUP1 PUSH2 0x1597 SWAP1 PUSH2 0x2807 JUMP JUMPDEST SWAP3 POP POP JUMPDEST DUP1 DUP1 PUSH1 0x1 ADD SWAP2 POP POP PUSH2 0x150B JUMP JUMPDEST POP SWAP2 POP SWAP2 JUMP JUMPDEST PUSH0 PUSH0 SWAP1 SLOAD SWAP1 PUSH2 0x100 EXP SWAP1 DIV PUSH20 0xFFFFFFFFFFFFFFFFFFFFFFFFFFFFFFFFFFFFFFFF AND PUSH20 0xFFFFFFFFFFFFFFFFFFFFFFFFFFFFFFFFFFFFFFFF AND CALLER PUSH20 0xFFFFFFFFFFFFFFFFFFFFFFFFFFFFFFFFFFFFFFFF AND EQ PUSH2 0x163C JUMPI PUSH1 0x40 MLOAD PUSH32 0x8C379A000000000000000000000000000000000000000000000000000000000 DUP2 MSTORE PUSH1 0x4 ADD PUSH2 0x1633 SWAP1 PUSH2 0x22A7 JUMP JUMPDEST PUSH1 0x40 MLOAD DUP1 SWAP2 SUB SWAP1 REVERT JUMPDEST PUSH0 PUSH20 0xFFFFFFFFFFFFFFFFFFFFFFFFFFFFFFFFFFFFFFFF AND DUP2 PUSH20 0xFFFFFFFFFFFFFFFFFFFFFFFFFFFFFFFFFFFFFFFF AND SUB PUSH2 0x16AA JUMPI PUSH1 0x40 MLOAD PUSH32 0x8C379A000000000000000000000000000000000000000000000000000000000 DUP2 MSTORE PUSH1 0x4 ADD PUSH2 0x16A1 SWAP1 PUSH2 0x2898 JUMP JUMPDEST PUSH1 0x40 MLOAD DUP1 SWAP2 SUB SWAP1 REVERT JUMPDEST DUP1 PUSH0 PUSH0 PUSH2 0x100 EXP DUP2 SLOAD DUP2 PUSH20 0xFFFFFFFFFFFFFFFFFFFFFFFFFFFFFFFFFFFFFFFF MUL NOT AND SWAP1 DUP4 PUSH20 0xFFFFFFFFFFFFFFFFFFFFFFFFFFFFFFFFFFFFFFFF AND MUL OR SWAP1 SSTORE POP POP JUMP JUMPDEST PUSH1 0x40 MLOAD DUP1 PUSH1 0xA0 ADD PUSH1 0x40 MSTORE DUP1 PUSH0 PUSH20 0xFFFFFFFFFFFFFFFFFFFFFFFFFFFFFFFFFFFFFFFF AND DUP2 MSTORE PUSH1 0x20 ADD PUSH0 DUP2 MSTORE PUSH1 0x20 ADD PUSH1 0x60 DUP2 MSTORE PUSH1 0x20 ADD PUSH1 0x60 DUP2 MSTORE PUSH1 0x20 ADD PUSH0 DUP2 MSTORE POP SWAP1 JUMP JUMPDEST PUSH0 DUP2 MLOAD SWAP1 POP SWAP2 SWAP1 POP JUMP JUMPDEST PUSH32 0x4E487B7100000000000000000000000000000000000000000000000000000000 PUSH0 MSTORE PUSH1 0x41 PUSH1 0x4 MSTORE PUSH1 0x24 PUSH0 REVERT JUMPDEST PUSH32 0x4E487B7100000000000000000000000000000000000000000000000000000000 PUSH0 MSTORE PUSH1 0x22 PUSH1 0x4 MSTORE PUSH1 0x24 PUSH0 REVERT JUMPDEST PUSH0 PUSH1 0x2 DUP3 DIV SWAP1 POP PUSH1 0x1 DUP3 AND DUP1 PUSH2 0x17A9 JUMPI PUSH1 0x7F DUP3 AND SWAP2 POP JUMPDEST PUSH1 0x20 DUP3 LT DUP2 SUB PUSH2 0x17BC JUMPI PUSH2 0x17BB PUSH2 0x1765 JUMP JUMPDEST JUMPDEST POP SWAP2 SWAP1 POP JUMP JUMPDEST PUSH0 DUP2 SWAP1 POP DUP2 PUSH0 MSTORE PUSH1 0x20 PUSH0 KECCAK256 SWAP1 POP SWAP2 SWAP1 POP JUMP JUMPDEST PUSH0 PUSH1 0x20 PUSH1 0x1F DUP4 ADD DIV SWAP1 POP SWAP2 SWAP1 POP JUMP JUMPDEST PUSH0 DUP3 DUP3 SHL SWAP1 POP SWAP3 SWAP2 POP POP JUMP JUMPDEST PUSH0 PUSH1 0x8 DUP4 MUL PUSH2 0x181E PUSH32 0xFFFFFFFFFFFFFFFFFFFFFFFFFFFFFFFFFFFFFFFFFFFFFFFFFFFFFFFFFFFFFFFF DUP3 PUSH2 0x17E3 JUMP JUMPDEST PUSH2 0x1828 DUP7 DUP4 PUSH2 0x17E3 JUMP JUMPDEST SWAP6 POP DUP1 NOT DUP5 AND SWAP4 POP DUP1 DUP7 AND DUP5 OR SWAP3 POP POP POP SWAP4 SWAP3 POP POP POP JUMP JUMPDEST PUSH0 DUP2 SWAP1 POP SWAP2 SWAP1 POP JUMP JUMPDEST PUSH0 DUP2 SWAP1 POP SWAP2 SWAP1 POP JUMP JUMPDEST PUSH0 PUSH2 0x186C PUSH2 0x1867 PUSH2 0x1862 DUP5 PUSH2 0x1840 JUMP JUMPDEST PUSH2 0x1849 JUMP JUMPDEST PUSH2 0x1840 JUMP JUMPDEST SWAP1 POP SWAP2 SWAP1 POP JUMP JUMPDEST PUSH0 DUP2 SWAP1 POP SWAP2 SWAP1 POP JUMP JUMPDEST PUSH2 0x1885 DUP4 PUSH2 0x1852 JUMP JUMPDEST PUSH2 0x1899 PUSH2 0x1891 DUP3 PUSH2 0x1873 JUMP JUMPDEST DUP5 DUP5 SLOAD PUSH2 0x17EF JUMP JUMPDEST DUP3 SSTORE POP POP POP POP JUMP JUMPDEST PUSH0 PUSH0 SWAP1 POP SWAP1 JUMP JUMPDEST PUSH2 0x18B0 PUSH2 0x18A1 JUMP JUMPDEST PUSH2 0x18BB DUP2 DUP5 DUP5 PUSH2 0x187C JUMP JUMPDEST POP POP POP JUMP JUMPDEST JUMPDEST DUP2 DUP2 LT ISZERO PUSH2 0x18DE JUMPI PUSH2 0x18D3 PUSH0 DUP3 PUSH2 0x18A8 JUMP JUMPDEST PUSH1 0x1 DUP2 ADD SWAP1 POP PUSH2 0x18C1 JUMP JUMPDEST POP POP JUMP JUMPDEST PUSH1 0x1F DUP3 GT ISZERO PUSH2 0x1923 JUMPI PUSH2 0x18F4 DUP2 PUSH2 0x17C2 JUMP JUMPDEST PUSH2 0x18FD DUP5 PUSH2 0x17D4 JUMP JUMPDEST DUP2 ADD PUSH1 0x20 DUP6 LT ISZERO PUSH2 0x190C JUMPI DUP2 SWAP1 POP JUMPDEST PUSH2 0x1920 PUSH2 0x1918 DUP6 PUSH2 0x17D4 JUMP JUMPDEST DUP4 ADD DUP3 PUSH2 0x18C0 JUMP JUMPDEST POP POP JUMPDEST POP POP POP JUMP JUMPDEST PUSH0 DUP3 DUP3 SHR SWAP1 POP SWAP3 SWAP2 POP POP JUMP JUMPDEST PUSH0 PUSH2 0x1943 PUSH0 NOT DUP5 PUSH1 0x8 MUL PUSH2 0x1928 JUMP JUMPDEST NOT DUP1 DUP4 AND SWAP2 POP POP SWAP3 SWAP2 POP POP JUMP JUMPDEST PUSH0 PUSH2 0x195B DUP4 DUP4 PUSH2 0x1934 JUMP JUMPDEST SWAP2 POP DUP3 PUSH1 0x2 MUL DUP3 OR SWAP1 POP SWAP3 SWAP2 POP POP JUMP JUMPDEST PUSH2 0x1974 DUP3 PUSH2 0x172E JUMP JUMPDEST PUSH8 0xFFFFFFFFFFFFFFFF DUP2 GT ISZERO PUSH2 0x198D JUMPI PUSH2 0x198C PUSH2 0x1738 JUMP JUMPDEST JUMPDEST PUSH2 0x1997 DUP3 SLOAD PUSH2 0x1792 JUMP JUMPDEST PUSH2 0x19A2 DUP3 DUP3 DUP6 PUSH2 0x18E2 JUMP JUMPDEST PUSH0 PUSH1 0x20 SWAP1 POP PUSH1 0x1F DUP4 GT PUSH1 0x1 DUP2 EQ PUSH2 0x19D3 JUMPI PUSH0 DUP5 ISZERO PUSH2 0x19C1 JUMPI DUP3 DUP8 ADD MLOAD SWAP1 POP JUMPDEST PUSH2 0x19CB DUP6 DUP3 PUSH2 0x1950 JUMP JUMPDEST DUP7 SSTORE POP PUSH2 0x1A32 JUMP JUMPDEST PUSH1 0x1F NOT DUP5 AND PUSH2 0x19E1 DUP7 PUSH2 0x17C2 JUMP JUMPDEST PUSH0 JUMPDEST DUP3 DUP2 LT ISZERO PUSH2 0x1A08 JUMPI DUP5 DUP10 ADD MLOAD DUP3 SSTORE PUSH1 0x1 DUP3 ADD SWAP2 POP PUSH1 0x20 DUP6 ADD SWAP5 POP PUSH1 0x20 DUP2 ADD SWAP1 POP PUSH2 0x19E3 JUMP JUMPDEST DUP7 DUP4 LT ISZERO PUSH2 0x1A25 JUMPI DUP5 DUP10 ADD MLOAD PUSH2 0x1A21 PUSH1 0x1F DUP10 AND DUP3 PUSH2 0x1934 JUMP JUMPDEST DUP4 SSTORE POP JUMPDEST PUSH1 0x1 PUSH1 0x2 DUP9 MUL ADD DUP9 SSTORE POP POP POP JUMPDEST POP POP POP POP POP POP JUMP JUMPDEST PUSH32 0x4E487B7100000000000000000000000000000000000000000000000000000000 PUSH0 MSTORE PUSH1 0x11 PUSH1 0x4 MSTORE PUSH1 0x24 PUSH0 REVERT JUMPDEST PUSH0 PUSH2 0x1A71 DUP3 PUSH2 0x1840 JUMP JUMPDEST SWAP2 POP PUSH2 0x1A7C DUP4 PUSH2 0x1840 JUMP JUMPDEST SWAP3 POP DUP3 DUP3 ADD SWAP1 POP DUP1 DUP3 GT ISZERO PUSH2 0x1A94 JUMPI PUSH2 0x1A93 PUSH2 0x1A3A JUMP JUMPDEST JUMPDEST SWAP3 SWAP2 POP POP JUMP JUMPDEST PUSH2 0x1AA3 DUP2 PUSH2 0x1840 JUMP JUMPDEST DUP3 MSTORE POP POP JUMP JUMPDEST PUSH0 DUP3 DUP3 MSTORE PUSH1 0x20 DUP3 ADD SWAP1 POP SWAP3 SWAP2 POP POP JUMP JUMPDEST PUSH32 0x446F6E617465757220616E6F6E796D6500000000000000000000000000000000 PUSH0 DUP3 ADD MSTORE POP JUMP JUMPDEST PUSH0 PUSH2 0x1AED PUSH1 0x10 DUP4 PUSH2 0x1AA9 JUMP JUMPDEST SWAP2 POP PUSH2 0x1AF8 DUP3 PUSH2 0x1AB9 JUMP JUMPDEST PUSH1 0x20 DUP3 ADD SWAP1 POP SWAP2 SWAP1 POP JUMP JUMPDEST PUSH32 0x446F6E2064697265637400000000000000000000000000000000000000000000 PUSH0 DUP3 ADD MSTORE POP JUMP JUMPDEST PUSH0 PUSH2 0x1B37 PUSH1 0xA DUP4 PUSH2 0x1AA9 JUMP JUMPDEST SWAP2 POP PUSH2 0x1B42 DUP3 PUSH2 0x1B03 JUMP JUMPDEST PUSH1 0x20 DUP3 ADD SWAP1 POP SWAP2 SWAP1 POP JUMP JUMPDEST PUSH0 PUSH1 0x80 DUP3 ADD SWAP1 POP PUSH2 0x1B60 PUSH0 DUP4 ADD DUP6 PUSH2 0x1A9A JUMP JUMPDEST DUP2 DUP2 SUB PUSH1 0x20 DUP4 ADD MSTORE PUSH2 0x1B71 DUP2 PUSH2 0x1AE1 JUMP JUMPDEST SWAP1 POP DUP2 DUP2 SUB PUSH1 0x40 DUP4 ADD MSTORE PUSH2 0x1B84 DUP2 PUSH2 0x1B2B JUMP JUMPDEST SWAP1 POP PUSH2 0x1B93 PUSH1 0x60 DUP4 ADD DUP5 PUSH2 0x1A9A JUMP JUMPDEST SWAP4 SWAP3 POP POP POP JUMP JUMPDEST PUSH32 0x466F6E6374696F6E206E6F6E207265636F6E6E75650000000000000000000000 PUSH0 DUP3 ADD MSTORE POP JUMP JUMPDEST PUSH0 PUSH2 0x1BCE PUSH1 0x15 DUP4 PUSH2 0x1AA9 JUMP JUMPDEST SWAP2 POP PUSH2 0x1BD9 DUP3 PUSH2 0x1B9A JUMP JUMPDEST PUSH1 0x20 DUP3 ADD SWAP1 POP SWAP2 SWAP1 POP JUMP JUMPDEST PUSH0 PUSH1 0x20 DUP3 ADD SWAP1 POP DUP2 DUP2 SUB PUSH0 DUP4 ADD MSTORE PUSH2 0x1BFB DUP2 PUSH2 0x1BC2 JUMP JUMPDEST SWAP1 POP SWAP2 SWAP1 POP JUMP JUMPDEST PUSH0 PUSH1 0x40 MLOAD SWAP1 POP SWAP1 JUMP JUMPDEST PUSH0 PUSH0 REVERT JUMPDEST PUSH0 PUSH0 REVERT JUMPDEST PUSH2 0x1C1C DUP2 PUSH2 0x1840 JUMP JUMPDEST DUP2 EQ PUSH2 0x1C26 JUMPI PUSH0 PUSH0 REVERT JUMPDEST POP JUMP JUMPDEST PUSH0 DUP2 CALLDATALOAD SWAP1 POP PUSH2 0x1C37 DUP2 PUSH2 0x1C13 JUMP JUMPDEST SWAP3 SWAP2 POP POP JUMP JUMPDEST PUSH0 PUSH1 0x20 DUP3 DUP5 SUB SLT ISZERO PUSH2 0x1C52 JUMPI PUSH2 0x1C51 PUSH2 0x1C0B JUMP JUMPDEST JUMPDEST PUSH0 PUSH2 0x1C5F DUP5 DUP3 DUP6 ADD PUSH2 0x1C29 JUMP JUMPDEST SWAP2 POP POP SWAP3 SWAP2 POP POP JUMP JUMPDEST PUSH0 DUP2 MLOAD SWAP1 POP SWAP2 SWAP1 POP JUMP JUMPDEST PUSH0 DUP3 DUP3 MSTORE PUSH1 0x20 DUP3 ADD SWAP1 POP SWAP3 SWAP2 POP POP JUMP JUMPDEST PUSH0 DUP2 SWAP1 POP PUSH1 0x20 DUP3 ADD SWAP1 POP SWAP2 SWAP1 POP JUMP JUMPDEST PUSH0 PUSH20 0xFFFFFFFFFFFFFFFFFFFFFFFFFFFFFFFFFFFFFFFF DUP3 AND SWAP1 POP SWAP2 SWAP1 POP JUMP JUMPDEST PUSH0 PUSH2 0x1CBA DUP3 PUSH2 0x1C91 JUMP JUMPDEST SWAP1 POP SWAP2 SWAP1 POP JUMP JUMPDEST PUSH2 0x1CCA DUP2 PUSH2 0x1CB0 JUMP JUMPDEST DUP3 MSTORE POP POP JUMP JUMPDEST PUSH2 0x1CD9 DUP2 PUSH2 0x1840 JUMP JUMPDEST DUP3 MSTORE POP POP JUMP JUMPDEST PUSH0 DUP3 DUP3 MSTORE PUSH1 0x20 DUP3 ADD SWAP1 POP SWAP3 SWAP2 POP POP JUMP JUMPDEST DUP3 DUP2 DUP4 MCOPY PUSH0 DUP4 DUP4 ADD MSTORE POP POP POP JUMP JUMPDEST PUSH0 PUSH1 0x1F NOT PUSH1 0x1F DUP4 ADD AND SWAP1 POP SWAP2 SWAP1 POP JUMP JUMPDEST PUSH0 PUSH2 0x1D17 DUP3 PUSH2 0x172E JUMP JUMPDEST PUSH2 0x1D21 DUP2 DUP6 PUSH2 0x1CDF JUMP JUMPDEST SWAP4 POP PUSH2 0x1D31 DUP2 DUP6 PUSH1 0x20 DUP7 ADD PUSH2 0x1CEF JUMP JUMPDEST PUSH2 0x1D3A DUP2 PUSH2 0x1CFD JUMP JUMPDEST DUP5 ADD SWAP2 POP POP SWAP3 SWAP2 POP POP JUMP JUMPDEST PUSH0 PUSH1 0xA0 DUP4 ADD PUSH0 DUP4 ADD MLOAD PUSH2 0x1D5A PUSH0 DUP7 ADD DUP3 PUSH2 0x1CC1 JUMP JUMPDEST POP PUSH1 0x20 DUP4 ADD MLOAD PUSH2 0x1D6D PUSH1 0x20 DUP7 ADD DUP3 PUSH2 0x1CD0 JUMP JUMPDEST POP PUSH1 0x40 DUP4 ADD MLOAD DUP5 DUP3 SUB PUSH1 0x40 DUP7 ADD MSTORE PUSH2 0x1D85 DUP3 DUP3 PUSH2 0x1D0D JUMP JUMPDEST SWAP2 POP POP PUSH1 0x60 DUP4 ADD MLOAD DUP5 DUP3 SUB PUSH1 0x60 DUP7 ADD MSTORE PUSH2 0x1D9F DUP3 DUP3 PUSH2 0x1D0D JUMP JUMPDEST SWAP2 POP POP PUSH1 0x80 DUP4 ADD MLOAD PUSH2 0x1DB4 PUSH1 0x80 DUP7 ADD DUP3 PUSH2 0x1CD0 JUMP JUMPDEST POP DUP1 SWAP2 POP POP SWAP3 SWAP2 POP POP JUMP JUMPDEST PUSH0 PUSH2 0x1DCA DUP4 DUP4 PUSH2 0x1D45 JUMP JUMPDEST SWAP1 POP SWAP3 SWAP2 POP POP JUMP JUMPDEST PUSH0 PUSH1 0x20 DUP3 ADD SWAP1 POP SWAP2 SWAP1 POP JUMP JUMPDEST PUSH0 PUSH2 0x1DE8 DUP3 PUSH2 0x1C68 JUMP JUMPDEST PUSH2 0x1DF2 DUP2 DUP6 PUSH2 0x1C72 JUMP JUMPDEST SWAP4 POP DUP4 PUSH1 0x20 DUP3 MUL DUP6 ADD PUSH2 0x1E04 DUP6 PUSH2 0x1C82 JUMP JUMPDEST DUP1 PUSH0 JUMPDEST DUP6 DUP2 LT ISZERO PUSH2 0x1E3F JUMPI DUP5 DUP5 SUB DUP10 MSTORE DUP2 MLOAD PUSH2 0x1E20 DUP6 DUP3 PUSH2 0x1DBF JUMP JUMPDEST SWAP5 POP PUSH2 0x1E2B DUP4 PUSH2 0x1DD2 JUMP JUMPDEST SWAP3 POP PUSH1 0x20 DUP11 ADD SWAP10 POP POP PUSH1 0x1 DUP2 ADD SWAP1 POP PUSH2 0x1E07 JUMP JUMPDEST POP DUP3 SWAP8 POP DUP8 SWAP6 POP POP POP POP POP POP SWAP3 SWAP2 POP POP JUMP JUMPDEST PUSH0 PUSH1 0x20 DUP3 ADD SWAP1 POP DUP2 DUP2 SUB PUSH0 DUP4 ADD MSTORE PUSH2 0x1E69 DUP2 DUP5 PUSH2 0x1DDE JUMP JUMPDEST SWAP1 POP SWAP3 SWAP2 POP POP JUMP JUMPDEST PUSH0 PUSH0 REVERT JUMPDEST PUSH0 PUSH0 REVERT JUMPDEST PUSH2 0x1E82 DUP3 PUSH2 0x1CFD JUMP JUMPDEST DUP2 ADD DUP2 DUP2 LT PUSH8 0xFFFFFFFFFFFFFFFF DUP3 GT OR ISZERO PUSH2 0x1EA1 JUMPI PUSH2 0x1EA0 PUSH2 0x1738 JUMP JUMPDEST JUMPDEST DUP1 PUSH1 0x40 MSTORE POP POP POP JUMP JUMPDEST PUSH0 PUSH2 0x1EB3 PUSH2 0x1C02 JUMP JUMPDEST SWAP1 POP PUSH2 0x1EBF DUP3 DUP3 PUSH2 0x1E79 JUMP JUMPDEST SWAP2 SWAP1 POP JUMP JUMPDEST PUSH0 PUSH8 0xFFFFFFFFFFFFFFFF DUP3 GT ISZERO PUSH2 0x1EDE JUMPI PUSH2 0x1EDD PUSH2 0x1738 JUMP JUMPDEST JUMPDEST PUSH2 0x1EE7 DUP3 PUSH2 0x1CFD JUMP JUMPDEST SWAP1 POP PUSH1 0x20 DUP2 ADD SWAP1 POP SWAP2 SWAP1 POP JUMP JUMPDEST DUP3 DUP2 DUP4 CALLDATACOPY PUSH0 DUP4 DUP4 ADD MSTORE POP POP POP JUMP JUMPDEST PUSH0 PUSH2 0x1F14 PUSH2 0x1F0F DUP5 PUSH2 0x1EC4 JUMP JUMPDEST PUSH2 0x1EAA JUMP JUMPDEST SWAP1 POP DUP3 DUP2 MSTORE PUSH1 0x20 DUP2 ADD DUP5 DUP5 DUP5 ADD GT ISZERO PUSH2 0x1F30 JUMPI PUSH2 0x1F2F PUSH2 0x1E75 JUMP JUMPDEST JUMPDEST PUSH2 0x1F3B DUP5 DUP3 DUP6 PUSH2 0x1EF4 JUMP JUMPDEST POP SWAP4 SWAP3 POP POP POP JUMP JUMPDEST PUSH0 DUP3 PUSH1 0x1F DUP4 ADD SLT PUSH2 0x1F57 JUMPI PUSH2 0x1F56 PUSH2 0x1E71 JUMP JUMPDEST JUMPDEST DUP2 CALLDATALOAD PUSH2 0x1F67 DUP5 DUP3 PUSH1 0x20 DUP7 ADD PUSH2 0x1F02 JUMP JUMPDEST SWAP2 POP POP SWAP3 SWAP2 POP POP JUMP JUMPDEST PUSH0 PUSH0 PUSH1 0x40 DUP4 DUP6 SUB SLT ISZERO PUSH2 0x1F86 JUMPI PUSH2 0x1F85 PUSH2 0x1C0B JUMP JUMPDEST JUMPDEST PUSH0 DUP4 ADD CALLDATALOAD PUSH8 0xFFFFFFFFFFFFFFFF DUP2 GT ISZERO PUSH2 0x1FA3 JUMPI PUSH2 0x1FA2 PUSH2 0x1C0F JUMP JUMPDEST JUMPDEST PUSH2 0x1FAF DUP6 DUP3 DUP7 ADD PUSH2 0x1F43 JUMP JUMPDEST SWAP3 POP POP PUSH1 0x20 DUP4 ADD CALLDATALOAD PUSH8 0xFFFFFFFFFFFFFFFF DUP2 GT ISZERO PUSH2 0x1FD0 JUMPI PUSH2 0x1FCF PUSH2 0x1C0F JUMP JUMPDEST JUMPDEST PUSH2 0x1FDC DUP6 DUP3 DUP7 ADD PUSH2 0x1F43 JUMP JUMPDEST SWAP2 POP POP SWAP3 POP SWAP3 SWAP1 POP JUMP JUMPDEST PUSH0 PUSH0 PUSH0 PUSH1 0x60 DUP5 DUP7 SUB SLT ISZERO PUSH2 0x1FFD JUMPI PUSH2 0x1FFC PUSH2 0x1C0B JUMP JUMPDEST JUMPDEST PUSH0 DUP5 ADD CALLDATALOAD PUSH8 0xFFFFFFFFFFFFFFFF DUP2 GT ISZERO PUSH2 0x201A JUMPI PUSH2 0x2019 PUSH2 0x1C0F JUMP JUMPDEST JUMPDEST PUSH2 0x2026 DUP7 DUP3 DUP8 ADD PUSH2 0x1F43 JUMP JUMPDEST SWAP4 POP POP PUSH1 0x20 DUP5 ADD CALLDATALOAD PUSH8 0xFFFFFFFFFFFFFFFF DUP2 GT ISZERO PUSH2 0x2047 JUMPI PUSH2 0x2046 PUSH2 0x1C0F JUMP JUMPDEST JUMPDEST PUSH2 0x2053 DUP7 DUP3 DUP8 ADD PUSH2 0x1F43 JUMP JUMPDEST SWAP3 POP POP PUSH1 0x40 PUSH2 0x2064 DUP7 DUP3 DUP8 ADD PUSH2 0x1C29 JUMP JUMPDEST SWAP2 POP POP SWAP3 POP SWAP3 POP SWAP3 JUMP JUMPDEST PUSH0 PUSH1 0x20 DUP3 ADD SWAP1 POP PUSH2 0x2081 PUSH0 DUP4 ADD DUP5 PUSH2 0x1A9A JUMP JUMPDEST SWAP3 SWAP2 POP POP JUMP JUMPDEST PUSH2 0x2090 DUP2 PUSH2 0x1CB0 JUMP JUMPDEST DUP2 EQ PUSH2 0x209A JUMPI PUSH0 PUSH0 REVERT JUMPDEST POP JUMP JUMPDEST PUSH0 DUP2 CALLDATALOAD SWAP1 POP PUSH2 0x20AB DUP2 PUSH2 0x2087 JUMP JUMPDEST SWAP3 SWAP2 POP POP JUMP JUMPDEST PUSH0 PUSH1 0x20 DUP3 DUP5 SUB SLT ISZERO PUSH2 0x20C6 JUMPI PUSH2 0x20C5 PUSH2 0x1C0B JUMP JUMPDEST JUMPDEST PUSH0 PUSH2 0x20D3 DUP5 DUP3 DUP6 ADD PUSH2 0x209D JUMP JUMPDEST SWAP2 POP POP SWAP3 SWAP2 POP POP JUMP JUMPDEST PUSH0 PUSH2 0x20E6 DUP3 PUSH2 0x1C91 JUMP JUMPDEST SWAP1 POP SWAP2 SWAP1 POP JUMP JUMPDEST PUSH2 0x20F6 DUP2 PUSH2 0x20DC JUMP JUMPDEST DUP3 MSTORE POP POP JUMP JUMPDEST PUSH0 PUSH1 0x20 DUP3 ADD SWAP1 POP PUSH2 0x210F PUSH0 DUP4 ADD DUP5 PUSH2 0x20ED JUMP JUMPDEST SWAP3 SWAP2 POP POP JUMP JUMPDEST PUSH2 0x211E DUP2 PUSH2 0x1CB0 JUMP JUMPDEST DUP3 MSTORE POP POP JUMP JUMPDEST PUSH0 PUSH2 0x212E DUP3 PUSH2 0x172E JUMP JUMPDEST PUSH2 0x2138 DUP2 DUP6 PUSH2 0x1AA9 JUMP JUMPDEST SWAP4 POP PUSH2 0x2148 DUP2 DUP6 PUSH1 0x20 DUP7 ADD PUSH2 0x1CEF JUMP JUMPDEST PUSH2 0x2151 DUP2 PUSH2 0x1CFD JUMP JUMPDEST DUP5 ADD SWAP2 POP POP SWAP3 SWAP2 POP POP JUMP JUMPDEST PUSH0 PUSH1 0xA0 DUP3 ADD SWAP1 POP PUSH2 0x216F PUSH0 DUP4 ADD DUP9 PUSH2 0x2115 JUMP JUMPDEST PUSH2 0x217C PUSH1 0x20 DUP4 ADD DUP8 PUSH2 0x1A9A JUMP JUMPDEST DUP2 DUP2 SUB PUSH1 0x40 DUP4 ADD MSTORE PUSH2 0x218E DUP2 DUP7 PUSH2 0x2124 JUMP JUMPDEST SWAP1 POP DUP2 DUP2 SUB PUSH1 0x60 DUP4 ADD MSTORE PUSH2 0x21A2 DUP2 DUP6 PUSH2 0x2124 JUMP JUMPDEST SWAP1 POP PUSH2 0x21B1 PUSH1 0x80 DUP4 ADD DUP5 PUSH2 0x1A9A JUMP JUMPDEST SWAP7 SWAP6 POP POP POP POP POP POP JUMP JUMPDEST PUSH0 PUSH1 0x40 DUP3 ADD SWAP1 POP PUSH2 0x21CE PUSH0 DUP4 ADD DUP6 PUSH2 0x1A9A JUMP JUMPDEST PUSH2 0x21DB PUSH1 0x20 DUP4 ADD DUP5 PUSH2 0x1A9A JUMP JUMPDEST SWAP4 SWAP3 POP POP POP JUMP JUMPDEST PUSH2 0x21EB DUP2 PUSH2 0x20DC JUMP JUMPDEST DUP2 EQ PUSH2 0x21F5 JUMPI PUSH0 PUSH0 REVERT JUMPDEST POP JUMP JUMPDEST PUSH0 DUP2 CALLDATALOAD SWAP1 POP PUSH2 0x2206 DUP2 PUSH2 0x21E2 JUMP JUMPDEST SWAP3 SWAP2 POP POP JUMP JUMPDEST PUSH0 PUSH1 0x20 DUP3 DUP5 SUB SLT ISZERO PUSH2 0x2221 JUMPI PUSH2 0x2220 PUSH2 0x1C0B JUMP JUMPDEST JUMPDEST PUSH0 PUSH2 0x222E DUP5 DUP3 DUP6 ADD PUSH2 0x21F8 JUMP JUMPDEST SWAP2 POP POP SWAP3 SWAP2 POP POP JUMP JUMPDEST PUSH32 0x5365756C206C652070726F707269657461697265207065757420656666656374 PUSH0 DUP3 ADD MSTORE PUSH32 0x75657220636574746520616374696F6E00000000000000000000000000000000 PUSH1 0x20 DUP3 ADD MSTORE POP JUMP JUMPDEST PUSH0 PUSH2 0x2291 PUSH1 0x30 DUP4 PUSH2 0x1AA9 JUMP JUMPDEST SWAP2 POP PUSH2 0x229C DUP3 PUSH2 0x2237 JUMP JUMPDEST PUSH1 0x40 DUP3 ADD SWAP1 POP SWAP2 SWAP1 POP JUMP JUMPDEST PUSH0 PUSH1 0x20 DUP3 ADD SWAP1 POP DUP2 DUP2 SUB PUSH0 DUP4 ADD MSTORE PUSH2 0x22BE DUP2 PUSH2 0x2285 JUMP JUMPDEST SWAP1 POP SWAP2 SWAP1 POP JUMP JUMPDEST PUSH32 0x4C65206D6F6E74616E7420646F69742065747265207375706572696575722061 PUSH0 DUP3 ADD MSTORE PUSH32 0x2030000000000000000000000000000000000000000000000000000000000000 PUSH1 0x20 DUP3 ADD MSTORE POP JUMP JUMPDEST PUSH0 PUSH2 0x231F PUSH1 0x22 DUP4 PUSH2 0x1AA9 JUMP JUMPDEST SWAP2 POP PUSH2 0x232A DUP3 PUSH2 0x22C5 JUMP JUMPDEST PUSH1 0x40 DUP3 ADD SWAP1 POP SWAP2 SWAP1 POP JUMP JUMPDEST PUSH0 PUSH1 0x20 DUP3 ADD SWAP1 POP DUP2 DUP2 SUB PUSH0 DUP4 ADD MSTORE PUSH2 0x234C DUP2 PUSH2 0x2313 JUMP JUMPDEST SWAP1 POP SWAP2 SWAP1 POP JUMP JUMPDEST PUSH32 0x536F6C646520696E737566666973616E74000000000000000000000000000000 PUSH0 DUP3 ADD MSTORE POP JUMP JUMPDEST PUSH0 PUSH2 0x2387 PUSH1 0x11 DUP4 PUSH2 0x1AA9 JUMP JUMPDEST SWAP2 POP PUSH2 0x2392 DUP3 PUSH2 0x2353 JUMP JUMPDEST PUSH1 0x20 DUP3 ADD SWAP1 POP SWAP2 SWAP1 POP JUMP JUMPDEST PUSH0 PUSH1 0x20 DUP3 ADD SWAP1 POP DUP2 DUP2 SUB PUSH0 DUP4 ADD MSTORE PUSH2 0x23B4 DUP2 PUSH2 0x237B JUMP JUMPDEST SWAP1 POP SWAP2 SWAP1 POP JUMP JUMPDEST PUSH0 DUP2 SWAP1 POP SWAP3 SWAP2 POP POP JUMP JUMPDEST POP JUMP JUMPDEST PUSH0 PUSH2 0x23D3 PUSH0 DUP4 PUSH2 0x23BB JUMP JUMPDEST SWAP2 POP PUSH2 0x23DE DUP3 PUSH2 0x23C5 JUMP JUMPDEST PUSH0 DUP3 ADD SWAP1 POP SWAP2 SWAP1 POP JUMP JUMPDEST PUSH0 PUSH2 0x23F2 DUP3 PUSH2 0x23C8 JUMP JUMPDEST SWAP2 POP DUP2 SWAP1 POP SWAP2 SWAP1 POP JUMP JUMPDEST PUSH32 0x4563686563206475207265747261697400000000000000000000000000000000 PUSH0 DUP3 ADD MSTORE POP JUMP JUMPDEST PUSH0 PUSH2 0x2430 PUSH1 0x10 DUP4 PUSH2 0x1AA9 JUMP JUMPDEST SWAP2 POP PUSH2 0x243B DUP3 PUSH2 0x23FC JUMP JUMPDEST PUSH1 0x20 DUP3 ADD SWAP1 POP SWAP2 SWAP1 POP JUMP JUMPDEST PUSH0 PUSH1 0x20 DUP3 ADD SWAP1 POP DUP2 DUP2 SUB PUSH0 DUP4 ADD MSTORE PUSH2 0x245D DUP2 PUSH2 0x2424 JUMP JUMPDEST SWAP1 POP SWAP2 SWAP1 POP JUMP JUMPDEST PUSH0 PUSH2 0x246E DUP3 PUSH2 0x1840 JUMP JUMPDEST SWAP2 POP PUSH2 0x2479 DUP4 PUSH2 0x1840 JUMP JUMPDEST SWAP3 POP DUP3 DUP3 SUB SWAP1 POP DUP2 DUP2 GT ISZERO PUSH2 0x2491 JUMPI PUSH2 0x2490 PUSH2 0x1A3A JUMP JUMPDEST JUMPDEST SWAP3 SWAP2 POP POP JUMP JUMPDEST PUSH32 0x4E487B7100000000000000000000000000000000000000000000000000000000 PUSH0 MSTORE PUSH1 0x32 PUSH1 0x4 MSTORE PUSH1 0x24 PUSH0 REVERT JUMPDEST PUSH32 0x4C65206D6F6E74616E74206D696E696D756D2065737420302E30303120455448 PUSH0 DUP3 ADD MSTORE POP JUMP JUMPDEST PUSH0 PUSH2 0x24F8 PUSH1 0x20 DUP4 PUSH2 0x1AA9 JUMP JUMPDEST SWAP2 POP PUSH2 0x2503 DUP3 PUSH2 0x24C4 JUMP JUMPDEST PUSH1 0x20 DUP3 ADD SWAP1 POP SWAP2 SWAP1 POP JUMP JUMPDEST PUSH0 PUSH1 0x20 DUP3 ADD SWAP1 POP DUP2 DUP2 SUB PUSH0 DUP4 ADD MSTORE PUSH2 0x2525 DUP2 PUSH2 0x24EC JUMP JUMPDEST SWAP1 POP SWAP2 SWAP1 POP JUMP JUMPDEST PUSH32 0x4C65206E6F6D206E652070657574207061732065747265207669646500000000 PUSH0 DUP3 ADD MSTORE POP JUMP JUMPDEST PUSH0 PUSH2 0x2560 PUSH1 0x1C DUP4 PUSH2 0x1AA9 JUMP JUMPDEST SWAP2 POP PUSH2 0x256B DUP3 PUSH2 0x252C JUMP JUMPDEST PUSH1 0x20 DUP3 ADD SWAP1 POP SWAP2 SWAP1 POP JUMP JUMPDEST PUSH0 PUSH1 0x20 DUP3 ADD SWAP1 POP DUP2 DUP2 SUB PUSH0 DUP4 ADD MSTORE PUSH2 0x258D DUP2 PUSH2 0x2554 JUMP JUMPDEST SWAP1 POP SWAP2 SWAP1 POP JUMP JUMPDEST PUSH0 PUSH1 0x80 DUP3 ADD SWAP1 POP PUSH2 0x25A7 PUSH0 DUP4 ADD DUP8 PUSH2 0x1A9A JUMP JUMPDEST DUP2 DUP2 SUB PUSH1 0x20 DUP4 ADD MSTORE PUSH2 0x25B9 DUP2 DUP7 PUSH2 0x2124 JUMP JUMPDEST SWAP1 POP DUP2 DUP2 SUB PUSH1 0x40 DUP4 ADD MSTORE PUSH2 0x25CD DUP2 DUP6 PUSH2 0x2124 JUMP JUMPDEST SWAP1 POP PUSH2 0x25DC PUSH1 0x60 DUP4 ADD DUP5 PUSH2 0x1A9A JUMP JUMPDEST SWAP6 SWAP5 POP POP POP POP POP JUMP JUMPDEST PUSH32 0x566F757320706F7576657A206163686574657220656E74726520312065742031 PUSH0 DUP3 ADD MSTORE PUSH32 0x3020636166657300000000000000000000000000000000000000000000000000 PUSH1 0x20 DUP3 ADD MSTORE POP JUMP JUMPDEST PUSH0 PUSH2 0x263F PUSH1 0x27 DUP4 PUSH2 0x1AA9 JUMP JUMPDEST SWAP2 POP PUSH2 0x264A DUP3 PUSH2 0x25E5 JUMP JUMPDEST PUSH1 0x40 DUP3 ADD SWAP1 POP SWAP2 SWAP1 POP JUMP JUMPDEST PUSH0 PUSH1 0x20 DUP3 ADD SWAP1 POP DUP2 DUP2 SUB PUSH0 DUP4 ADD MSTORE PUSH2 0x266C DUP2 PUSH2 0x2633 JUMP JUMPDEST SWAP1 POP SWAP2 SWAP1 POP JUMP JUMPDEST PUSH0 PUSH2 0x267D DUP3 PUSH2 0x1840 JUMP JUMPDEST SWAP2 POP PUSH2 0x2688 DUP4 PUSH2 0x1840 JUMP JUMPDEST SWAP3 POP DUP3 DUP3 MUL PUSH2 0x2696 DUP2 PUSH2 0x1840 JUMP JUMPDEST SWAP2 POP DUP3 DUP3 DIV DUP5 EQ DUP4 ISZERO OR PUSH2 0x26AD JUMPI PUSH2 0x26AC PUSH2 0x1A3A JUMP JUMPDEST JUMPDEST POP SWAP3 SWAP2 POP POP JUMP JUMPDEST PUSH32 0x4D6F6E74616E7420696E737566666973616E7420706F7572206C65206E6F6D62 PUSH0 DUP3 ADD MSTORE PUSH32 0x7265206465206361666573000000000000000000000000000000000000000000 PUSH1 0x20 DUP3 ADD MSTORE POP JUMP JUMPDEST PUSH0 PUSH2 0x270E PUSH1 0x2B DUP4 PUSH2 0x1AA9 JUMP JUMPDEST SWAP2 POP PUSH2 0x2719 DUP3 PUSH2 0x26B4 JUMP JUMPDEST PUSH1 0x40 DUP3 ADD SWAP1 POP SWAP2 SWAP1 POP JUMP JUMPDEST PUSH0 PUSH1 0x20 DUP3 ADD SWAP1 POP DUP2 DUP2 SUB PUSH0 DUP4 ADD MSTORE PUSH2 0x273B DUP2 PUSH2 0x2702 JUMP JUMPDEST SWAP1 POP SWAP2 SWAP1 POP JUMP JUMPDEST PUSH32 0x4E487B7100000000000000000000000000000000000000000000000000000000 PUSH0 MSTORE PUSH1 0x12 PUSH1 0x4 MSTORE PUSH1 0x24 PUSH0 REVERT JUMPDEST PUSH0 PUSH2 0x2779 DUP3 PUSH2 0x1840 JUMP JUMPDEST SWAP2 POP PUSH2 0x2784 DUP4 PUSH2 0x1840 JUMP JUMPDEST SWAP3 POP DUP3 PUSH2 0x2794 JUMPI PUSH2 0x2793 PUSH2 0x2742 JUMP JUMPDEST JUMPDEST DUP3 DUP3 DIV SWAP1 POP SWAP3 SWAP2 POP POP JUMP JUMPDEST PUSH32 0x417563756E20666F6E6473206120726574697265720000000000000000000000 PUSH0 DUP3 ADD MSTORE POP JUMP JUMPDEST PUSH0 PUSH2 0x27D3 PUSH1 0x15 DUP4 PUSH2 0x1AA9 JUMP JUMPDEST SWAP2 POP PUSH2 0x27DE DUP3 PUSH2 0x279F JUMP JUMPDEST PUSH1 0x20 DUP3 ADD SWAP1 POP SWAP2 SWAP1 POP JUMP JUMPDEST PUSH0 PUSH1 0x20 DUP3 ADD SWAP1 POP DUP2 DUP2 SUB PUSH0 DUP4 ADD MSTORE PUSH2 0x2800 DUP2 PUSH2 0x27C7 JUMP JUMPDEST SWAP1 POP SWAP2 SWAP1 POP JUMP JUMPDEST PUSH0 PUSH2 0x2811 DUP3 PUSH2 0x1840 JUMP JUMPDEST SWAP2 POP PUSH32 0xFFFFFFFFFFFFFFFFFFFFFFFFFFFFFFFFFFFFFFFFFFFFFFFFFFFFFFFFFFFFFFFF DUP3 SUB PUSH2 0x2843 JUMPI PUSH2 0x2842 PUSH2 0x1A3A JUMP JUMPDEST JUMPDEST PUSH1 0x1 DUP3 ADD SWAP1 POP SWAP2 SWAP1 POP JUMP JUMPDEST PUSH32 0x4E6F7576656C6C65206164726573736520696E76616C69646500000000000000 PUSH0 DUP3 ADD MSTORE POP JUMP JUMPDEST PUSH0 PUSH2 0x2882 PUSH1 0x19 DUP4 PUSH2 0x1AA9 JUMP JUMPDEST SWAP2 POP PUSH2 0x288D DUP3 PUSH2 0x284E JUMP JUMPDEST PUSH1 0x20 DUP3 ADD SWAP1 POP SWAP2 SWAP1 POP JUMP JUMPDEST PUSH0 PUSH1 0x20 DUP3 ADD SWAP1 POP DUP2 DUP2 SUB PUSH0 DUP4 ADD MSTORE PUSH2 0x28AF DUP2 PUSH2 0x2876 JUMP JUMPDEST SWAP1 POP SWAP2 SWAP1 POP JUMP INVALID LOG2 PUSH5 0x6970667358 0x22 SLT KECCAK256 GAS 0x4B CALLDATALOAD 0xBC 0xDA SELFBALANCE 0x26 SWAP6 PREVRANDAO EXTCODECOPY MULMOD SWAPN 0x96 0xD5 EXTCODECOPY 0xD 0xED INVALID 0xE2 CODECOPY RETURN PUSH8 0x1C3909D98951FF1 JUMPF 0xE064 PUSH20 0x6F6C634300081E00330000000000000000000000 "
				},
				"gasEstimates": {
					"creation": {
						"codeDepositCost": "2095200",
						"executionCost": "26491",
						"totalCost": "2121691"
					},
					"external": {
						"": "468",
						"MIN_COFFEE_PRICE()": "414",
						"buyCoffee(string,string)": "infinite",
						"buyMultipleCoffees(string,string,uint256)": "infinite",
						"coffees(uint256)": "infinite",
						"getCoffees()": "infinite",
						"getContractBalance()": "357",
						"getDonorStats(address)": "infinite",
						"getRecentCoffees()": "infinite",
						"getTotalCoffees()": "2484",
						"owner()": "2574",
						"totalDonatedBy(address)": "2847",
						"transferOwnership(address)": "27004",
						"withdrawPartial(uint256)": "infinite",
						"withdrawTips()": "infinite"
					}
				},
				"methodIdentifiers": {
					"MIN_COFFEE_PRICE()": "5cbee4ef",
					"buyCoffee(string,string)": "204206e1",
					"buyMultipleCoffees(string,string,uint256)": "2c490cc7",
					"coffees(uint256)": "aa586704",
					"getCoffees()": "5b0c306d",
					"getContractBalance()": "6f9fb98a",
					"getDonorStats(address)": "c8eb0c88",
					"getRecentCoffees()": "1e6178cc",
					"getTotalCoffees()": "b02eafb1",
					"owner()": "8da5cb5b",
					"totalDonatedBy(address)": "7b4424b8",
					"transferOwnership(address)": "f2fde38b",
					"withdrawPartial(uint256)": "1211540c",
					"withdrawTips()": "3aaa74b2"
				}
			},
			"storageLayout": {
				"storage": [
					{
						"astId": 34,
						"contract": "BuyMeACoffee.sol:BuyMeACoffee",
						"label": "owner",
						"offset": 0,
						"slot": "0",
						"type": "t_address_payable"
					},
					{
						"astId": 38,
						"contract": "BuyMeACoffee.sol:BuyMeACoffee",
						"label": "coffees",
						"offset": 0,
						"slot": "1",
						"type": "t_array(t_struct(Coffee)32_storage)dyn_storage"
					},
					{
						"astId": 45,
						"contract": "BuyMeACoffee.sol:BuyMeACoffee",
						"label": "totalDonatedBy",
						"offset": 0,
						"slot": "2",
						"type": "t_mapping(t_address,t_uint256)"
					}
				],
				"types": {
					"t_address": {
						"encoding": "inplace",
						"label": "address",
						"numberOfBytes": "20"
					},
					"t_address_payable": {
						"encoding": "inplace",
						"label": "address payable",
						"numberOfBytes": "20"
					},
					"t_array(t_struct(Coffee)32_storage)dyn_storage": {
						"base": "t_struct(Coffee)32_storage",
						"encoding": "dynamic_array",
						"label": "struct BuyMeACoffee.Coffee[]",
						"numberOfBytes": "32"
					},
					"t_mapping(t_address,t_uint256)": {
						"encoding": "mapping",
						"key": "t_address",
						"label": "mapping(address => uint256)",
						"numberOfBytes": "32",
						"value": "t_uint256"
					},
					"t_string_storage": {
						"encoding": "bytes",
						"label": "string",
						"numberOfBytes": "32"
					},
					"t_struct(Coffee)32_storage": {
						"encoding": "inplace",
						"label": "struct BuyMeACoffee.Coffee",
						"members": [
							{
								"astId": 23,
								"contract": "BuyMeACoffee.sol:BuyMeACoffee",
								"label": "from",
								"offset": 0,
								"slot": "0",
								"type": "t_address"
							},
							{
								"astId": 25,
								"contract": "BuyMeACoffee.sol:BuyMeACoffee",
								"label": "timestamp",
								"offset": 0,
								"slot": "1",
								"type": "t_uint256"
							},
							{
								"astId": 27,
								"contract": "BuyMeACoffee.sol:BuyMeACoffee",
								"label": "name",
								"offset": 0,
								"slot": "2",
								"type": "t_string_storage"
							},
							{
								"astId": 29,
								"contract": "BuyMeACoffee.sol:BuyMeACoffee",
								"label": "message",
								"offset": 0,
								"slot": "3",
								"type": "t_string_storage"
							},
							{
								"astId": 31,
								"contract": "BuyMeACoffee.sol:BuyMeACoffee",
								"label": "amount",
								"offset": 0,
								"slot": "4",
								"type": "t_uint256"
							}
						],
						"numberOfBytes": "160"
					},
					"t_uint256": {
						"encoding": "inplace",
						"label": "uint256",
						"numberOfBytes": "32"
					}
				}
			},
			"userdoc": {
				"kind": "user",
				"methods": {},
				"version": 1
			}
		}
	}
}